{
  "_format": "hh-sol-artifact-1",
  "contractName": "CertificateSBT",
  "sourceName": "contracts/CertificateSBT.sol",
  "abi": [
    {
      "anonymous": false,
      "inputs": [
        {
          "indexed": false,
          "internalType": "address",
          "name": "previousAdmin",
          "type": "address"
        },
        {
          "indexed": false,
          "internalType": "address",
          "name": "newAdmin",
          "type": "address"
        }
      ],
      "name": "AdminChanged",
      "type": "event"
    },
    {
      "anonymous": false,
      "inputs": [
        {
          "indexed": true,
          "internalType": "address",
          "name": "owner",
          "type": "address"
        },
        {
          "indexed": true,
          "internalType": "address",
          "name": "approved",
          "type": "address"
        },
        {
          "indexed": true,
          "internalType": "uint256",
          "name": "tokenId",
          "type": "uint256"
        }
      ],
      "name": "Approval",
      "type": "event"
    },
    {
      "anonymous": false,
      "inputs": [
        {
          "indexed": true,
          "internalType": "address",
          "name": "owner",
          "type": "address"
        },
        {
          "indexed": true,
          "internalType": "address",
          "name": "operator",
          "type": "address"
        },
        {
          "indexed": false,
          "internalType": "bool",
          "name": "approved",
          "type": "bool"
        }
      ],
      "name": "ApprovalForAll",
      "type": "event"
    },
    {
      "anonymous": false,
      "inputs": [
        {
          "indexed": false,
          "internalType": "uint256",
          "name": "_fromTokenId",
          "type": "uint256"
        },
        {
          "indexed": false,
          "internalType": "uint256",
          "name": "_toTokenId",
          "type": "uint256"
        }
      ],
      "name": "BatchMetadataUpdate",
      "type": "event"
    },
    {
      "anonymous": false,
      "inputs": [
        {
          "indexed": true,
          "internalType": "address",
          "name": "beacon",
          "type": "address"
        }
      ],
      "name": "BeaconUpgraded",
      "type": "event"
    },
    {
      "anonymous": false,
      "inputs": [
        {
          "indexed": true,
          "internalType": "uint256",
          "name": "tokenId",
          "type": "uint256"
        },
        {
          "indexed": true,
          "internalType": "address",
          "name": "beneficiary",
          "type": "address"
        },
        {
          "indexed": true,
          "internalType": "bytes32",
          "name": "packageHash",
          "type": "bytes32"
        },
        {
          "indexed": false,
          "internalType": "address",
          "name": "issuer",
          "type": "address"
        },
        {
          "indexed": false,
          "internalType": "uint256",
          "name": "timestamp",
          "type": "uint256"
        }
      ],
      "name": "CertificateMinted",
      "type": "event"
    },
    {
      "anonymous": false,
      "inputs": [
        {
          "indexed": true,
          "internalType": "uint256",
          "name": "tokenId",
          "type": "uint256"
        },
        {
          "indexed": false,
          "internalType": "string",
          "name": "reason",
          "type": "string"
        },
        {
          "indexed": false,
          "internalType": "uint256",
          "name": "timestamp",
          "type": "uint256"
        }
      ],
      "name": "CertificateRevoked",
      "type": "event"
    },
    {
      "anonymous": false,
      "inputs": [
        {
          "indexed": false,
          "internalType": "uint8",
          "name": "version",
          "type": "uint8"
        }
      ],
      "name": "Initialized",
      "type": "event"
    },
    {
      "anonymous": false,
      "inputs": [
        {
          "indexed": false,
          "internalType": "uint256",
          "name": "_tokenId",
          "type": "uint256"
        }
      ],
      "name": "MetadataUpdate",
      "type": "event"
    },
    {
      "anonymous": false,
      "inputs": [
        {
          "indexed": true,
          "internalType": "bytes32",
          "name": "role",
          "type": "bytes32"
        },
        {
          "indexed": true,
          "internalType": "bytes32",
          "name": "previousAdminRole",
          "type": "bytes32"
        },
        {
          "indexed": true,
          "internalType": "bytes32",
          "name": "newAdminRole",
          "type": "bytes32"
        }
      ],
      "name": "RoleAdminChanged",
      "type": "event"
    },
    {
      "anonymous": false,
      "inputs": [
        {
          "indexed": true,
          "internalType": "bytes32",
          "name": "role",
          "type": "bytes32"
        },
        {
          "indexed": true,
          "internalType": "address",
          "name": "account",
          "type": "address"
        },
        {
          "indexed": true,
          "internalType": "address",
          "name": "sender",
          "type": "address"
        }
      ],
      "name": "RoleGranted",
      "type": "event"
    },
    {
      "anonymous": false,
      "inputs": [
        {
          "indexed": true,
          "internalType": "bytes32",
          "name": "role",
          "type": "bytes32"
        },
        {
          "indexed": true,
          "internalType": "address",
          "name": "account",
          "type": "address"
        },
        {
          "indexed": true,
          "internalType": "address",
          "name": "sender",
          "type": "address"
        }
      ],
      "name": "RoleRevoked",
      "type": "event"
    },
    {
      "anonymous": false,
      "inputs": [
        {
          "indexed": true,
          "internalType": "address",
          "name": "from",
          "type": "address"
        },
        {
          "indexed": true,
          "internalType": "address",
          "name": "to",
          "type": "address"
        },
        {
          "indexed": true,
          "internalType": "uint256",
          "name": "tokenId",
          "type": "uint256"
        }
      ],
      "name": "Transfer",
      "type": "event"
    },
    {
      "anonymous": false,
      "inputs": [
        {
          "indexed": true,
          "internalType": "address",
          "name": "implementation",
          "type": "address"
        }
      ],
      "name": "Upgraded",
      "type": "event"
    },
    {
      "inputs": [],
      "name": "ADMIN_ROLE",
      "outputs": [
        {
          "internalType": "bytes32",
          "name": "",
          "type": "bytes32"
        }
      ],
      "stateMutability": "view",
      "type": "function"
    },
    {
      "inputs": [],
      "name": "DEFAULT_ADMIN_ROLE",
      "outputs": [
        {
          "internalType": "bytes32",
          "name": "",
          "type": "bytes32"
        }
      ],
      "stateMutability": "view",
      "type": "function"
    },
    {
      "inputs": [],
      "name": "ONG_ROLE",
      "outputs": [
        {
          "internalType": "bytes32",
          "name": "",
          "type": "bytes32"
        }
      ],
      "stateMutability": "view",
      "type": "function"
    },
    {
      "inputs": [
        {
          "internalType": "address",
          "name": "to",
          "type": "address"
        },
        {
          "internalType": "uint256",
          "name": "tokenId",
          "type": "uint256"
        }
      ],
      "name": "approve",
      "outputs": [],
      "stateMutability": "nonpayable",
      "type": "function"
    },
    {
      "inputs": [
        {
          "internalType": "address",
          "name": "owner",
          "type": "address"
        }
      ],
      "name": "balanceOf",
      "outputs": [
        {
          "internalType": "uint256",
          "name": "",
          "type": "uint256"
        }
      ],
      "stateMutability": "view",
      "type": "function"
    },
    {
      "inputs": [
        {
          "internalType": "uint256",
          "name": "tokenId",
          "type": "uint256"
        }
      ],
      "name": "getApproved",
      "outputs": [
        {
          "internalType": "address",
          "name": "",
          "type": "address"
        }
      ],
      "stateMutability": "view",
      "type": "function"
    },
    {
      "inputs": [
        {
          "internalType": "uint256",
          "name": "tokenId",
          "type": "uint256"
        }
      ],
      "name": "getCertificate",
      "outputs": [
        {
          "internalType": "address",
          "name": "owner",
          "type": "address"
        },
        {
          "internalType": "address",
          "name": "issuer",
          "type": "address"
        },
        {
          "internalType": "string",
          "name": "metadata",
          "type": "string"
        },
        {
          "internalType": "bool",
          "name": "isRevoked",
          "type": "bool"
        },
        {
          "internalType": "string",
          "name": "reason",
          "type": "string"
        },
        {
          "internalType": "uint256",
          "name": "timestamp",
          "type": "uint256"
        }
      ],
      "stateMutability": "view",
      "type": "function"
    },
    {
      "inputs": [
        {
          "internalType": "address",
          "name": "owner",
          "type": "address"
        }
      ],
      "name": "getCertificatesByOwner",
      "outputs": [
        {
          "internalType": "uint256[]",
          "name": "tokenIds",
          "type": "uint256[]"
        }
      ],
      "stateMutability": "view",
      "type": "function"
    },
    {
      "inputs": [
        {
          "internalType": "bytes32",
          "name": "role",
          "type": "bytes32"
        }
      ],
      "name": "getRoleAdmin",
      "outputs": [
        {
          "internalType": "bytes32",
          "name": "",
          "type": "bytes32"
        }
      ],
      "stateMutability": "view",
      "type": "function"
    },
    {
      "inputs": [
        {
          "internalType": "bytes32",
          "name": "role",
          "type": "bytes32"
        },
        {
          "internalType": "address",
          "name": "account",
          "type": "address"
        }
      ],
      "name": "grantRole",
      "outputs": [],
      "stateMutability": "nonpayable",
      "type": "function"
    },
    {
      "inputs": [
        {
          "internalType": "bytes32",
          "name": "role",
          "type": "bytes32"
        },
        {
          "internalType": "address",
          "name": "account",
          "type": "address"
        }
      ],
      "name": "hasRole",
      "outputs": [
        {
          "internalType": "bool",
          "name": "",
          "type": "bool"
        }
      ],
      "stateMutability": "view",
      "type": "function"
    },
    {
      "inputs": [
        {
          "internalType": "address",
          "name": "admin",
          "type": "address"
        }
      ],
      "name": "initialize",
      "outputs": [],
      "stateMutability": "nonpayable",
      "type": "function"
    },
    {
      "inputs": [
        {
          "internalType": "address",
          "name": "owner",
          "type": "address"
        },
        {
          "internalType": "address",
          "name": "operator",
          "type": "address"
        }
      ],
      "name": "isApprovedForAll",
      "outputs": [
        {
          "internalType": "bool",
          "name": "",
          "type": "bool"
        }
      ],
      "stateMutability": "view",
      "type": "function"
    },
    {
      "inputs": [
        {
          "internalType": "uint256",
          "name": "",
          "type": "uint256"
        }
      ],
      "name": "issuerONG",
      "outputs": [
        {
          "internalType": "address",
          "name": "",
          "type": "address"
        }
      ],
      "stateMutability": "view",
      "type": "function"
    },
    {
      "inputs": [
        {
          "internalType": "address",
          "name": "beneficiary",
          "type": "address"
        },
        {
          "internalType": "bytes32",
          "name": "packageHash",
          "type": "bytes32"
        },
        {
          "internalType": "string",
          "name": "metadataURI",
          "type": "string"
        }
      ],
      "name": "mintSBT",
      "outputs": [
        {
          "internalType": "uint256",
          "name": "",
          "type": "uint256"
        }
      ],
      "stateMutability": "nonpayable",
      "type": "function"
    },
    {
      "inputs": [],
      "name": "name",
      "outputs": [
        {
          "internalType": "string",
          "name": "",
          "type": "string"
        }
      ],
      "stateMutability": "view",
      "type": "function"
    },
    {
      "inputs": [
        {
          "internalType": "uint256",
          "name": "tokenId",
          "type": "uint256"
        }
      ],
      "name": "ownerOf",
      "outputs": [
        {
          "internalType": "address",
          "name": "",
          "type": "address"
        }
      ],
      "stateMutability": "view",
      "type": "function"
    },
    {
      "inputs": [
        {
          "internalType": "bytes32",
          "name": "",
          "type": "bytes32"
        }
      ],
      "name": "packageHashToTokenId",
      "outputs": [
        {
          "internalType": "uint256",
          "name": "",
          "type": "uint256"
        }
      ],
      "stateMutability": "view",
      "type": "function"
    },
    {
      "inputs": [],
      "name": "proxiableUUID",
      "outputs": [
        {
          "internalType": "bytes32",
          "name": "",
          "type": "bytes32"
        }
      ],
      "stateMutability": "view",
      "type": "function"
    },
    {
      "inputs": [
        {
          "internalType": "bytes32",
          "name": "role",
          "type": "bytes32"
        },
        {
          "internalType": "address",
          "name": "account",
          "type": "address"
        }
      ],
      "name": "renounceRole",
      "outputs": [],
      "stateMutability": "nonpayable",
      "type": "function"
    },
    {
      "inputs": [
        {
          "internalType": "uint256",
          "name": "tokenId",
          "type": "uint256"
        },
        {
          "internalType": "string",
          "name": "reason",
          "type": "string"
        }
      ],
      "name": "revokeCertificate",
      "outputs": [],
      "stateMutability": "nonpayable",
      "type": "function"
    },
    {
      "inputs": [
        {
          "internalType": "uint256",
          "name": "",
          "type": "uint256"
        }
      ],
      "name": "revokeReason",
      "outputs": [
        {
          "internalType": "string",
          "name": "",
          "type": "string"
        }
      ],
      "stateMutability": "view",
      "type": "function"
    },
    {
      "inputs": [
        {
          "internalType": "bytes32",
          "name": "role",
          "type": "bytes32"
        },
        {
          "internalType": "address",
          "name": "account",
          "type": "address"
        }
      ],
      "name": "revokeRole",
      "outputs": [],
      "stateMutability": "nonpayable",
      "type": "function"
    },
    {
      "inputs": [
        {
          "internalType": "uint256",
          "name": "",
          "type": "uint256"
        }
      ],
      "name": "revoked",
      "outputs": [
        {
          "internalType": "bool",
          "name": "",
          "type": "bool"
        }
      ],
      "stateMutability": "view",
      "type": "function"
    },
    {
      "inputs": [
        {
          "internalType": "address",
          "name": "from",
          "type": "address"
        },
        {
          "internalType": "address",
          "name": "to",
          "type": "address"
        },
        {
          "internalType": "uint256",
          "name": "tokenId",
          "type": "uint256"
        }
      ],
      "name": "safeTransferFrom",
      "outputs": [],
      "stateMutability": "nonpayable",
      "type": "function"
    },
    {
      "inputs": [
        {
          "internalType": "address",
          "name": "from",
          "type": "address"
        },
        {
          "internalType": "address",
          "name": "to",
          "type": "address"
        },
        {
          "internalType": "uint256",
          "name": "tokenId",
          "type": "uint256"
        },
        {
          "internalType": "bytes",
          "name": "data",
          "type": "bytes"
        }
      ],
      "name": "safeTransferFrom",
      "outputs": [],
      "stateMutability": "nonpayable",
      "type": "function"
    },
    {
      "inputs": [
        {
          "internalType": "address",
          "name": "operator",
          "type": "address"
        },
        {
          "internalType": "bool",
          "name": "approved",
          "type": "bool"
        }
      ],
      "name": "setApprovalForAll",
      "outputs": [],
      "stateMutability": "nonpayable",
      "type": "function"
    },
    {
      "inputs": [
        {
          "internalType": "bytes4",
          "name": "interfaceId",
          "type": "bytes4"
        }
      ],
      "name": "supportsInterface",
      "outputs": [
        {
          "internalType": "bool",
          "name": "",
          "type": "bool"
        }
      ],
      "stateMutability": "view",
      "type": "function"
    },
    {
      "inputs": [],
      "name": "symbol",
      "outputs": [
        {
          "internalType": "string",
          "name": "",
          "type": "string"
        }
      ],
      "stateMutability": "view",
      "type": "function"
    },
    {
      "inputs": [
        {
          "internalType": "uint256",
          "name": "tokenId",
          "type": "uint256"
        }
      ],
      "name": "tokenURI",
      "outputs": [
        {
          "internalType": "string",
          "name": "",
          "type": "string"
        }
      ],
      "stateMutability": "view",
      "type": "function"
    },
    {
      "inputs": [
        {
          "internalType": "address",
          "name": "from",
          "type": "address"
        },
        {
          "internalType": "address",
          "name": "to",
          "type": "address"
        },
        {
          "internalType": "uint256",
          "name": "tokenId",
          "type": "uint256"
        }
      ],
      "name": "transferFrom",
      "outputs": [],
      "stateMutability": "nonpayable",
      "type": "function"
    },
    {
      "inputs": [
        {
          "internalType": "address",
          "name": "newImplementation",
          "type": "address"
        }
      ],
      "name": "upgradeTo",
      "outputs": [],
      "stateMutability": "nonpayable",
      "type": "function"
    },
    {
      "inputs": [
        {
          "internalType": "address",
          "name": "newImplementation",
          "type": "address"
        },
        {
          "internalType": "bytes",
          "name": "data",
          "type": "bytes"
        }
      ],
      "name": "upgradeToAndCall",
      "outputs": [],
      "stateMutability": "payable",
      "type": "function"
    }
  ],
  "bytecode": "60a06040523073ffffffffffffffffffffffffffffffffffffffff1660809073ffffffffffffffffffffffffffffffffffffffff1681525034801561004357600080fd5b50608051615bce61007b60003960008181610d2d01528181610dbb01528181610ed501528181610f6301526111820152615bce6000f3fe6080604052600436106101ee5760003560e01c80636352211e1161010d578063b88d4fde116100a0578063d547741f1161006f578063d547741f1461074f578063d5b141e714610778578063df7f8047146107b5578063e985e9c5146107f2578063f230dce51461082f576101ee565b8063b88d4fde14610695578063c4d66de8146106be578063c87b56dd146106e7578063ce40885614610724576101ee565b806395d89b41116100dc57806395d89b41146105ed578063a217fddf14610618578063a22cb46514610643578063b1466d1d1461066c576101ee565b80636352211e1461050b57806370a082311461054857806375b238fc1461058557806391d14854146105b0576101ee565b80632f2ff15d116101855780634f1ef286116101545780634f1ef2861461044557806351640fee1461046157806352d1902d146104a35780635b99cd5b146104ce576101ee565b80632f2ff15d146103a157806336568abe146103ca5780633659cfe6146103f357806342842e0e1461041c576101ee565b80631db73840116101c15780631db73840146102c157806323b872dd146102fe578063248a9ca3146103275780632b5bd21814610364576101ee565b806301ffc9a7146101f357806306fdde0314610230578063081812fc1461025b578063095ea7b314610298575b600080fd5b3480156101ff57600080fd5b5061021a60048036038101906102159190613bc5565b61086c565b6040516102279190613c0d565b60405180910390f35b34801561023c57600080fd5b5061024561087e565b6040516102529190613cb8565b60405180910390f35b34801561026757600080fd5b50610282600480360381019061027d9190613d10565b610910565b60405161028f9190613d7e565b60405180910390f35b3480156102a457600080fd5b506102bf60048036038101906102ba9190613dc5565b610956565b005b3480156102cd57600080fd5b506102e860048036038101906102e39190613e05565b610a6d565b6040516102f59190613ef0565b60405180910390f35b34801561030a57600080fd5b5061032560048036038101906103209190613f12565b610bee565b005b34801561033357600080fd5b5061034e60048036038101906103499190613f9b565b610c4e565b60405161035b9190613fd7565b60405180910390f35b34801561037057600080fd5b5061038b60048036038101906103869190613f9b565b610c6e565b6040516103989190614001565b60405180910390f35b3480156103ad57600080fd5b506103c860048036038101906103c3919061401c565b610c87565b005b3480156103d657600080fd5b506103f160048036038101906103ec919061401c565b610ca8565b005b3480156103ff57600080fd5b5061041a60048036038101906104159190613e05565b610d2b565b005b34801561042857600080fd5b50610443600480360381019061043e9190613f12565b610eb3565b005b61045f600480360381019061045a9190614191565b610ed3565b005b34801561046d57600080fd5b5061048860048036038101906104839190613d10565b61100f565b60405161049a969594939291906141ed565b60405180910390f35b3480156104af57600080fd5b506104b861117e565b6040516104c59190613fd7565b60405180910390f35b3480156104da57600080fd5b506104f560048036038101906104f09190613d10565b611237565b6040516105029190613d7e565b60405180910390f35b34801561051757600080fd5b50610532600480360381019061052d9190613d10565b61126b565b60405161053f9190613d7e565b60405180910390f35b34801561055457600080fd5b5061056f600480360381019061056a9190613e05565b6112f1565b60405161057c9190614001565b60405180910390f35b34801561059157600080fd5b5061059a6113a8565b6040516105a79190613fd7565b60405180910390f35b3480156105bc57600080fd5b506105d760048036038101906105d2919061401c565b6113cc565b6040516105e49190613c0d565b60405180910390f35b3480156105f957600080fd5b50610602611437565b60405161060f9190613cb8565b60405180910390f35b34801561062457600080fd5b5061062d6114c9565b60405161063a9190613fd7565b60405180910390f35b34801561064f57600080fd5b5061066a60048036038101906106659190614288565b6114d0565b005b34801561067857600080fd5b50610693600480360381019061068e9190614369565b6114e6565b005b3480156106a157600080fd5b506106bc60048036038101906106b791906143c5565b6116ea565b005b3480156106ca57600080fd5b506106e560048036038101906106e09190613e05565b61174c565b005b3480156106f357600080fd5b5061070e60048036038101906107099190613d10565b61194e565b60405161071b9190613cb8565b60405180910390f35b34801561073057600080fd5b50610739611960565b6040516107469190613fd7565b60405180910390f35b34801561075b57600080fd5b506107766004803603810190610771919061401c565b611984565b005b34801561078457600080fd5b5061079f600480360381019061079a9190613d10565b6119a5565b6040516107ac9190613c0d565b60405180910390f35b3480156107c157600080fd5b506107dc60048036038101906107d79190614448565b6119c6565b6040516107e99190614001565b60405180910390f35b3480156107fe57600080fd5b50610819600480360381019061081491906144b7565b611b51565b6040516108269190613c0d565b60405180910390f35b34801561083b57600080fd5b5061085660048036038101906108519190613d10565b611be5565b6040516108639190613cb8565b60405180910390f35b600061087782611c86565b9050919050565b60606065805461088d90614526565b80601f01602080910402602001604051908101604052809291908181526020018280546108b990614526565b80156109065780601f106108db57610100808354040283529160200191610906565b820191906000526020600020905b8154815290600101906020018083116108e957829003601f168201915b5050505050905090565b600061091b82611d00565b6069600083815260200190815260200160002060009054906101000a900473ffffffffffffffffffffffffffffffffffffffff169050919050565b60006109618261126b565b90508073ffffffffffffffffffffffffffffffffffffffff168373ffffffffffffffffffffffffffffffffffffffff16036109d1576040517f08c379a00000000000000000000000000000000000000000000000000000000081526004016109c8906145c9565b60405180910390fd5b8073ffffffffffffffffffffffffffffffffffffffff166109f0611d4b565b73ffffffffffffffffffffffffffffffffffffffff161480610a1f5750610a1e81610a19611d4b565b611b51565b5b610a5e576040517f08c379a0000000000000000000000000000000000000000000000000000000008152600401610a559061465b565b60405180910390fd5b610a688383611d53565b505050565b60606000610a7c610191611e0c565b90506000806000600190505b838111610afe57610a9881611e1a565b8015610ad757508573ffffffffffffffffffffffffffffffffffffffff16610abf8261126b565b73ffffffffffffffffffffffffffffffffffffffff16145b15610aeb578280610ae7906146aa565b9350505b8080610af6906146aa565b915050610a88565b508167ffffffffffffffff811115610b1957610b18614066565b5b604051908082528060200260200182016040528015610b475781602001602082028036833780820191505090505b5093506000600190505b838111610be557610b6181611e1a565b8015610ba057508573ffffffffffffffffffffffffffffffffffffffff16610b888261126b565b73ffffffffffffffffffffffffffffffffffffffff16145b15610bd25780858380610bb2906146aa565b945081518110610bc557610bc46146f2565b5b6020026020010181815250505b8080610bdd906146aa565b915050610b51565b50505050919050565b610bff610bf9611d4b565b82611e5b565b610c3e576040517f08c379a0000000000000000000000000000000000000000000000000000000008152600401610c3590614793565b60405180910390fd5b610c49838383611ef0565b505050565b600060c96000838152602001908152602001600020600101549050919050565b6101926020528060005260406000206000915090505481565b610c9082610c4e565b610c99816121e9565b610ca383836121fd565b505050565b610cb0611d4b565b73ffffffffffffffffffffffffffffffffffffffff168173ffffffffffffffffffffffffffffffffffffffff1614610d1d576040517f08c379a0000000000000000000000000000000000000000000000000000000008152600401610d1490614825565b60405180910390fd5b610d2782826122de565b5050565b7f000000000000000000000000000000000000000000000000000000000000000073ffffffffffffffffffffffffffffffffffffffff163073ffffffffffffffffffffffffffffffffffffffff1603610db9576040517f08c379a0000000000000000000000000000000000000000000000000000000008152600401610db0906148b7565b60405180910390fd5b7f000000000000000000000000000000000000000000000000000000000000000073ffffffffffffffffffffffffffffffffffffffff16610df86123c0565b73ffffffffffffffffffffffffffffffffffffffff1614610e4e576040517f08c379a0000000000000000000000000000000000000000000000000000000008152600401610e4590614949565b60405180910390fd5b610e5781612417565b610eb081600067ffffffffffffffff811115610e7657610e75614066565b5b6040519080825280601f01601f191660200182016040528015610ea85781602001600182028036833780820191505090505b506000612445565b50565b610ece838383604051806020016040528060008152506116ea565b505050565b7f000000000000000000000000000000000000000000000000000000000000000073ffffffffffffffffffffffffffffffffffffffff163073ffffffffffffffffffffffffffffffffffffffff1603610f61576040517f08c379a0000000000000000000000000000000000000000000000000000000008152600401610f58906148b7565b60405180910390fd5b7f000000000000000000000000000000000000000000000000000000000000000073ffffffffffffffffffffffffffffffffffffffff16610fa06123c0565b73ffffffffffffffffffffffffffffffffffffffff1614610ff6576040517f08c379a0000000000000000000000000000000000000000000000000000000008152600401610fed90614949565b60405180910390fd5b610fff82612417565b61100b82826001612445565b5050565b600080606060006060600061102387611e1a565b611062576040517f08c379a0000000000000000000000000000000000000000000000000000000008152600401611059906149b5565b60405180910390fd5b61106b8761126b565b9550610195600088815260200190815260200160002060009054906101000a900473ffffffffffffffffffffffffffffffffffffffff1694506110ad8761194e565b9350610193600088815260200190815260200160002060009054906101000a900460ff169250610194600088815260200190815260200160002080546110f290614526565b80601f016020809104026020016040519081016040528092919081815260200182805461111e90614526565b801561116b5780601f106111405761010080835404028352916020019161116b565b820191906000526020600020905b81548152906001019060200180831161114e57829003601f168201915b5050505050915042905091939550919395565b60007f000000000000000000000000000000000000000000000000000000000000000073ffffffffffffffffffffffffffffffffffffffff163073ffffffffffffffffffffffffffffffffffffffff161461120e576040517f08c379a000000000000000000000000000000000000000000000000000000000815260040161120590614a47565b60405180910390fd5b7f360894a13ba1a3210667c828492db98dca3e2076cc3735a920a3ca505d382bbc60001b905090565b6101956020528060005260406000206000915054906101000a900473ffffffffffffffffffffffffffffffffffffffff1681565b600080611277836125b3565b9050600073ffffffffffffffffffffffffffffffffffffffff168173ffffffffffffffffffffffffffffffffffffffff16036112e8576040517f08c379a00000000000000000000000000000000000000000000000000000000081526004016112df90614ab3565b60405180910390fd5b80915050919050565b60008073ffffffffffffffffffffffffffffffffffffffff168273ffffffffffffffffffffffffffffffffffffffff1603611361576040517f08c379a000000000000000000000000000000000000000000000000000000000815260040161135890614b45565b60405180910390fd5b606860008373ffffffffffffffffffffffffffffffffffffffff1673ffffffffffffffffffffffffffffffffffffffff168152602001908152602001600020549050919050565b7fa49807205ce4d355092ef5a8a18f56e8913cf4a201fbe287825b095693c2177581565b600060c9600084815260200190815260200160002060000160008373ffffffffffffffffffffffffffffffffffffffff1673ffffffffffffffffffffffffffffffffffffffff16815260200190815260200160002060009054906101000a900460ff16905092915050565b60606066805461144690614526565b80601f016020809104026020016040519081016040528092919081815260200182805461147290614526565b80156114bf5780601f10611494576101008083540402835291602001916114bf565b820191906000526020600020905b8154815290600101906020018083116114a257829003601f168201915b5050505050905090565b6000801b81565b6114e26114db611d4b565b83836125f0565b5050565b7f2189908c03208535424461134ce147b8dd501756c63026817156a7ca871326b0611510816121e9565b61151983611e1a565b611558576040517f08c379a000000000000000000000000000000000000000000000000000000000815260040161154f906149b5565b60405180910390fd5b610193600084815260200190815260200160002060009054906101000a900460ff16156115ba576040517f08c379a00000000000000000000000000000000000000000000000000000000081526004016115b190614bb1565b60405180910390fd5b3373ffffffffffffffffffffffffffffffffffffffff16610195600085815260200190815260200160002060009054906101000a900473ffffffffffffffffffffffffffffffffffffffff1673ffffffffffffffffffffffffffffffffffffffff161461165c576040517f08c379a000000000000000000000000000000000000000000000000000000000815260040161165390614c1d565b60405180910390fd5b6001610193600085815260200190815260200160002060006101000a81548160ff02191690831515021790555081610194600085815260200190815260200160002090816116aa9190614de9565b50827f9f1859cbcd7e1f2bbe8e8bfefbd222bcf1084268443bb375cfaefc48540b96c183426040516116dd929190614ebb565b60405180910390a2505050565b6116fb6116f5611d4b565b83611e5b565b61173a576040517f08c379a000000000000000000000000000000000000000000000000000000000815260040161173190614793565b60405180910390fd5b6117468484848461275c565b50505050565b60008060019054906101000a900460ff1615905080801561177d5750600160008054906101000a900460ff1660ff16105b806117aa575061178c306127b8565b1580156117a95750600160008054906101000a900460ff1660ff16145b5b6117e9576040517f08c379a00000000000000000000000000000000000000000000000000000000081526004016117e090614f5d565b60405180910390fd5b60016000806101000a81548160ff021916908360ff1602179055508015611826576001600060016101000a81548160ff0219169083151502179055505b61189a6040518060400160405280600f81526020017f4b455920436572746966696361746500000000000000000000000000000000008152506040518060400160405280600681526020017f4b455953425400000000000000000000000000000000000000000000000000008152506127db565b6118a2612838565b6118aa612889565b6118b26128da565b6118ba61292b565b6118c76000801b836121fd565b6118f17fa49807205ce4d355092ef5a8a18f56e8913cf4a201fbe287825b095693c21775836121fd565b801561194a5760008060016101000a81548160ff0219169083151502179055507f7f26b83ff96e1f2b6a682f133852f6798a09c465da95921460cefb384740249860016040516119419190614fc5565b60405180910390a15b5050565b606061195982612984565b9050919050565b7f2189908c03208535424461134ce147b8dd501756c63026817156a7ca871326b081565b61198d82610c4e565b611996816121e9565b6119a083836122de565b505050565b6101936020528060005260406000206000915054906101000a900460ff1681565b60007f2189908c03208535424461134ce147b8dd501756c63026817156a7ca871326b06119f2816121e9565b6119fa612a96565b600061019260008681526020019081526020016000205414611a51576040517f08c379a0000000000000000000000000000000000000000000000000000000008152600401611a489061502c565b60405180910390fd5b611a5c610191612ae7565b6000611a69610191611e0c565b9050611a758682612afd565b611a7f8185612b1b565b8061019260008781526020019081526020016000208190555033610195600083815260200190815260200160002060006101000a81548173ffffffffffffffffffffffffffffffffffffffff021916908373ffffffffffffffffffffffffffffffffffffffff160217905550848673ffffffffffffffffffffffffffffffffffffffff16827f0e874bb53dfc341a0c47afcdf4c90d020b9c295f57aad4fedf8e51dfda9f45853342604051611b3592919061504c565b60405180910390a480925050611b49612bbf565b509392505050565b6000606a60008473ffffffffffffffffffffffffffffffffffffffff1673ffffffffffffffffffffffffffffffffffffffff16815260200190815260200160002060008373ffffffffffffffffffffffffffffffffffffffff1673ffffffffffffffffffffffffffffffffffffffff16815260200190815260200160002060009054906101000a900460ff16905092915050565b6101946020528060005260406000206000915090508054611c0590614526565b80601f0160208091040260200160405190810160405280929190818152602001828054611c3190614526565b8015611c7e5780601f10611c5357610100808354040283529160200191611c7e565b820191906000526020600020905b815481529060010190602001808311611c6157829003601f168201915b505050505081565b60007f7965db0b000000000000000000000000000000000000000000000000000000007bffffffffffffffffffffffffffffffffffffffffffffffffffffffff1916827bffffffffffffffffffffffffffffffffffffffffffffffffffffffff19161480611cf95750611cf882612bca565b5b9050919050565b611d0981611e1a565b611d48576040517f08c379a0000000000000000000000000000000000000000000000000000000008152600401611d3f90614ab3565b60405180910390fd5b50565b600033905090565b816069600083815260200190815260200160002060006101000a81548173ffffffffffffffffffffffffffffffffffffffff021916908373ffffffffffffffffffffffffffffffffffffffff160217905550808273ffffffffffffffffffffffffffffffffffffffff16611dc68361126b565b73ffffffffffffffffffffffffffffffffffffffff167f8c5be1e5ebec7d5bd14f71427d1e84f3dd0314c0f7b2291e5b200ac8c7c3b92560405160405180910390a45050565b600081600001549050919050565b60008073ffffffffffffffffffffffffffffffffffffffff16611e3c836125b3565b73ffffffffffffffffffffffffffffffffffffffff1614159050919050565b600080611e678361126b565b90508073ffffffffffffffffffffffffffffffffffffffff168473ffffffffffffffffffffffffffffffffffffffff161480611ea95750611ea88185611b51565b5b80611ee757508373ffffffffffffffffffffffffffffffffffffffff16611ecf84610910565b73ffffffffffffffffffffffffffffffffffffffff16145b91505092915050565b8273ffffffffffffffffffffffffffffffffffffffff16611f108261126b565b73ffffffffffffffffffffffffffffffffffffffff1614611f66576040517f08c379a0000000000000000000000000000000000000000000000000000000008152600401611f5d906150e7565b60405180910390fd5b600073ffffffffffffffffffffffffffffffffffffffff168273ffffffffffffffffffffffffffffffffffffffff1603611fd5576040517f08c379a0000000000000000000000000000000000000000000000000000000008152600401611fcc90615179565b60405180910390fd5b611fe28383836001612c2b565b8273ffffffffffffffffffffffffffffffffffffffff166120028261126b565b73ffffffffffffffffffffffffffffffffffffffff1614612058576040517f08c379a000000000000000000000000000000000000000000000000000000000815260040161204f906150e7565b60405180910390fd5b6069600082815260200190815260200160002060006101000a81549073ffffffffffffffffffffffffffffffffffffffff02191690556001606860008573ffffffffffffffffffffffffffffffffffffffff1673ffffffffffffffffffffffffffffffffffffffff168152602001908152602001600020600082825403925050819055506001606860008473ffffffffffffffffffffffffffffffffffffffff1673ffffffffffffffffffffffffffffffffffffffff16815260200190815260200160002060008282540192505081905550816067600083815260200190815260200160002060006101000a81548173ffffffffffffffffffffffffffffffffffffffff021916908373ffffffffffffffffffffffffffffffffffffffff160217905550808273ffffffffffffffffffffffffffffffffffffffff168473ffffffffffffffffffffffffffffffffffffffff167fddf252ad1be2c89b69c2b068fc378daa952ba7f163c4a11628f55a4df523b3ef60405160405180910390a46121e48383836001612ce7565b505050565b6121fa816121f5611d4b565b612ced565b50565b61220782826113cc565b6122da57600160c9600084815260200190815260200160002060000160008373ffffffffffffffffffffffffffffffffffffffff1673ffffffffffffffffffffffffffffffffffffffff16815260200190815260200160002060006101000a81548160ff02191690831515021790555061227f611d4b565b73ffffffffffffffffffffffffffffffffffffffff168173ffffffffffffffffffffffffffffffffffffffff16837f2f8788117e7eff1d82e926ec794901d17c78024a50270940304540a733656f0d60405160405180910390a45b5050565b6122e882826113cc565b156123bc57600060c9600084815260200190815260200160002060000160008373ffffffffffffffffffffffffffffffffffffffff1673ffffffffffffffffffffffffffffffffffffffff16815260200190815260200160002060006101000a81548160ff021916908315150217905550612361611d4b565b73ffffffffffffffffffffffffffffffffffffffff168173ffffffffffffffffffffffffffffffffffffffff16837ff6391f5c32d9c69d2a47ea670b442974b53935d1edc7fd64eb21e047a839171b60405160405180910390a45b5050565b60006123ee7f360894a13ba1a3210667c828492db98dca3e2076cc3735a920a3ca505d382bbc60001b612d72565b60000160009054906101000a900473ffffffffffffffffffffffffffffffffffffffff16905090565b7fa49807205ce4d355092ef5a8a18f56e8913cf4a201fbe287825b095693c21775612441816121e9565b5050565b6124717f4910fdfa16fed3260ed0e7147f7cc6da11a60208b5b9406d12a635614ffd914360001b612d7c565b60000160009054906101000a900460ff16156124955761249083612d86565b6125ae565b8273ffffffffffffffffffffffffffffffffffffffff166352d1902d6040518163ffffffff1660e01b8152600401602060405180830381865afa9250505080156124fd57506040513d601f19601f820116820180604052508101906124fa91906151ae565b60015b61253c576040517f08c379a00000000000000000000000000000000000000000000000000000000081526004016125339061524d565b60405180910390fd5b7f360894a13ba1a3210667c828492db98dca3e2076cc3735a920a3ca505d382bbc60001b81146125a1576040517f08c379a0000000000000000000000000000000000000000000000000000000008152600401612598906152df565b60405180910390fd5b506125ad838383612e3f565b5b505050565b60006067600083815260200190815260200160002060009054906101000a900473ffffffffffffffffffffffffffffffffffffffff169050919050565b8173ffffffffffffffffffffffffffffffffffffffff168373ffffffffffffffffffffffffffffffffffffffff160361265e576040517f08c379a00000000000000000000000000000000000000000000000000000000081526004016126559061534b565b60405180910390fd5b80606a60008573ffffffffffffffffffffffffffffffffffffffff1673ffffffffffffffffffffffffffffffffffffffff16815260200190815260200160002060008473ffffffffffffffffffffffffffffffffffffffff1673ffffffffffffffffffffffffffffffffffffffff16815260200190815260200160002060006101000a81548160ff0219169083151502179055508173ffffffffffffffffffffffffffffffffffffffff168373ffffffffffffffffffffffffffffffffffffffff167f17307eab39ab6107e8899845ad3d59bd9653f200f220920489ca2b5937696c318360405161274f9190613c0d565b60405180910390a3505050565b612767848484611ef0565b61277384848484612e6b565b6127b2576040517f08c379a00000000000000000000000000000000000000000000000000000000081526004016127a9906153dd565b60405180910390fd5b50505050565b6000808273ffffffffffffffffffffffffffffffffffffffff163b119050919050565b600060019054906101000a900460ff1661282a576040517f08c379a00000000000000000000000000000000000000000000000000000000081526004016128219061546f565b60405180910390fd5b6128348282612ff2565b5050565b600060019054906101000a900460ff16612887576040517f08c379a000000000000000000000000000000000000000000000000000000000815260040161287e9061546f565b60405180910390fd5b565b600060019054906101000a900460ff166128d8576040517f08c379a00000000000000000000000000000000000000000000000000000000081526004016128cf9061546f565b60405180910390fd5b565b600060019054906101000a900460ff16612929576040517f08c379a00000000000000000000000000000000000000000000000000000000081526004016129209061546f565b60405180910390fd5b565b600060019054906101000a900460ff1661297a576040517f08c379a00000000000000000000000000000000000000000000000000000000081526004016129719061546f565b60405180910390fd5b612982613065565b565b606061298f82611d00565b60006097600084815260200190815260200160002080546129af90614526565b80601f01602080910402602001604051908101604052809291908181526020018280546129db90614526565b8015612a285780601f106129fd57610100808354040283529160200191612a28565b820191906000526020600020905b815481529060010190602001808311612a0b57829003601f168201915b505050505090506000612a396130bf565b90506000815103612a4e578192505050612a91565b600082511115612a83578082604051602001612a6b9291906154cb565b60405160208183030381529060405292505050612a91565b612a8c846130d6565b925050505b919050565b600261015f5403612adc576040517f08c379a0000000000000000000000000000000000000000000000000000000008152600401612ad39061553b565b60405180910390fd5b600261015f81905550565b6001816000016000828254019250508190555050565b612b1782826040518060200160405280600081525061313e565b5050565b612b2482611e1a565b612b63576040517f08c379a0000000000000000000000000000000000000000000000000000000008152600401612b5a906155cd565b60405180910390fd5b80609760008481526020019081526020016000209081612b839190614de9565b507ff8e1a15aba9398e019f0b49df1a4fde98ee17ae345cb5f6b5e2c27f5033e8ce782604051612bb39190614001565b60405180910390a15050565b600161015f81905550565b6000634906490660e01b7bffffffffffffffffffffffffffffffffffffffffffffffffffffffff1916827bffffffffffffffffffffffffffffffffffffffffffffffffffffffff19161480612c245750612c2382613199565b5b9050919050565b600073ffffffffffffffffffffffffffffffffffffffff168473ffffffffffffffffffffffffffffffffffffffff1614158015612c955750600073ffffffffffffffffffffffffffffffffffffffff168373ffffffffffffffffffffffffffffffffffffffff1614155b15612cd5576040517f08c379a0000000000000000000000000000000000000000000000000000000008152600401612ccc90615639565b60405180910390fd5b612ce18484848461327b565b50505050565b50505050565b612cf782826113cc565b612d6e57612d0481613281565b612d128360001c60206132ae565b604051602001612d239291906156f1565b6040516020818303038152906040526040517f08c379a0000000000000000000000000000000000000000000000000000000008152600401612d659190613cb8565b60405180910390fd5b5050565b6000819050919050565b6000819050919050565b612d8f816127b8565b612dce576040517f08c379a0000000000000000000000000000000000000000000000000000000008152600401612dc59061579d565b60405180910390fd5b80612dfb7f360894a13ba1a3210667c828492db98dca3e2076cc3735a920a3ca505d382bbc60001b612d72565b60000160006101000a81548173ffffffffffffffffffffffffffffffffffffffff021916908373ffffffffffffffffffffffffffffffffffffffff16021790555050565b612e48836134ea565b600082511180612e555750805b15612e6657612e648383613539565b505b505050565b6000612e8c8473ffffffffffffffffffffffffffffffffffffffff166127b8565b15612fe5578373ffffffffffffffffffffffffffffffffffffffff1663150b7a02612eb5611d4b565b8786866040518563ffffffff1660e01b8152600401612ed79493929190615812565b6020604051808303816000875af1925050508015612f1357506040513d601f19601f82011682018060405250810190612f109190615873565b60015b612f95573d8060008114612f43576040519150601f19603f3d011682016040523d82523d6000602084013e612f48565b606091505b506000815103612f8d576040517f08c379a0000000000000000000000000000000000000000000000000000000008152600401612f84906153dd565b60405180910390fd5b805181602001fd5b63150b7a0260e01b7bffffffffffffffffffffffffffffffffffffffffffffffffffffffff1916817bffffffffffffffffffffffffffffffffffffffffffffffffffffffff191614915050612fea565b600190505b949350505050565b600060019054906101000a900460ff16613041576040517f08c379a00000000000000000000000000000000000000000000000000000000081526004016130389061546f565b60405180910390fd5b81606590816130509190614de9565b5080606690816130609190614de9565b505050565b600060019054906101000a900460ff166130b4576040517f08c379a00000000000000000000000000000000000000000000000000000000081526004016130ab9061546f565b60405180910390fd5b600161015f81905550565b606060405180602001604052806000815250905090565b60606130e182611d00565b60006130eb6130bf565b9050600081511161310b5760405180602001604052806000815250613136565b8061311584613566565b6040516020016131269291906154cb565b6040516020818303038152906040525b915050919050565b6131488383613634565b6131556000848484612e6b565b613194576040517f08c379a000000000000000000000000000000000000000000000000000000000815260040161318b906153dd565b60405180910390fd5b505050565b60007f80ac58cd000000000000000000000000000000000000000000000000000000007bffffffffffffffffffffffffffffffffffffffffffffffffffffffff1916827bffffffffffffffffffffffffffffffffffffffffffffffffffffffff1916148061326457507f5b5e139f000000000000000000000000000000000000000000000000000000007bffffffffffffffffffffffffffffffffffffffffffffffffffffffff1916827bffffffffffffffffffffffffffffffffffffffffffffffffffffffff1916145b80613274575061327382613851565b5b9050919050565b50505050565b60606132a78273ffffffffffffffffffffffffffffffffffffffff16601460ff166132ae565b9050919050565b6060600060028360026132c191906158a0565b6132cb91906158e2565b67ffffffffffffffff8111156132e4576132e3614066565b5b6040519080825280601f01601f1916602001820160405280156133165781602001600182028036833780820191505090505b5090507f30000000000000000000000000000000000000000000000000000000000000008160008151811061334e5761334d6146f2565b5b60200101907effffffffffffffffffffffffffffffffffffffffffffffffffffffffffffff1916908160001a9053507f7800000000000000000000000000000000000000000000000000000000000000816001815181106133b2576133b16146f2565b5b60200101907effffffffffffffffffffffffffffffffffffffffffffffffffffffffffffff1916908160001a905350600060018460026133f291906158a0565b6133fc91906158e2565b90505b600181111561349c577f3031323334353637383961626364656600000000000000000000000000000000600f86166010811061343e5761343d6146f2565b5b1a60f81b828281518110613455576134546146f2565b5b60200101907effffffffffffffffffffffffffffffffffffffffffffffffffffffffffffff1916908160001a905350600485901c94508061349590615916565b90506133ff565b50600084146134e0576040517f08c379a00000000000000000000000000000000000000000000000000000000081526004016134d79061598b565b60405180910390fd5b8091505092915050565b6134f381612d86565b8073ffffffffffffffffffffffffffffffffffffffff167fbc7cd75a20ee27fd9adebab32041f755214dbc6bffa90cc0225b39da2e5c2d3b60405160405180910390a250565b606061355e8383604051806060016040528060278152602001615b72602791396138bb565b905092915050565b60606000600161357584613941565b01905060008167ffffffffffffffff81111561359457613593614066565b5b6040519080825280601f01601f1916602001820160405280156135c65781602001600182028036833780820191505090505b509050600082602001820190505b600115613629578080600190039150507f3031323334353637383961626364656600000000000000000000000000000000600a86061a8153600a858161361d5761361c6159ab565b5b049450600085036135d4575b819350505050919050565b600073ffffffffffffffffffffffffffffffffffffffff168273ffffffffffffffffffffffffffffffffffffffff16036136a3576040517f08c379a000000000000000000000000000000000000000000000000000000000815260040161369a90615a26565b60405180910390fd5b6136ac81611e1a565b156136ec576040517f08c379a00000000000000000000000000000000000000000000000000000000081526004016136e390615a92565b60405180910390fd5b6136fa600083836001612c2b565b61370381611e1a565b15613743576040517f08c379a000000000000000000000000000000000000000000000000000000000815260040161373a90615a92565b60405180910390fd5b6001606860008473ffffffffffffffffffffffffffffffffffffffff1673ffffffffffffffffffffffffffffffffffffffff16815260200190815260200160002060008282540192505081905550816067600083815260200190815260200160002060006101000a81548173ffffffffffffffffffffffffffffffffffffffff021916908373ffffffffffffffffffffffffffffffffffffffff160217905550808273ffffffffffffffffffffffffffffffffffffffff16600073ffffffffffffffffffffffffffffffffffffffff167fddf252ad1be2c89b69c2b068fc378daa952ba7f163c4a11628f55a4df523b3ef60405160405180910390a461384d600083836001612ce7565b5050565b60007f01ffc9a7000000000000000000000000000000000000000000000000000000007bffffffffffffffffffffffffffffffffffffffffffffffffffffffff1916827bffffffffffffffffffffffffffffffffffffffffffffffffffffffff1916149050919050565b60606000808573ffffffffffffffffffffffffffffffffffffffff16856040516138e59190615aee565b600060405180830381855af49150503d8060008114613920576040519150601f19603f3d011682016040523d82523d6000602084013e613925565b606091505b509150915061393686838387613a94565b925050509392505050565b600080600090507a184f03e93ff9f4daa797ed6e38ed64bf6a1f010000000000000000831061399f577a184f03e93ff9f4daa797ed6e38ed64bf6a1f0100000000000000008381613995576139946159ab565b5b0492506040810190505b6d04ee2d6d415b85acef810000000083106139dc576d04ee2d6d415b85acef810000000083816139d2576139d16159ab565b5b0492506020810190505b662386f26fc100008310613a0b57662386f26fc100008381613a0157613a006159ab565b5b0492506010810190505b6305f5e1008310613a34576305f5e1008381613a2a57613a296159ab565b5b0492506008810190505b6127108310613a59576127108381613a4f57613a4e6159ab565b5b0492506004810190505b60648310613a7c5760648381613a7257613a716159ab565b5b0492506002810190505b600a8310613a8b576001810190505b80915050919050565b60608315613af6576000835103613aee57613aae856127b8565b613aed576040517f08c379a0000000000000000000000000000000000000000000000000000000008152600401613ae490615b51565b60405180910390fd5b5b829050613b01565b613b008383613b09565b5b949350505050565b600082511115613b1c5781518083602001fd5b806040517f08c379a0000000000000000000000000000000000000000000000000000000008152600401613b509190613cb8565b60405180910390fd5b6000604051905090565b600080fd5b600080fd5b60007fffffffff0000000000000000000000000000000000000000000000000000000082169050919050565b613ba281613b6d565b8114613bad57600080fd5b50565b600081359050613bbf81613b99565b92915050565b600060208284031215613bdb57613bda613b63565b5b6000613be984828501613bb0565b91505092915050565b60008115159050919050565b613c0781613bf2565b82525050565b6000602082019050613c226000830184613bfe565b92915050565b600081519050919050565b600082825260208201905092915050565b60005b83811015613c62578082015181840152602081019050613c47565b60008484015250505050565b6000601f19601f8301169050919050565b6000613c8a82613c28565b613c948185613c33565b9350613ca4818560208601613c44565b613cad81613c6e565b840191505092915050565b60006020820190508181036000830152613cd28184613c7f565b905092915050565b6000819050919050565b613ced81613cda565b8114613cf857600080fd5b50565b600081359050613d0a81613ce4565b92915050565b600060208284031215613d2657613d25613b63565b5b6000613d3484828501613cfb565b91505092915050565b600073ffffffffffffffffffffffffffffffffffffffff82169050919050565b6000613d6882613d3d565b9050919050565b613d7881613d5d565b82525050565b6000602082019050613d936000830184613d6f565b92915050565b613da281613d5d565b8114613dad57600080fd5b50565b600081359050613dbf81613d99565b92915050565b60008060408385031215613ddc57613ddb613b63565b5b6000613dea85828601613db0565b9250506020613dfb85828601613cfb565b9150509250929050565b600060208284031215613e1b57613e1a613b63565b5b6000613e2984828501613db0565b91505092915050565b600081519050919050565b600082825260208201905092915050565b6000819050602082019050919050565b613e6781613cda565b82525050565b6000613e798383613e5e565b60208301905092915050565b6000602082019050919050565b6000613e9d82613e32565b613ea78185613e3d565b9350613eb283613e4e565b8060005b83811015613ee3578151613eca8882613e6d565b9750613ed583613e85565b925050600181019050613eb6565b5085935050505092915050565b60006020820190508181036000830152613f0a8184613e92565b905092915050565b600080600060608486031215613f2b57613f2a613b63565b5b6000613f3986828701613db0565b9350506020613f4a86828701613db0565b9250506040613f5b86828701613cfb565b9150509250925092565b6000819050919050565b613f7881613f65565b8114613f8357600080fd5b50565b600081359050613f9581613f6f565b92915050565b600060208284031215613fb157613fb0613b63565b5b6000613fbf84828501613f86565b91505092915050565b613fd181613f65565b82525050565b6000602082019050613fec6000830184613fc8565b92915050565b613ffb81613cda565b82525050565b60006020820190506140166000830184613ff2565b92915050565b6000806040838503121561403357614032613b63565b5b600061404185828601613f86565b925050602061405285828601613db0565b9150509250929050565b600080fd5b600080fd5b7f4e487b7100000000000000000000000000000000000000000000000000000000600052604160045260246000fd5b61409e82613c6e565b810181811067ffffffffffffffff821117156140bd576140bc614066565b5b80604052505050565b60006140d0613b59565b90506140dc8282614095565b919050565b600067ffffffffffffffff8211156140fc576140fb614066565b5b61410582613c6e565b9050602081019050919050565b82818337600083830152505050565b600061413461412f846140e1565b6140c6565b9050828152602081018484840111156141505761414f614061565b5b61415b848285614112565b509392505050565b600082601f8301126141785761417761405c565b5b8135614188848260208601614121565b91505092915050565b600080604083850312156141a8576141a7613b63565b5b60006141b685828601613db0565b925050602083013567ffffffffffffffff8111156141d7576141d6613b68565b5b6141e385828601614163565b9150509250929050565b600060c0820190506142026000830189613d6f565b61420f6020830188613d6f565b81810360408301526142218187613c7f565b90506142306060830186613bfe565b81810360808301526142428185613c7f565b905061425160a0830184613ff2565b979650505050505050565b61426581613bf2565b811461427057600080fd5b50565b6000813590506142828161425c565b92915050565b6000806040838503121561429f5761429e613b63565b5b60006142ad85828601613db0565b92505060206142be85828601614273565b9150509250929050565b600067ffffffffffffffff8211156142e3576142e2614066565b5b6142ec82613c6e565b9050602081019050919050565b600061430c614307846142c8565b6140c6565b90508281526020810184848401111561432857614327614061565b5b614333848285614112565b509392505050565b600082601f8301126143505761434f61405c565b5b81356143608482602086016142f9565b91505092915050565b600080604083850312156143805761437f613b63565b5b600061438e85828601613cfb565b925050602083013567ffffffffffffffff8111156143af576143ae613b68565b5b6143bb8582860161433b565b9150509250929050565b600080600080608085870312156143df576143de613b63565b5b60006143ed87828801613db0565b94505060206143fe87828801613db0565b935050604061440f87828801613cfb565b925050606085013567ffffffffffffffff8111156144305761442f613b68565b5b61443c87828801614163565b91505092959194509250565b60008060006060848603121561446157614460613b63565b5b600061446f86828701613db0565b935050602061448086828701613f86565b925050604084013567ffffffffffffffff8111156144a1576144a0613b68565b5b6144ad8682870161433b565b9150509250925092565b600080604083850312156144ce576144cd613b63565b5b60006144dc85828601613db0565b92505060206144ed85828601613db0565b9150509250929050565b7f4e487b7100000000000000000000000000000000000000000000000000000000600052602260045260246000fd5b6000600282049050600182168061453e57607f821691505b602082108103614551576145506144f7565b5b50919050565b7f4552433732313a20617070726f76616c20746f2063757272656e74206f776e6560008201527f7200000000000000000000000000000000000000000000000000000000000000602082015250565b60006145b3602183613c33565b91506145be82614557565b604082019050919050565b600060208201905081810360008301526145e2816145a6565b9050919050565b7f4552433732313a20617070726f76652063616c6c6572206973206e6f7420746f60008201527f6b656e206f776e6572206f7220617070726f76656420666f7220616c6c000000602082015250565b6000614645603d83613c33565b9150614650826145e9565b604082019050919050565b6000602082019050818103600083015261467481614638565b9050919050565b7f4e487b7100000000000000000000000000000000000000000000000000000000600052601160045260246000fd5b60006146b582613cda565b91507fffffffffffffffffffffffffffffffffffffffffffffffffffffffffffffffff82036146e7576146e661467b565b5b600182019050919050565b7f4e487b7100000000000000000000000000000000000000000000000000000000600052603260045260246000fd5b7f4552433732313a2063616c6c6572206973206e6f7420746f6b656e206f776e6560008201527f72206f7220617070726f76656400000000000000000000000000000000000000602082015250565b600061477d602d83613c33565b915061478882614721565b604082019050919050565b600060208201905081810360008301526147ac81614770565b9050919050565b7f416363657373436f6e74726f6c3a2063616e206f6e6c792072656e6f756e636560008201527f20726f6c657320666f722073656c660000000000000000000000000000000000602082015250565b600061480f602f83613c33565b915061481a826147b3565b604082019050919050565b6000602082019050818103600083015261483e81614802565b9050919050565b7f46756e6374696f6e206d7573742062652063616c6c6564207468726f7567682060008201527f64656c656761746563616c6c0000000000000000000000000000000000000000602082015250565b60006148a1602c83613c33565b91506148ac82614845565b604082019050919050565b600060208201905081810360008301526148d081614894565b9050919050565b7f46756e6374696f6e206d7573742062652063616c6c6564207468726f7567682060008201527f6163746976652070726f78790000000000000000000000000000000000000000602082015250565b6000614933602c83613c33565b915061493e826148d7565b604082019050919050565b6000602082019050818103600083015261496281614926565b9050919050565b7f5342543a20696e76616c696420746f6b656e0000000000000000000000000000600082015250565b600061499f601283613c33565b91506149aa82614969565b602082019050919050565b600060208201905081810360008301526149ce81614992565b9050919050565b7f555550535570677261646561626c653a206d757374206e6f742062652063616c60008201527f6c6564207468726f7567682064656c656761746563616c6c0000000000000000602082015250565b6000614a31603883613c33565b9150614a3c826149d5565b604082019050919050565b60006020820190508181036000830152614a6081614a24565b9050919050565b7f4552433732313a20696e76616c696420746f6b656e2049440000000000000000600082015250565b6000614a9d601883613c33565b9150614aa882614a67565b602082019050919050565b60006020820190508181036000830152614acc81614a90565b9050919050565b7f4552433732313a2061646472657373207a65726f206973206e6f74206120766160008201527f6c6964206f776e65720000000000000000000000000000000000000000000000602082015250565b6000614b2f602983613c33565b9150614b3a82614ad3565b604082019050919050565b60006020820190508181036000830152614b5e81614b22565b9050919050565b7f5342543a20616c7265616479207265766f6b6564000000000000000000000000600082015250565b6000614b9b601483613c33565b9150614ba682614b65565b602082019050919050565b60006020820190508181036000830152614bca81614b8e565b9050919050565b7f5342543a206e6f74206973737565720000000000000000000000000000000000600082015250565b6000614c07600f83613c33565b9150614c1282614bd1565b602082019050919050565b60006020820190508181036000830152614c3681614bfa565b9050919050565b60008190508160005260206000209050919050565b60006020601f8301049050919050565b600082821b905092915050565b600060088302614c9f7fffffffffffffffffffffffffffffffffffffffffffffffffffffffffffffffff82614c62565b614ca98683614c62565b95508019841693508086168417925050509392505050565b6000819050919050565b6000614ce6614ce1614cdc84613cda565b614cc1565b613cda565b9050919050565b6000819050919050565b614d0083614ccb565b614d14614d0c82614ced565b848454614c6f565b825550505050565b600090565b614d29614d1c565b614d34818484614cf7565b505050565b5b81811015614d5857614d4d600082614d21565b600181019050614d3a565b5050565b601f821115614d9d57614d6e81614c3d565b614d7784614c52565b81016020851015614d86578190505b614d9a614d9285614c52565b830182614d39565b50505b505050565b600082821c905092915050565b6000614dc060001984600802614da2565b1980831691505092915050565b6000614dd98383614daf565b9150826002028217905092915050565b614df282613c28565b67ffffffffffffffff811115614e0b57614e0a614066565b5b614e158254614526565b614e20828285614d5c565b600060209050601f831160018114614e535760008415614e41578287015190505b614e4b8582614dcd565b865550614eb3565b601f198416614e6186614c3d565b60005b82811015614e8957848901518255600182019150602085019450602081019050614e64565b86831015614ea65784890151614ea2601f891682614daf565b8355505b6001600288020188555050505b505050505050565b60006040820190508181036000830152614ed58185613c7f565b9050614ee46020830184613ff2565b9392505050565b7f496e697469616c697a61626c653a20636f6e747261637420697320616c72656160008201527f647920696e697469616c697a6564000000000000000000000000000000000000602082015250565b6000614f47602e83613c33565b9150614f5282614eeb565b604082019050919050565b60006020820190508181036000830152614f7681614f3a565b9050919050565b6000819050919050565b600060ff82169050919050565b6000614faf614faa614fa584614f7d565b614cc1565b614f87565b9050919050565b614fbf81614f94565b82525050565b6000602082019050614fda6000830184614fb6565b92915050565b7f5342543a20616c72656164792069737375656400000000000000000000000000600082015250565b6000615016601383613c33565b915061502182614fe0565b602082019050919050565b6000602082019050818103600083015261504581615009565b9050919050565b60006040820190506150616000830185613d6f565b61506e6020830184613ff2565b9392505050565b7f4552433732313a207472616e736665722066726f6d20696e636f72726563742060008201527f6f776e6572000000000000000000000000000000000000000000000000000000602082015250565b60006150d1602583613c33565b91506150dc82615075565b604082019050919050565b60006020820190508181036000830152615100816150c4565b9050919050565b7f4552433732313a207472616e7366657220746f20746865207a65726f2061646460008201527f7265737300000000000000000000000000000000000000000000000000000000602082015250565b6000615163602483613c33565b915061516e82615107565b604082019050919050565b6000602082019050818103600083015261519281615156565b9050919050565b6000815190506151a881613f6f565b92915050565b6000602082840312156151c4576151c3613b63565b5b60006151d284828501615199565b91505092915050565b7f45524331393637557067726164653a206e657720696d706c656d656e7461746960008201527f6f6e206973206e6f742055555053000000000000000000000000000000000000602082015250565b6000615237602e83613c33565b9150615242826151db565b604082019050919050565b600060208201905081810360008301526152668161522a565b9050919050565b7f45524331393637557067726164653a20756e737570706f727465642070726f7860008201527f6961626c65555549440000000000000000000000000000000000000000000000602082015250565b60006152c9602983613c33565b91506152d48261526d565b604082019050919050565b600060208201905081810360008301526152f8816152bc565b9050919050565b7f4552433732313a20617070726f766520746f2063616c6c657200000000000000600082015250565b6000615335601983613c33565b9150615340826152ff565b602082019050919050565b6000602082019050818103600083015261536481615328565b9050919050565b7f4552433732313a207472616e7366657220746f206e6f6e20455243373231526560008201527f63656976657220696d706c656d656e7465720000000000000000000000000000602082015250565b60006153c7603283613c33565b91506153d28261536b565b604082019050919050565b600060208201905081810360008301526153f6816153ba565b9050919050565b7f496e697469616c697a61626c653a20636f6e7472616374206973206e6f74206960008201527f6e697469616c697a696e67000000000000000000000000000000000000000000602082015250565b6000615459602b83613c33565b9150615464826153fd565b604082019050919050565b600060208201905081810360008301526154888161544c565b9050919050565b600081905092915050565b60006154a582613c28565b6154af818561548f565b93506154bf818560208601613c44565b80840191505092915050565b60006154d7828561549a565b91506154e3828461549a565b91508190509392505050565b7f5265656e7472616e637947756172643a207265656e7472616e742063616c6c00600082015250565b6000615525601f83613c33565b9150615530826154ef565b602082019050919050565b6000602082019050818103600083015261555481615518565b9050919050565b7f45524337323155524953746f726167653a2055524920736574206f66206e6f6e60008201527f6578697374656e7420746f6b656e000000000000000000000000000000000000602082015250565b60006155b7602e83613c33565b91506155c28261555b565b604082019050919050565b600060208201905081810360008301526155e6816155aa565b9050919050565b7f5342543a206e6f6e2d7472616e7366657261626c650000000000000000000000600082015250565b6000615623601583613c33565b915061562e826155ed565b602082019050919050565b6000602082019050818103600083015261565281615616565b9050919050565b7f416363657373436f6e74726f6c3a206163636f756e7420000000000000000000600082015250565b600061568f60178361548f565b915061569a82615659565b601782019050919050565b7f206973206d697373696e6720726f6c6520000000000000000000000000000000600082015250565b60006156db60118361548f565b91506156e6826156a5565b601182019050919050565b60006156fc82615682565b9150615708828561549a565b9150615713826156ce565b915061571f828461549a565b91508190509392505050565b7f455243313936373a206e657720696d706c656d656e746174696f6e206973206e60008201527f6f74206120636f6e747261637400000000000000000000000000000000000000602082015250565b6000615787602d83613c33565b91506157928261572b565b604082019050919050565b600060208201905081810360008301526157b68161577a565b9050919050565b600081519050919050565b600082825260208201905092915050565b60006157e4826157bd565b6157ee81856157c8565b93506157fe818560208601613c44565b61580781613c6e565b840191505092915050565b60006080820190506158276000830187613d6f565b6158346020830186613d6f565b6158416040830185613ff2565b818103606083015261585381846157d9565b905095945050505050565b60008151905061586d81613b99565b92915050565b60006020828403121561588957615888613b63565b5b60006158978482850161585e565b91505092915050565b60006158ab82613cda565b91506158b683613cda565b92508282026158c481613cda565b915082820484148315176158db576158da61467b565b5b5092915050565b60006158ed82613cda565b91506158f883613cda565b92508282019050808211156159105761590f61467b565b5b92915050565b600061592182613cda565b9150600082036159345761593361467b565b5b600182039050919050565b7f537472696e67733a20686578206c656e67746820696e73756666696369656e74600082015250565b6000615975602083613c33565b91506159808261593f565b602082019050919050565b600060208201905081810360008301526159a481615968565b9050919050565b7f4e487b7100000000000000000000000000000000000000000000000000000000600052601260045260246000fd5b7f4552433732313a206d696e7420746f20746865207a65726f2061646472657373600082015250565b6000615a10602083613c33565b9150615a1b826159da565b602082019050919050565b60006020820190508181036000830152615a3f81615a03565b9050919050565b7f4552433732313a20746f6b656e20616c7265616479206d696e74656400000000600082015250565b6000615a7c601c83613c33565b9150615a8782615a46565b602082019050919050565b60006020820190508181036000830152615aab81615a6f565b9050919050565b600081905092915050565b6000615ac8826157bd565b615ad28185615ab2565b9350615ae2818560208601613c44565b80840191505092915050565b6000615afa8284615abd565b915081905092915050565b7f416464726573733a2063616c6c20746f206e6f6e2d636f6e7472616374000000600082015250565b6000615b3b601d83613c33565b9150615b4682615b05565b602082019050919050565b60006020820190508181036000830152615b6a81615b2e565b905091905056fe416464726573733a206c6f772d6c6576656c2064656c65676174652063616c6c206661696c6564a26469706673582212202ab2c482d355286d15ac4e15918f1accebf16aaed23ac8c6f5406598f56a02e164736f6c634300081c0033",
  "linkReferences": {},
  "deployedLinkReferences": {}
}