{
  "_format": "hh-sol-artifact-1",
  "contractName": "IdentityRegistry",
  "sourceName": "contracts/IdentityRegistry.sol",
  "abi": [
    {
      "anonymous": false,
      "inputs": [
        {
          "indexed": false,
          "internalType": "address",
          "name": "previousAdmin",
          "type": "address"
        },
        {
          "indexed": false,
          "internalType": "address",
          "name": "newAdmin",
          "type": "address"
        }
      ],
      "name": "AdminChanged",
      "type": "event"
    },
    {
      "anonymous": false,
      "inputs": [
        {
          "indexed": true,
          "internalType": "address",
          "name": "beacon",
          "type": "address"
        }
      ],
      "name": "BeaconUpgraded",
      "type": "event"
    },
    {
      "anonymous": false,
      "inputs": [
        {
          "indexed": true,
          "internalType": "address",
          "name": "from",
          "type": "address"
        },
        {
          "indexed": false,
          "internalType": "uint256",
          "name": "amount",
          "type": "uint256"
        }
      ],
      "name": "FeeCollected",
      "type": "event"
    },
    {
      "anonymous": false,
      "inputs": [
        {
          "indexed": false,
          "internalType": "uint256",
          "name": "newFee",
          "type": "uint256"
        }
      ],
      "name": "FeeUpdated",
      "type": "event"
    },
    {
      "anonymous": false,
      "inputs": [
        {
          "indexed": true,
          "internalType": "address",
          "name": "wallet",
          "type": "address"
        },
        {
          "indexed": false,
          "internalType": "string",
          "name": "role",
          "type": "string"
        },
        {
          "indexed": false,
          "internalType": "string",
          "name": "name",
          "type": "string"
        }
      ],
      "name": "IdentityRegistered",
      "type": "event"
    },
    {
      "anonymous": false,
      "inputs": [
        {
          "indexed": false,
          "internalType": "uint8",
          "name": "version",
          "type": "uint8"
        }
      ],
      "name": "Initialized",
      "type": "event"
    },
    {
      "anonymous": false,
      "inputs": [
        {
          "indexed": true,
          "internalType": "address",
          "name": "profesor",
          "type": "address"
        },
        {
          "indexed": true,
          "internalType": "address",
          "name": "ong",
          "type": "address"
        }
      ],
      "name": "ONGAssociated",
      "type": "event"
    },
    {
      "anonymous": false,
      "inputs": [
        {
          "indexed": true,
          "internalType": "address",
          "name": "wallet",
          "type": "address"
        },
        {
          "indexed": false,
          "internalType": "string",
          "name": "name",
          "type": "string"
        }
      ],
      "name": "ONGRegistrationRequested",
      "type": "event"
    },
    {
      "anonymous": false,
      "inputs": [
        {
          "indexed": true,
          "internalType": "bytes32",
          "name": "role",
          "type": "bytes32"
        },
        {
          "indexed": true,
          "internalType": "bytes32",
          "name": "previousAdminRole",
          "type": "bytes32"
        },
        {
          "indexed": true,
          "internalType": "bytes32",
          "name": "newAdminRole",
          "type": "bytes32"
        }
      ],
      "name": "RoleAdminChanged",
      "type": "event"
    },
    {
      "anonymous": false,
      "inputs": [
        {
          "indexed": true,
          "internalType": "bytes32",
          "name": "role",
          "type": "bytes32"
        },
        {
          "indexed": true,
          "internalType": "address",
          "name": "account",
          "type": "address"
        },
        {
          "indexed": true,
          "internalType": "address",
          "name": "sender",
          "type": "address"
        }
      ],
      "name": "RoleGranted",
      "type": "event"
    },
    {
      "anonymous": false,
      "inputs": [
        {
          "indexed": true,
          "internalType": "bytes32",
          "name": "role",
          "type": "bytes32"
        },
        {
          "indexed": true,
          "internalType": "address",
          "name": "account",
          "type": "address"
        },
        {
          "indexed": true,
          "internalType": "address",
          "name": "sender",
          "type": "address"
        }
      ],
      "name": "RoleRevoked",
      "type": "event"
    },
    {
      "anonymous": false,
      "inputs": [
        {
          "indexed": true,
          "internalType": "address",
          "name": "implementation",
          "type": "address"
        }
      ],
      "name": "Upgraded",
      "type": "event"
    },
    {
      "stateMutability": "payable",
      "type": "fallback"
    },
    {
      "inputs": [],
      "name": "AUDITOR_ROLE",
      "outputs": [
        {
          "internalType": "bytes32",
          "name": "",
          "type": "bytes32"
        }
      ],
      "stateMutability": "view",
      "type": "function"
    },
    {
      "inputs": [],
      "name": "BENEFICIARY_ROLE",
      "outputs": [
        {
          "internalType": "bytes32",
          "name": "",
          "type": "bytes32"
        }
      ],
      "stateMutability": "view",
      "type": "function"
    },
    {
      "inputs": [],
      "name": "DEFAULT_ADMIN_ROLE",
      "outputs": [
        {
          "internalType": "bytes32",
          "name": "",
          "type": "bytes32"
        }
      ],
      "stateMutability": "view",
      "type": "function"
    },
    {
      "inputs": [],
      "name": "INVESTOR_ROLE",
      "outputs": [
        {
          "internalType": "bytes32",
          "name": "",
          "type": "bytes32"
        }
      ],
      "stateMutability": "view",
      "type": "function"
    },
    {
      "inputs": [],
      "name": "ONG_ROLE",
      "outputs": [
        {
          "internalType": "bytes32",
          "name": "",
          "type": "bytes32"
        }
      ],
      "stateMutability": "view",
      "type": "function"
    },
    {
      "inputs": [],
      "name": "PROFESSOR_ROLE",
      "outputs": [
        {
          "internalType": "bytes32",
          "name": "",
          "type": "bytes32"
        }
      ],
      "stateMutability": "view",
      "type": "function"
    },
    {
      "inputs": [
        {
          "internalType": "address",
          "name": "ongWallet",
          "type": "address"
        }
      ],
      "name": "approveONG",
      "outputs": [],
      "stateMutability": "nonpayable",
      "type": "function"
    },
    {
      "inputs": [
        {
          "internalType": "address",
          "name": "",
          "type": "address"
        }
      ],
      "name": "beneficiarios",
      "outputs": [
        {
          "internalType": "bytes32",
          "name": "didHash",
          "type": "bytes32"
        },
        {
          "internalType": "string",
          "name": "community",
          "type": "string"
        },
        {
          "internalType": "string",
          "name": "metadataURI",
          "type": "string"
        },
        {
          "internalType": "bool",
          "name": "active",
          "type": "bool"
        }
      ],
      "stateMutability": "view",
      "type": "function"
    },
    {
      "inputs": [],
      "name": "feeCollector",
      "outputs": [
        {
          "internalType": "address",
          "name": "",
          "type": "address"
        }
      ],
      "stateMutability": "view",
      "type": "function"
    },
    {
      "inputs": [
        {
          "internalType": "address",
          "name": "wallet",
          "type": "address"
        }
      ],
      "name": "getBeneficiary",
      "outputs": [
        {
          "components": [
            {
              "internalType": "bytes32",
              "name": "didHash",
              "type": "bytes32"
            },
            {
              "internalType": "string",
              "name": "community",
              "type": "string"
            },
            {
              "internalType": "string",
              "name": "metadataURI",
              "type": "string"
            },
            {
              "internalType": "bool",
              "name": "active",
              "type": "bool"
            }
          ],
          "internalType": "struct LibraryStructs.Beneficiario",
          "name": "",
          "type": "tuple"
        }
      ],
      "stateMutability": "view",
      "type": "function"
    },
    {
      "inputs": [
        {
          "internalType": "address",
          "name": "wallet",
          "type": "address"
        }
      ],
      "name": "getInvestor",
      "outputs": [
        {
          "components": [
            {
              "internalType": "address",
              "name": "wallet",
              "type": "address"
            },
            {
              "internalType": "string",
              "name": "name",
              "type": "string"
            },
            {
              "internalType": "string",
              "name": "organization",
              "type": "string"
            },
            {
              "internalType": "uint256",
              "name": "totalInvested",
              "type": "uint256"
            },
            {
              "internalType": "string",
              "name": "metadataURI",
              "type": "string"
            },
            {
              "internalType": "bytes32",
              "name": "didHash",
              "type": "bytes32"
            }
          ],
          "internalType": "struct LibraryStructs.Inversor",
          "name": "",
          "type": "tuple"
        }
      ],
      "stateMutability": "view",
      "type": "function"
    },
    {
      "inputs": [
        {
          "internalType": "address",
          "name": "wallet",
          "type": "address"
        }
      ],
      "name": "getONG",
      "outputs": [
        {
          "components": [
            {
              "internalType": "address",
              "name": "wallet",
              "type": "address"
            },
            {
              "internalType": "string",
              "name": "name",
              "type": "string"
            },
            {
              "internalType": "string",
              "name": "country",
              "type": "string"
            },
            {
              "internalType": "string",
              "name": "description",
              "type": "string"
            },
            {
              "internalType": "string",
              "name": "metadataURI",
              "type": "string"
            },
            {
              "internalType": "bytes32",
              "name": "didHash",
              "type": "bytes32"
            },
            {
              "internalType": "bool",
              "name": "verified",
              "type": "bool"
            }
          ],
          "internalType": "struct LibraryStructs.ONG",
          "name": "",
          "type": "tuple"
        }
      ],
      "stateMutability": "view",
      "type": "function"
    },
    {
      "inputs": [
        {
          "internalType": "address",
          "name": "wallet",
          "type": "address"
        }
      ],
      "name": "getProfessor",
      "outputs": [
        {
          "components": [
            {
              "internalType": "address",
              "name": "wallet",
              "type": "address"
            },
            {
              "internalType": "string",
              "name": "name",
              "type": "string"
            },
            {
              "internalType": "string",
              "name": "specialty",
              "type": "string"
            },
            {
              "internalType": "string",
              "name": "metadataURI",
              "type": "string"
            },
            {
              "internalType": "bytes32",
              "name": "didHash",
              "type": "bytes32"
            },
            {
              "internalType": "address[]",
              "name": "associatedONGs",
              "type": "address[]"
            },
            {
              "internalType": "bool",
              "name": "active",
              "type": "bool"
            }
          ],
          "internalType": "struct LibraryStructs.Profesor",
          "name": "",
          "type": "tuple"
        }
      ],
      "stateMutability": "view",
      "type": "function"
    },
    {
      "inputs": [
        {
          "internalType": "bytes32",
          "name": "role",
          "type": "bytes32"
        }
      ],
      "name": "getRoleAdmin",
      "outputs": [
        {
          "internalType": "bytes32",
          "name": "",
          "type": "bytes32"
        }
      ],
      "stateMutability": "view",
      "type": "function"
    },
    {
      "inputs": [
        {
          "internalType": "bytes32",
          "name": "role",
          "type": "bytes32"
        },
        {
          "internalType": "address",
          "name": "account",
          "type": "address"
        }
      ],
      "name": "grantRole",
      "outputs": [],
      "stateMutability": "nonpayable",
      "type": "function"
    },
    {
      "inputs": [
        {
          "internalType": "bytes32",
          "name": "role",
          "type": "bytes32"
        },
        {
          "internalType": "address",
          "name": "account",
          "type": "address"
        }
      ],
      "name": "hasRole",
      "outputs": [
        {
          "internalType": "bool",
          "name": "",
          "type": "bool"
        }
      ],
      "stateMutability": "view",
      "type": "function"
    },
    {
      "inputs": [
        {
          "internalType": "address",
          "name": "admin",
          "type": "address"
        },
        {
          "internalType": "address",
          "name": "_feeCollector",
          "type": "address"
        },
        {
          "internalType": "uint256",
          "name": "_registrationFee",
          "type": "uint256"
        }
      ],
      "name": "initialize",
      "outputs": [],
      "stateMutability": "nonpayable",
      "type": "function"
    },
    {
      "inputs": [
        {
          "internalType": "address",
          "name": "",
          "type": "address"
        }
      ],
      "name": "inversores",
      "outputs": [
        {
          "internalType": "address",
          "name": "wallet",
          "type": "address"
        },
        {
          "internalType": "string",
          "name": "name",
          "type": "string"
        },
        {
          "internalType": "string",
          "name": "organization",
          "type": "string"
        },
        {
          "internalType": "uint256",
          "name": "totalInvested",
          "type": "uint256"
        },
        {
          "internalType": "string",
          "name": "metadataURI",
          "type": "string"
        },
        {
          "internalType": "bytes32",
          "name": "didHash",
          "type": "bytes32"
        }
      ],
      "stateMutability": "view",
      "type": "function"
    },
    {
      "inputs": [
        {
          "internalType": "address",
          "name": "ongAddress",
          "type": "address"
        }
      ],
      "name": "joinONG",
      "outputs": [],
      "stateMutability": "nonpayable",
      "type": "function"
    },
    {
      "inputs": [
        {
          "internalType": "address",
          "name": "",
          "type": "address"
        }
      ],
      "name": "ongs",
      "outputs": [
        {
          "internalType": "address",
          "name": "wallet",
          "type": "address"
        },
        {
          "internalType": "string",
          "name": "name",
          "type": "string"
        },
        {
          "internalType": "string",
          "name": "country",
          "type": "string"
        },
        {
          "internalType": "string",
          "name": "description",
          "type": "string"
        },
        {
          "internalType": "string",
          "name": "metadataURI",
          "type": "string"
        },
        {
          "internalType": "bytes32",
          "name": "didHash",
          "type": "bytes32"
        },
        {
          "internalType": "bool",
          "name": "verified",
          "type": "bool"
        }
      ],
      "stateMutability": "view",
      "type": "function"
    },
    {
      "inputs": [
        {
          "internalType": "address",
          "name": "",
          "type": "address"
        }
      ],
      "name": "profesores",
      "outputs": [
        {
          "internalType": "address",
          "name": "wallet",
          "type": "address"
        },
        {
          "internalType": "string",
          "name": "name",
          "type": "string"
        },
        {
          "internalType": "string",
          "name": "specialty",
          "type": "string"
        },
        {
          "internalType": "string",
          "name": "metadataURI",
          "type": "string"
        },
        {
          "internalType": "bytes32",
          "name": "didHash",
          "type": "bytes32"
        },
        {
          "internalType": "bool",
          "name": "active",
          "type": "bool"
        }
      ],
      "stateMutability": "view",
      "type": "function"
    },
    {
      "inputs": [],
      "name": "proxiableUUID",
      "outputs": [
        {
          "internalType": "bytes32",
          "name": "",
          "type": "bytes32"
        }
      ],
      "stateMutability": "view",
      "type": "function"
    },
    {
      "inputs": [
        {
          "internalType": "address",
          "name": "wallet",
          "type": "address"
        },
        {
          "components": [
            {
              "internalType": "bytes32",
              "name": "didHash",
              "type": "bytes32"
            },
            {
              "internalType": "string",
              "name": "community",
              "type": "string"
            },
            {
              "internalType": "string",
              "name": "metadataURI",
              "type": "string"
            },
            {
              "internalType": "bool",
              "name": "active",
              "type": "bool"
            }
          ],
          "internalType": "struct LibraryStructs.Beneficiario",
          "name": "data",
          "type": "tuple"
        }
      ],
      "name": "registerBeneficiary",
      "outputs": [],
      "stateMutability": "nonpayable",
      "type": "function"
    },
    {
      "inputs": [
        {
          "internalType": "address",
          "name": "wallet",
          "type": "address"
        },
        {
          "components": [
            {
              "internalType": "address",
              "name": "wallet",
              "type": "address"
            },
            {
              "internalType": "string",
              "name": "name",
              "type": "string"
            },
            {
              "internalType": "string",
              "name": "organization",
              "type": "string"
            },
            {
              "internalType": "uint256",
              "name": "totalInvested",
              "type": "uint256"
            },
            {
              "internalType": "string",
              "name": "metadataURI",
              "type": "string"
            },
            {
              "internalType": "bytes32",
              "name": "didHash",
              "type": "bytes32"
            }
          ],
          "internalType": "struct LibraryStructs.Inversor",
          "name": "data",
          "type": "tuple"
        }
      ],
      "name": "registerInvestor",
      "outputs": [],
      "stateMutability": "nonpayable",
      "type": "function"
    },
    {
      "inputs": [
        {
          "internalType": "address",
          "name": "wallet",
          "type": "address"
        },
        {
          "components": [
            {
              "internalType": "address",
              "name": "wallet",
              "type": "address"
            },
            {
              "internalType": "string",
              "name": "name",
              "type": "string"
            },
            {
              "internalType": "string",
              "name": "specialty",
              "type": "string"
            },
            {
              "internalType": "string",
              "name": "metadataURI",
              "type": "string"
            },
            {
              "internalType": "bytes32",
              "name": "didHash",
              "type": "bytes32"
            },
            {
              "internalType": "address[]",
              "name": "associatedONGs",
              "type": "address[]"
            },
            {
              "internalType": "bool",
              "name": "active",
              "type": "bool"
            }
          ],
          "internalType": "struct LibraryStructs.Profesor",
          "name": "data",
          "type": "tuple"
        }
      ],
      "name": "registerProfessor",
      "outputs": [],
      "stateMutability": "nonpayable",
      "type": "function"
    },
    {
      "inputs": [],
      "name": "registrationFee",
      "outputs": [
        {
          "internalType": "uint256",
          "name": "",
          "type": "uint256"
        }
      ],
      "stateMutability": "view",
      "type": "function"
    },
    {
      "inputs": [
        {
          "internalType": "bytes32",
          "name": "role",
          "type": "bytes32"
        },
        {
          "internalType": "address",
          "name": "account",
          "type": "address"
        }
      ],
      "name": "renounceRole",
      "outputs": [],
      "stateMutability": "nonpayable",
      "type": "function"
    },
    {
      "inputs": [
        {
          "components": [
            {
              "internalType": "address",
              "name": "wallet",
              "type": "address"
            },
            {
              "internalType": "string",
              "name": "name",
              "type": "string"
            },
            {
              "internalType": "string",
              "name": "country",
              "type": "string"
            },
            {
              "internalType": "string",
              "name": "description",
              "type": "string"
            },
            {
              "internalType": "string",
              "name": "metadataURI",
              "type": "string"
            },
            {
              "internalType": "bytes32",
              "name": "didHash",
              "type": "bytes32"
            },
            {
              "internalType": "bool",
              "name": "verified",
              "type": "bool"
            }
          ],
          "internalType": "struct LibraryStructs.ONG",
          "name": "data",
          "type": "tuple"
        }
      ],
      "name": "requestRegistrationONG",
      "outputs": [],
      "stateMutability": "payable",
      "type": "function"
    },
    {
      "inputs": [
        {
          "internalType": "bytes32",
          "name": "role",
          "type": "bytes32"
        },
        {
          "internalType": "address",
          "name": "account",
          "type": "address"
        }
      ],
      "name": "revokeRole",
      "outputs": [],
      "stateMutability": "nonpayable",
      "type": "function"
    },
    {
      "inputs": [
        {
          "internalType": "address",
          "name": "newCollector",
          "type": "address"
        }
      ],
      "name": "setFeeCollector",
      "outputs": [],
      "stateMutability": "nonpayable",
      "type": "function"
    },
    {
      "inputs": [
        {
          "internalType": "uint256",
          "name": "newFee",
          "type": "uint256"
        }
      ],
      "name": "setRegistrationFee",
      "outputs": [],
      "stateMutability": "nonpayable",
      "type": "function"
    },
    {
      "inputs": [
        {
          "internalType": "bytes4",
          "name": "interfaceId",
          "type": "bytes4"
        }
      ],
      "name": "supportsInterface",
      "outputs": [
        {
          "internalType": "bool",
          "name": "",
          "type": "bool"
        }
      ],
      "stateMutability": "view",
      "type": "function"
    },
    {
      "inputs": [
        {
          "internalType": "address",
          "name": "newImplementation",
          "type": "address"
        }
      ],
      "name": "upgradeTo",
      "outputs": [],
      "stateMutability": "nonpayable",
      "type": "function"
    },
    {
      "inputs": [
        {
          "internalType": "address",
          "name": "newImplementation",
          "type": "address"
        },
        {
          "internalType": "bytes",
          "name": "data",
          "type": "bytes"
        }
      ],
      "name": "upgradeToAndCall",
      "outputs": [],
      "stateMutability": "payable",
      "type": "function"
    },
    {
      "stateMutability": "payable",
      "type": "receive"
    }
  ],
  "bytecode": "60a06040523073ffffffffffffffffffffffffffffffffffffffff1660809073ffffffffffffffffffffffffffffffffffffffff1681525034801561004357600080fd5b5060805161609561007b60003960008181610e8201528181610f1001528181611238015281816112c601526116d501526160956000f3fe6080604052600436106101fd5760003560e01c80637459acfd1161010d578063c320c727116100a0578063ce4088561161006f578063ce4088561461076f578063ced3a4031461079a578063d547741f146107c5578063eab1ad17146107ee578063ee930eff14610830576101fe565b8063c320c727146106c7578063c415b95c146106f0578063c81cf7711461071b578063cced03df14610746576101fe565b80638f35a75e116100dc5780638f35a75e146105f957806391d1485414610636578063a217fddf14610673578063a42dce801461069e576101fe565b80637459acfd1461050e57806376082a5e1461054e5780637e78cbcb146105795780638ed29d84146105bc576101fe565b80633659cfe611610190578063509bc6711161015f578063509bc6711461043657806352d1902d1461045f57806366a119171461048a5780636e1d616e146104c757806370017488146104f2576101fe565b80633659cfe61461038b5780634927ecf5146103b45780634f1ef286146103dd578063505a1b31146103f9576101fe565b8063248a9ca3116101cc578063248a9ca3146102d35780632746287d146103105780632f2ff15d1461033957806336568abe14610362576101fe565b806301ffc9a714610200578063129f76a61461023d57806314c44e091461027f5780631794bb3c146102aa576101fe565b5b005b34801561020c57600080fd5b5061022760048036038101906102229190613cfc565b610859565b6040516102349190613d44565b60405180910390f35b34801561024957600080fd5b50610264600480360381019061025f9190613dbd565b6108d3565b60405161027696959493929190613ebb565b60405180910390f35b34801561028b57600080fd5b50610294610ac8565b6040516102a19190613f31565b60405180910390f35b3480156102b657600080fd5b506102d160048036038101906102cc9190613f78565b610acf565b005b3480156102df57600080fd5b506102fa60048036038101906102f59190613ff7565b610c77565b6040516103079190614024565b60405180910390f35b34801561031c57600080fd5b506103376004803603810190610332919061425a565b610c97565b005b34801561034557600080fd5b50610360600480360381019061035b91906142b6565b610ddc565b005b34801561036e57600080fd5b50610389600480360381019061038491906142b6565b610dfd565b005b34801561039757600080fd5b506103b260048036038101906103ad9190613dbd565b610e80565b005b3480156103c057600080fd5b506103db60048036038101906103d691906144e2565b611008565b005b6103f760048036038101906103f291906145df565b611236565b005b34801561040557600080fd5b50610420600480360381019061041b9190613dbd565b611372565b60405161042d919061470d565b60405180910390f35b34801561044257600080fd5b5061045d60048036038101906104589190613dbd565b611515565b005b34801561046b57600080fd5b506104746116d1565b6040516104819190614024565b60405180910390f35b34801561049657600080fd5b506104b160048036038101906104ac9190613dbd565b61178a565b6040516104be919061489e565b60405180910390f35b3480156104d357600080fd5b506104dc611aa3565b6040516104e99190614024565b60405180910390f35b61050c600480360381019061050791906149e4565b611ac7565b005b34801561051a57600080fd5b5061053560048036038101906105309190613dbd565b611e26565b6040516105459493929190614a2d565b60405180910390f35b34801561055a57600080fd5b50610563611f74565b6040516105709190614024565b60405180910390f35b34801561058557600080fd5b506105a0600480360381019061059b9190613dbd565b611f98565b6040516105b39796959493929190614a80565b60405180910390f35b3480156105c857600080fd5b506105e360048036038101906105de9190613dbd565b612228565b6040516105f09190614bbc565b60405180910390f35b34801561060557600080fd5b50610620600480360381019061061b9190613dbd565b612545565b60405161062d9190614c84565b60405180910390f35b34801561064257600080fd5b5061065d600480360381019061065891906142b6565b6127bf565b60405161066a9190613d44565b60405180910390f35b34801561067f57600080fd5b5061068861282a565b6040516106959190614024565b60405180910390f35b3480156106aa57600080fd5b506106c560048036038101906106c09190613dbd565b612831565b005b3480156106d357600080fd5b506106ee60048036038101906106e99190614ca6565b6128f3565b005b3480156106fc57600080fd5b50610705612943565b6040516107129190614cd3565b60405180910390f35b34801561072757600080fd5b5061073061296a565b60405161073d9190614024565b60405180910390f35b34801561075257600080fd5b5061076d60048036038101906107689190614de2565b61298e565b005b34801561077b57600080fd5b50610784612afd565b6040516107919190614024565b60405180910390f35b3480156107a657600080fd5b506107af612b21565b6040516107bc9190614024565b60405180910390f35b3480156107d157600080fd5b506107ec60048036038101906107e791906142b6565b612b45565b005b3480156107fa57600080fd5b5061081560048036038101906108109190613dbd565b612b66565b60405161082796959493929190614e3e565b60405180910390f35b34801561083c57600080fd5b5061085760048036038101906108529190613dbd565b612d68565b005b60007f7965db0b000000000000000000000000000000000000000000000000000000007bffffffffffffffffffffffffffffffffffffffffffffffffffffffff1916827bffffffffffffffffffffffffffffffffffffffffffffffffffffffff191614806108cc57506108cb82612f20565b5b9050919050565b61012f6020528060005260406000206000915090508060000160009054906101000a900473ffffffffffffffffffffffffffffffffffffffff169080600101805461091d90614ee3565b80601f016020809104026020016040519081016040528092919081815260200182805461094990614ee3565b80156109965780601f1061096b57610100808354040283529160200191610996565b820191906000526020600020905b81548152906001019060200180831161097957829003601f168201915b5050505050908060020180546109ab90614ee3565b80601f01602080910402602001604051908101604052809291908181526020018280546109d790614ee3565b8015610a245780601f106109f957610100808354040283529160200191610a24565b820191906000526020600020905b815481529060010190602001808311610a0757829003601f168201915b505050505090806003015490806004018054610a3f90614ee3565b80601f0160208091040260200160405190810160405280929190818152602001828054610a6b90614ee3565b8015610ab85780601f10610a8d57610100808354040283529160200191610ab8565b820191906000526020600020905b815481529060010190602001808311610a9b57829003601f168201915b5050505050908060050154905086565b6101325481565b60008060019054906101000a900460ff16159050808015610b005750600160008054906101000a900460ff1660ff16105b80610b2d5750610b0f30612f8a565b158015610b2c5750600160008054906101000a900460ff1660ff16145b5b610b6c576040517f08c379a0000000000000000000000000000000000000000000000000000000008152600401610b6390614f86565b60405180910390fd5b60016000806101000a81548160ff021916908360ff1602179055508015610ba9576001600060016101000a81548160ff0219169083151502179055505b610bb1612fad565b610bb9612ffe565b610bc161304f565b610bce6000801b856130a8565b8261013160006101000a81548173ffffffffffffffffffffffffffffffffffffffff021916908373ffffffffffffffffffffffffffffffffffffffff16021790555081610132819055508015610c715760008060016101000a81548160ff0219169083151502179055507f7f26b83ff96e1f2b6a682f133852f6798a09c465da95921460cefb38474024986001604051610c689190614ff8565b60405180910390a15b50505050565b600060656000838152602001908152602001600020600101549050919050565b7f2189908c03208535424461134ce147b8dd501756c63026817156a7ca871326b0610cc181613189565b8161013060008573ffffffffffffffffffffffffffffffffffffffff1673ffffffffffffffffffffffffffffffffffffffff168152602001908152602001600020600082015181600001556020820151816001019081610d2191906151b5565b506040820151816002019081610d3791906151b5565b5060608201518160030160006101000a81548160ff021916908315150217905550905050610d857fc8a41221bcd7fcf2c225f5a9265e1d4d39949d89197159d59e5f4b87b62c419e846130a8565b8273ffffffffffffffffffffffffffffffffffffffff167fdc8c7948efd57970d2239c1bd917b1aacccb1af7b9d31499bb5ed1f80a7925278360200151604051610dcf91906152d3565b60405180910390a2505050565b610de582610c77565b610dee81613189565b610df883836130a8565b505050565b610e0561319d565b73ffffffffffffffffffffffffffffffffffffffff168173ffffffffffffffffffffffffffffffffffffffff1614610e72576040517f08c379a0000000000000000000000000000000000000000000000000000000008152600401610e699061537a565b60405180910390fd5b610e7c82826131a5565b5050565b7f000000000000000000000000000000000000000000000000000000000000000073ffffffffffffffffffffffffffffffffffffffff163073ffffffffffffffffffffffffffffffffffffffff1603610f0e576040517f08c379a0000000000000000000000000000000000000000000000000000000008152600401610f059061540c565b60405180910390fd5b7f000000000000000000000000000000000000000000000000000000000000000073ffffffffffffffffffffffffffffffffffffffff16610f4d613287565b73ffffffffffffffffffffffffffffffffffffffff1614610fa3576040517f08c379a0000000000000000000000000000000000000000000000000000000008152600401610f9a9061549e565b60405180910390fd5b610fac816132de565b61100581600067ffffffffffffffff811115610fcb57610fca614044565b5b6040519080825280601f01601f191660200182016040528015610ffd5781602001600182028036833780820191505090505b5060006132ef565b50565b7f2189908c03208535424461134ce147b8dd501756c63026817156a7ca871326b061103281613189565b600073ffffffffffffffffffffffffffffffffffffffff168373ffffffffffffffffffffffffffffffffffffffff16036110a1576040517f08c379a00000000000000000000000000000000000000000000000000000000081526004016110989061550a565b60405180910390fd5b8161012e60008573ffffffffffffffffffffffffffffffffffffffff1673ffffffffffffffffffffffffffffffffffffffff16815260200190815260200160002060008201518160000160006101000a81548173ffffffffffffffffffffffffffffffffffffffff021916908373ffffffffffffffffffffffffffffffffffffffff160217905550602082015181600101908161113e91906151b5565b50604082015181600201908161115491906151b5565b50606082015181600301908161116a91906151b5565b506080820151816004015560a0820151816005019080519060200190611191929190613abd565b5060c08201518160060160006101000a81548160ff0219169083151502179055509050506111df7f577f08e4a510a24c05fb531f78cace5d373d442eb2ba1e22f5bcf2bf4248c21e846130a8565b8273ffffffffffffffffffffffffffffffffffffffff167fdc8c7948efd57970d2239c1bd917b1aacccb1af7b9d31499bb5ed1f80a79252783602001516040516112299190615576565b60405180910390a2505050565b7f000000000000000000000000000000000000000000000000000000000000000073ffffffffffffffffffffffffffffffffffffffff163073ffffffffffffffffffffffffffffffffffffffff16036112c4576040517f08c379a00000000000000000000000000000000000000000000000000000000081526004016112bb9061540c565b60405180910390fd5b7f000000000000000000000000000000000000000000000000000000000000000073ffffffffffffffffffffffffffffffffffffffff16611303613287565b73ffffffffffffffffffffffffffffffffffffffff1614611359576040517f08c379a00000000000000000000000000000000000000000000000000000000081526004016113509061549e565b60405180910390fd5b611362826132de565b61136e828260016132ef565b5050565b61137a613b47565b61013060008373ffffffffffffffffffffffffffffffffffffffff1673ffffffffffffffffffffffffffffffffffffffff168152602001908152602001600020604051806080016040529081600082015481526020016001820180546113df90614ee3565b80601f016020809104026020016040519081016040528092919081815260200182805461140b90614ee3565b80156114585780601f1061142d57610100808354040283529160200191611458565b820191906000526020600020905b81548152906001019060200180831161143b57829003601f168201915b5050505050815260200160028201805461147190614ee3565b80601f016020809104026020016040519081016040528092919081815260200182805461149d90614ee3565b80156114ea5780601f106114bf576101008083540402835291602001916114ea565b820191906000526020600020905b8154815290600101906020018083116114cd57829003601f168201915b505050505081526020016003820160009054906101000a900460ff1615151515815250509050919050565b7f577f08e4a510a24c05fb531f78cace5d373d442eb2ba1e22f5bcf2bf4248c21e61153f81613189565b61012d60008373ffffffffffffffffffffffffffffffffffffffff1673ffffffffffffffffffffffffffffffffffffffff16815260200190815260200160002060060160009054906101000a900460ff166115cf576040517f08c379a00000000000000000000000000000000000000000000000000000000081526004016115c6906155f7565b60405180910390fd5b61012e60003373ffffffffffffffffffffffffffffffffffffffff1673ffffffffffffffffffffffffffffffffffffffff168152602001908152602001600020600501829080600181540180825580915050600190039060005260206000200160009091909190916101000a81548173ffffffffffffffffffffffffffffffffffffffff021916908373ffffffffffffffffffffffffffffffffffffffff1602179055508173ffffffffffffffffffffffffffffffffffffffff163373ffffffffffffffffffffffffffffffffffffffff167f022d4725114783c5e364ba350b6a104261b57b916e17369b101663ee720f94a660405160405180910390a35050565b60007f000000000000000000000000000000000000000000000000000000000000000073ffffffffffffffffffffffffffffffffffffffff163073ffffffffffffffffffffffffffffffffffffffff1614611761576040517f08c379a000000000000000000000000000000000000000000000000000000000815260040161175890615689565b60405180910390fd5b7f360894a13ba1a3210667c828492db98dca3e2076cc3735a920a3ca505d382bbc60001b905090565b611792613b74565b61012e60008373ffffffffffffffffffffffffffffffffffffffff1673ffffffffffffffffffffffffffffffffffffffff1681526020019081526020016000206040518060e00160405290816000820160009054906101000a900473ffffffffffffffffffffffffffffffffffffffff1673ffffffffffffffffffffffffffffffffffffffff1673ffffffffffffffffffffffffffffffffffffffff16815260200160018201805461184390614ee3565b80601f016020809104026020016040519081016040528092919081815260200182805461186f90614ee3565b80156118bc5780601f10611891576101008083540402835291602001916118bc565b820191906000526020600020905b81548152906001019060200180831161189f57829003601f168201915b505050505081526020016002820180546118d590614ee3565b80601f016020809104026020016040519081016040528092919081815260200182805461190190614ee3565b801561194e5780601f106119235761010080835404028352916020019161194e565b820191906000526020600020905b81548152906001019060200180831161193157829003601f168201915b5050505050815260200160038201805461196790614ee3565b80601f016020809104026020016040519081016040528092919081815260200182805461199390614ee3565b80156119e05780601f106119b5576101008083540402835291602001916119e0565b820191906000526020600020905b8154815290600101906020018083116119c357829003601f168201915b505050505081526020016004820154815260200160058201805480602002602001604051908101604052809291908181526020018280548015611a7857602002820191906000526020600020905b8160009054906101000a900473ffffffffffffffffffffffffffffffffffffffff1673ffffffffffffffffffffffffffffffffffffffff1681526020019060010190808311611a2e575b505050505081526020016006820160009054906101000a900460ff1615151515815250509050919050565b7f59a1c48e5837ad7a7f3dcedcbe129bf3249ec4fbf651fd4f5e2600ead39fe2f581565b611acf61345d565b61013254341015611b15576040517f08c379a0000000000000000000000000000000000000000000000000000000008152600401611b0c906156f5565b60405180910390fd5b3373ffffffffffffffffffffffffffffffffffffffff167f06c5efeff5c320943d265dc4e5f1af95ad523555ce0c1957e367dda5514572df34604051611b5b9190613f31565b60405180910390a261013160009054906101000a900473ffffffffffffffffffffffffffffffffffffffff1673ffffffffffffffffffffffffffffffffffffffff166108fc349081150290604051600060405180830381858888f19350505050158015611bcc573d6000803e3d6000fd5b5061012d60003373ffffffffffffffffffffffffffffffffffffffff1673ffffffffffffffffffffffffffffffffffffffff16815260200190815260200160002060060160009054906101000a900460ff1615611c5e576040517f08c379a0000000000000000000000000000000000000000000000000000000008152600401611c5590615761565b60405180910390fd5b6040518060e001604052803373ffffffffffffffffffffffffffffffffffffffff168152602001826020015181526020018260400151815260200182606001518152602001826080015181526020016000801b81526020016000151581525061012d60003373ffffffffffffffffffffffffffffffffffffffff1673ffffffffffffffffffffffffffffffffffffffff16815260200190815260200160002060008201518160000160006101000a81548173ffffffffffffffffffffffffffffffffffffffff021916908373ffffffffffffffffffffffffffffffffffffffff1602179055506020820151816001019081611d5991906151b5565b506040820151816002019081611d6f91906151b5565b506060820151816003019081611d8591906151b5565b506080820151816004019081611d9b91906151b5565b5060a0820151816005015560c08201518160060160006101000a81548160ff0219169083151502179055509050503373ffffffffffffffffffffffffffffffffffffffff167fa3d215ddfbe0a5e60496f40d1fe02ede568e6f322d82db3e32a615645291ddfe8260200151604051611e139190615781565b60405180910390a2611e236134ac565b50565b610130602052806000526040600020600091509050806000015490806001018054611e5090614ee3565b80601f0160208091040260200160405190810160405280929190818152602001828054611e7c90614ee3565b8015611ec95780601f10611e9e57610100808354040283529160200191611ec9565b820191906000526020600020905b815481529060010190602001808311611eac57829003601f168201915b505050505090806002018054611ede90614ee3565b80601f0160208091040260200160405190810160405280929190818152602001828054611f0a90614ee3565b8015611f575780601f10611f2c57610100808354040283529160200191611f57565b820191906000526020600020905b815481529060010190602001808311611f3a57829003601f168201915b5050505050908060030160009054906101000a900460ff16905084565b7fb165298935924f540e4181c03493a5d686c54a0aaeb3f6216de85b7ffbba773881565b61012d6020528060005260406000206000915090508060000160009054906101000a900473ffffffffffffffffffffffffffffffffffffffff1690806001018054611fe290614ee3565b80601f016020809104026020016040519081016040528092919081815260200182805461200e90614ee3565b801561205b5780601f106120305761010080835404028352916020019161205b565b820191906000526020600020905b81548152906001019060200180831161203e57829003601f168201915b50505050509080600201805461207090614ee3565b80601f016020809104026020016040519081016040528092919081815260200182805461209c90614ee3565b80156120e95780601f106120be576101008083540402835291602001916120e9565b820191906000526020600020905b8154815290600101906020018083116120cc57829003601f168201915b5050505050908060030180546120fe90614ee3565b80601f016020809104026020016040519081016040528092919081815260200182805461212a90614ee3565b80156121775780601f1061214c57610100808354040283529160200191612177565b820191906000526020600020905b81548152906001019060200180831161215a57829003601f168201915b50505050509080600401805461218c90614ee3565b80601f01602080910402602001604051908101604052809291908181526020018280546121b890614ee3565b80156122055780601f106121da57610100808354040283529160200191612205565b820191906000526020600020905b8154815290600101906020018083116121e857829003601f168201915b5050505050908060050154908060060160009054906101000a900460ff16905087565b612230613bcc565b61012d60008373ffffffffffffffffffffffffffffffffffffffff1673ffffffffffffffffffffffffffffffffffffffff1681526020019081526020016000206040518060e00160405290816000820160009054906101000a900473ffffffffffffffffffffffffffffffffffffffff1673ffffffffffffffffffffffffffffffffffffffff1673ffffffffffffffffffffffffffffffffffffffff1681526020016001820180546122e190614ee3565b80601f016020809104026020016040519081016040528092919081815260200182805461230d90614ee3565b801561235a5780601f1061232f5761010080835404028352916020019161235a565b820191906000526020600020905b81548152906001019060200180831161233d57829003601f168201915b5050505050815260200160028201805461237390614ee3565b80601f016020809104026020016040519081016040528092919081815260200182805461239f90614ee3565b80156123ec5780601f106123c1576101008083540402835291602001916123ec565b820191906000526020600020905b8154815290600101906020018083116123cf57829003601f168201915b5050505050815260200160038201805461240590614ee3565b80601f016020809104026020016040519081016040528092919081815260200182805461243190614ee3565b801561247e5780601f106124535761010080835404028352916020019161247e565b820191906000526020600020905b81548152906001019060200180831161246157829003601f168201915b5050505050815260200160048201805461249790614ee3565b80601f01602080910402602001604051908101604052809291908181526020018280546124c390614ee3565b80156125105780601f106124e557610100808354040283529160200191612510565b820191906000526020600020905b8154815290600101906020018083116124f357829003601f168201915b50505050508152602001600582015481526020016006820160009054906101000a900460ff1615151515815250509050919050565b61254d613c24565b61012f60008373ffffffffffffffffffffffffffffffffffffffff1673ffffffffffffffffffffffffffffffffffffffff1681526020019081526020016000206040518060c00160405290816000820160009054906101000a900473ffffffffffffffffffffffffffffffffffffffff1673ffffffffffffffffffffffffffffffffffffffff1673ffffffffffffffffffffffffffffffffffffffff1681526020016001820180546125fe90614ee3565b80601f016020809104026020016040519081016040528092919081815260200182805461262a90614ee3565b80156126775780601f1061264c57610100808354040283529160200191612677565b820191906000526020600020905b81548152906001019060200180831161265a57829003601f168201915b5050505050815260200160028201805461269090614ee3565b80601f01602080910402602001604051908101604052809291908181526020018280546126bc90614ee3565b80156127095780601f106126de57610100808354040283529160200191612709565b820191906000526020600020905b8154815290600101906020018083116126ec57829003601f168201915b505050505081526020016003820154815260200160048201805461272c90614ee3565b80601f016020809104026020016040519081016040528092919081815260200182805461275890614ee3565b80156127a55780601f1061277a576101008083540402835291602001916127a5565b820191906000526020600020905b81548152906001019060200180831161278857829003601f168201915b505050505081526020016005820154815250509050919050565b60006065600084815260200190815260200160002060000160008373ffffffffffffffffffffffffffffffffffffffff1673ffffffffffffffffffffffffffffffffffffffff16815260200190815260200160002060009054906101000a900460ff16905092915050565b6000801b81565b6000801b61283e81613189565b600073ffffffffffffffffffffffffffffffffffffffff168273ffffffffffffffffffffffffffffffffffffffff16036128ad576040517f08c379a00000000000000000000000000000000000000000000000000000000081526004016128a4906157ef565b60405180910390fd5b8161013160006101000a81548173ffffffffffffffffffffffffffffffffffffffff021916908373ffffffffffffffffffffffffffffffffffffffff1602179055505050565b6000801b61290081613189565b81610132819055507f8c4d35e54a3f2ef1134138fd8ea3daee6a3c89e10d2665996babdf70261e2c76826040516129379190613f31565b60405180910390a15050565b61013160009054906101000a900473ffffffffffffffffffffffffffffffffffffffff1681565b7f577f08e4a510a24c05fb531f78cace5d373d442eb2ba1e22f5bcf2bf4248c21e81565b6000801b61299b81613189565b8161012f60008573ffffffffffffffffffffffffffffffffffffffff1673ffffffffffffffffffffffffffffffffffffffff16815260200190815260200160002060008201518160000160006101000a81548173ffffffffffffffffffffffffffffffffffffffff021916908373ffffffffffffffffffffffffffffffffffffffff1602179055506020820151816001019081612a3891906151b5565b506040820151816002019081612a4e91906151b5565b50606082015181600301556080820151816004019081612a6e91906151b5565b5060a08201518160050155905050612aa67fb165298935924f540e4181c03493a5d686c54a0aaeb3f6216de85b7ffbba7738846130a8565b8273ffffffffffffffffffffffffffffffffffffffff167fdc8c7948efd57970d2239c1bd917b1aacccb1af7b9d31499bb5ed1f80a7925278360200151604051612af0919061585b565b60405180910390a2505050565b7f2189908c03208535424461134ce147b8dd501756c63026817156a7ca871326b081565b7fc8a41221bcd7fcf2c225f5a9265e1d4d39949d89197159d59e5f4b87b62c419e81565b612b4e82610c77565b612b5781613189565b612b6183836131a5565b505050565b61012e6020528060005260406000206000915090508060000160009054906101000a900473ffffffffffffffffffffffffffffffffffffffff1690806001018054612bb090614ee3565b80601f0160208091040260200160405190810160405280929190818152602001828054612bdc90614ee3565b8015612c295780601f10612bfe57610100808354040283529160200191612c29565b820191906000526020600020905b815481529060010190602001808311612c0c57829003601f168201915b505050505090806002018054612c3e90614ee3565b80601f0160208091040260200160405190810160405280929190818152602001828054612c6a90614ee3565b8015612cb75780601f10612c8c57610100808354040283529160200191612cb7565b820191906000526020600020905b815481529060010190602001808311612c9a57829003601f168201915b505050505090806003018054612ccc90614ee3565b80601f0160208091040260200160405190810160405280929190818152602001828054612cf890614ee3565b8015612d455780601f10612d1a57610100808354040283529160200191612d45565b820191906000526020600020905b815481529060010190602001808311612d2857829003601f168201915b5050505050908060040154908060060160009054906101000a900460ff16905086565b6000801b612d7581613189565b61012d60008373ffffffffffffffffffffffffffffffffffffffff1673ffffffffffffffffffffffffffffffffffffffff16815260200190815260200160002060060160009054906101000a900460ff1615612e06576040517f08c379a0000000000000000000000000000000000000000000000000000000008152600401612dfd906158dc565b60405180910390fd5b600161012d60008473ffffffffffffffffffffffffffffffffffffffff1673ffffffffffffffffffffffffffffffffffffffff16815260200190815260200160002060060160006101000a81548160ff021916908315150217905550612e8c7f2189908c03208535424461134ce147b8dd501756c63026817156a7ca871326b0836130a8565b8173ffffffffffffffffffffffffffffffffffffffff167fdc8c7948efd57970d2239c1bd917b1aacccb1af7b9d31499bb5ed1f80a79252761012d60008573ffffffffffffffffffffffffffffffffffffffff1673ffffffffffffffffffffffffffffffffffffffff168152602001908152602001600020600101604051612f1491906159cc565b60405180910390a25050565b60007f01ffc9a7000000000000000000000000000000000000000000000000000000007bffffffffffffffffffffffffffffffffffffffffffffffffffffffff1916827bffffffffffffffffffffffffffffffffffffffffffffffffffffffff1916149050919050565b6000808273ffffffffffffffffffffffffffffffffffffffff163b119050919050565b600060019054906101000a900460ff16612ffc576040517f08c379a0000000000000000000000000000000000000000000000000000000008152600401612ff390615a73565b60405180910390fd5b565b600060019054906101000a900460ff1661304d576040517f08c379a000000000000000000000000000000000000000000000000000000000815260040161304490615a73565b60405180910390fd5b565b600060019054906101000a900460ff1661309e576040517f08c379a000000000000000000000000000000000000000000000000000000000815260040161309590615a73565b60405180910390fd5b6130a66134b6565b565b6130b282826127bf565b6131855760016065600084815260200190815260200160002060000160008373ffffffffffffffffffffffffffffffffffffffff1673ffffffffffffffffffffffffffffffffffffffff16815260200190815260200160002060006101000a81548160ff02191690831515021790555061312a61319d565b73ffffffffffffffffffffffffffffffffffffffff168173ffffffffffffffffffffffffffffffffffffffff16837f2f8788117e7eff1d82e926ec794901d17c78024a50270940304540a733656f0d60405160405180910390a45b5050565b61319a8161319561319d565b61350f565b50565b600033905090565b6131af82826127bf565b156132835760006065600084815260200190815260200160002060000160008373ffffffffffffffffffffffffffffffffffffffff1673ffffffffffffffffffffffffffffffffffffffff16815260200190815260200160002060006101000a81548160ff02191690831515021790555061322861319d565b73ffffffffffffffffffffffffffffffffffffffff168173ffffffffffffffffffffffffffffffffffffffff16837ff6391f5c32d9c69d2a47ea670b442974b53935d1edc7fd64eb21e047a839171b60405160405180910390a45b5050565b60006132b57f360894a13ba1a3210667c828492db98dca3e2076cc3735a920a3ca505d382bbc60001b613594565b60000160009054906101000a900473ffffffffffffffffffffffffffffffffffffffff16905090565b6000801b6132eb81613189565b5050565b61331b7f4910fdfa16fed3260ed0e7147f7cc6da11a60208b5b9406d12a635614ffd914360001b61359e565b60000160009054906101000a900460ff161561333f5761333a836135a8565b613458565b8273ffffffffffffffffffffffffffffffffffffffff166352d1902d6040518163ffffffff1660e01b8152600401602060405180830381865afa9250505080156133a757506040513d601f19601f820116820180604052508101906133a49190615aa8565b60015b6133e6576040517f08c379a00000000000000000000000000000000000000000000000000000000081526004016133dd90615b47565b60405180910390fd5b7f360894a13ba1a3210667c828492db98dca3e2076cc3735a920a3ca505d382bbc60001b811461344b576040517f08c379a000000000000000000000000000000000000000000000000000000000815260040161344290615bd9565b60405180910390fd5b50613457838383613661565b5b505050565b600260fb54036134a2576040517f08c379a000000000000000000000000000000000000000000000000000000000815260040161349990615c45565b60405180910390fd5b600260fb81905550565b600160fb81905550565b600060019054906101000a900460ff16613505576040517f08c379a00000000000000000000000000000000000000000000000000000000081526004016134fc90615a73565b60405180910390fd5b600160fb81905550565b61351982826127bf565b613590576135268161368d565b6135348360001c60206136ba565b604051602001613545929190615d39565b6040516020818303038152906040526040517f08c379a00000000000000000000000000000000000000000000000000000000081526004016135879190615781565b60405180910390fd5b5050565b6000819050919050565b6000819050919050565b6135b181612f8a565b6135f0576040517f08c379a00000000000000000000000000000000000000000000000000000000081526004016135e790615de5565b60405180910390fd5b8061361d7f360894a13ba1a3210667c828492db98dca3e2076cc3735a920a3ca505d382bbc60001b613594565b60000160006101000a81548173ffffffffffffffffffffffffffffffffffffffff021916908373ffffffffffffffffffffffffffffffffffffffff16021790555050565b61366a836138f6565b6000825111806136775750805b15613688576136868383613945565b505b505050565b60606136b38273ffffffffffffffffffffffffffffffffffffffff16601460ff166136ba565b9050919050565b6060600060028360026136cd9190615e34565b6136d79190615e76565b67ffffffffffffffff8111156136f0576136ef614044565b5b6040519080825280601f01601f1916602001820160405280156137225781602001600182028036833780820191505090505b5090507f30000000000000000000000000000000000000000000000000000000000000008160008151811061375a57613759615eaa565b5b60200101907effffffffffffffffffffffffffffffffffffffffffffffffffffffffffffff1916908160001a9053507f7800000000000000000000000000000000000000000000000000000000000000816001815181106137be576137bd615eaa565b5b60200101907effffffffffffffffffffffffffffffffffffffffffffffffffffffffffffff1916908160001a905350600060018460026137fe9190615e34565b6138089190615e76565b90505b60018111156138a8577f3031323334353637383961626364656600000000000000000000000000000000600f86166010811061384a57613849615eaa565b5b1a60f81b82828151811061386157613860615eaa565b5b60200101907effffffffffffffffffffffffffffffffffffffffffffffffffffffffffffff1916908160001a905350600485901c9450806138a190615ed9565b905061380b565b50600084146138ec576040517f08c379a00000000000000000000000000000000000000000000000000000000081526004016138e390615f4e565b60405180910390fd5b8091505092915050565b6138ff816135a8565b8073ffffffffffffffffffffffffffffffffffffffff167fbc7cd75a20ee27fd9adebab32041f755214dbc6bffa90cc0225b39da2e5c2d3b60405160405180910390a250565b606061396a838360405180606001604052806027815260200161603960279139613972565b905092915050565b60606000808573ffffffffffffffffffffffffffffffffffffffff168560405161399c9190615fb5565b600060405180830381855af49150503d80600081146139d7576040519150601f19603f3d011682016040523d82523d6000602084013e6139dc565b606091505b50915091506139ed868383876139f8565b925050509392505050565b60608315613a5a576000835103613a5257613a1285612f8a565b613a51576040517f08c379a0000000000000000000000000000000000000000000000000000000008152600401613a4890616018565b60405180910390fd5b5b829050613a65565b613a648383613a6d565b5b949350505050565b600082511115613a805781518083602001fd5b806040517f08c379a0000000000000000000000000000000000000000000000000000000008152600401613ab49190615781565b60405180910390fd5b828054828255906000526020600020908101928215613b36579160200282015b82811115613b355782518260006101000a81548173ffffffffffffffffffffffffffffffffffffffff021916908373ffffffffffffffffffffffffffffffffffffffff16021790555091602001919060010190613add565b5b509050613b439190613c73565b5090565b60405180608001604052806000801916815260200160608152602001606081526020016000151581525090565b6040518060e00160405280600073ffffffffffffffffffffffffffffffffffffffff16815260200160608152602001606081526020016060815260200160008019168152602001606081526020016000151581525090565b6040518060e00160405280600073ffffffffffffffffffffffffffffffffffffffff16815260200160608152602001606081526020016060815260200160608152602001600080191681526020016000151581525090565b6040518060c00160405280600073ffffffffffffffffffffffffffffffffffffffff16815260200160608152602001606081526020016000815260200160608152602001600080191681525090565b5b80821115613c8c576000816000905550600101613c74565b5090565b6000604051905090565b600080fd5b600080fd5b60007fffffffff0000000000000000000000000000000000000000000000000000000082169050919050565b613cd981613ca4565b8114613ce457600080fd5b50565b600081359050613cf681613cd0565b92915050565b600060208284031215613d1257613d11613c9a565b5b6000613d2084828501613ce7565b91505092915050565b60008115159050919050565b613d3e81613d29565b82525050565b6000602082019050613d596000830184613d35565b92915050565b600073ffffffffffffffffffffffffffffffffffffffff82169050919050565b6000613d8a82613d5f565b9050919050565b613d9a81613d7f565b8114613da557600080fd5b50565b600081359050613db781613d91565b92915050565b600060208284031215613dd357613dd2613c9a565b5b6000613de184828501613da8565b91505092915050565b613df381613d7f565b82525050565b600081519050919050565b600082825260208201905092915050565b60005b83811015613e33578082015181840152602081019050613e18565b60008484015250505050565b6000601f19601f8301169050919050565b6000613e5b82613df9565b613e658185613e04565b9350613e75818560208601613e15565b613e7e81613e3f565b840191505092915050565b6000819050919050565b613e9c81613e89565b82525050565b6000819050919050565b613eb581613ea2565b82525050565b600060c082019050613ed06000830189613dea565b8181036020830152613ee28188613e50565b90508181036040830152613ef68187613e50565b9050613f056060830186613e93565b8181036080830152613f178185613e50565b9050613f2660a0830184613eac565b979650505050505050565b6000602082019050613f466000830184613e93565b92915050565b613f5581613e89565b8114613f6057600080fd5b50565b600081359050613f7281613f4c565b92915050565b600080600060608486031215613f9157613f90613c9a565b5b6000613f9f86828701613da8565b9350506020613fb086828701613da8565b9250506040613fc186828701613f63565b9150509250925092565b613fd481613ea2565b8114613fdf57600080fd5b50565b600081359050613ff181613fcb565b92915050565b60006020828403121561400d5761400c613c9a565b5b600061401b84828501613fe2565b91505092915050565b60006020820190506140396000830184613eac565b92915050565b600080fd5b7f4e487b7100000000000000000000000000000000000000000000000000000000600052604160045260246000fd5b61407c82613e3f565b810181811067ffffffffffffffff8211171561409b5761409a614044565b5b80604052505050565b60006140ae613c90565b90506140ba8282614073565b919050565b600080fd5b600080fd5b600080fd5b600067ffffffffffffffff8211156140e9576140e8614044565b5b6140f282613e3f565b9050602081019050919050565b82818337600083830152505050565b600061412161411c846140ce565b6140a4565b90508281526020810184848401111561413d5761413c6140c9565b5b6141488482856140ff565b509392505050565b600082601f830112614165576141646140c4565b5b813561417584826020860161410e565b91505092915050565b61418781613d29565b811461419257600080fd5b50565b6000813590506141a48161417e565b92915050565b6000608082840312156141c0576141bf61403f565b5b6141ca60806140a4565b905060006141da84828501613fe2565b600083015250602082013567ffffffffffffffff8111156141fe576141fd6140bf565b5b61420a84828501614150565b602083015250604082013567ffffffffffffffff81111561422e5761422d6140bf565b5b61423a84828501614150565b604083015250606061424e84828501614195565b60608301525092915050565b6000806040838503121561427157614270613c9a565b5b600061427f85828601613da8565b925050602083013567ffffffffffffffff8111156142a05761429f613c9f565b5b6142ac858286016141aa565b9150509250929050565b600080604083850312156142cd576142cc613c9a565b5b60006142db85828601613fe2565b92505060206142ec85828601613da8565b9150509250929050565b600067ffffffffffffffff82111561431157614310614044565b5b602082029050602081019050919050565b600080fd5b600061433a614335846142f6565b6140a4565b9050808382526020820190506020840283018581111561435d5761435c614322565b5b835b8181101561438657806143728882613da8565b84526020840193505060208101905061435f565b5050509392505050565b600082601f8301126143a5576143a46140c4565b5b81356143b5848260208601614327565b91505092915050565b600060e082840312156143d4576143d361403f565b5b6143de60e06140a4565b905060006143ee84828501613da8565b600083015250602082013567ffffffffffffffff811115614412576144116140bf565b5b61441e84828501614150565b602083015250604082013567ffffffffffffffff811115614442576144416140bf565b5b61444e84828501614150565b604083015250606082013567ffffffffffffffff811115614472576144716140bf565b5b61447e84828501614150565b606083015250608061449284828501613fe2565b60808301525060a082013567ffffffffffffffff8111156144b6576144b56140bf565b5b6144c284828501614390565b60a08301525060c06144d684828501614195565b60c08301525092915050565b600080604083850312156144f9576144f8613c9a565b5b600061450785828601613da8565b925050602083013567ffffffffffffffff81111561452857614527613c9f565b5b614534858286016143be565b9150509250929050565b600067ffffffffffffffff82111561455957614558614044565b5b61456282613e3f565b9050602081019050919050565b600061458261457d8461453e565b6140a4565b90508281526020810184848401111561459e5761459d6140c9565b5b6145a98482856140ff565b509392505050565b600082601f8301126145c6576145c56140c4565b5b81356145d684826020860161456f565b91505092915050565b600080604083850312156145f6576145f5613c9a565b5b600061460485828601613da8565b925050602083013567ffffffffffffffff81111561462557614624613c9f565b5b614631858286016145b1565b9150509250929050565b61464481613ea2565b82525050565b600082825260208201905092915050565b600061466682613df9565b614670818561464a565b9350614680818560208601613e15565b61468981613e3f565b840191505092915050565b61469d81613d29565b82525050565b60006080830160008301516146bb600086018261463b565b50602083015184820360208601526146d3828261465b565b915050604083015184820360408601526146ed828261465b565b91505060608301516147026060860182614694565b508091505092915050565b6000602082019050818103600083015261472781846146a3565b905092915050565b61473881613d7f565b82525050565b600081519050919050565b600082825260208201905092915050565b6000819050602082019050919050565b6000614776838361472f565b60208301905092915050565b6000602082019050919050565b600061479a8261473e565b6147a48185614749565b93506147af8361475a565b8060005b838110156147e05781516147c7888261476a565b97506147d283614782565b9250506001810190506147b3565b5085935050505092915050565b600060e083016000830151614805600086018261472f565b506020830151848203602086015261481d828261465b565b91505060408301518482036040860152614837828261465b565b91505060608301518482036060860152614851828261465b565b9150506080830151614866608086018261463b565b5060a083015184820360a086015261487e828261478f565b91505060c083015161489360c0860182614694565b508091505092915050565b600060208201905081810360008301526148b881846147ed565b905092915050565b600060e082840312156148d6576148d561403f565b5b6148e060e06140a4565b905060006148f084828501613da8565b600083015250602082013567ffffffffffffffff811115614914576149136140bf565b5b61492084828501614150565b602083015250604082013567ffffffffffffffff811115614944576149436140bf565b5b61495084828501614150565b604083015250606082013567ffffffffffffffff811115614974576149736140bf565b5b61498084828501614150565b606083015250608082013567ffffffffffffffff8111156149a4576149a36140bf565b5b6149b084828501614150565b60808301525060a06149c484828501613fe2565b60a08301525060c06149d884828501614195565b60c08301525092915050565b6000602082840312156149fa576149f9613c9a565b5b600082013567ffffffffffffffff811115614a1857614a17613c9f565b5b614a24848285016148c0565b91505092915050565b6000608082019050614a426000830187613eac565b8181036020830152614a548186613e50565b90508181036040830152614a688185613e50565b9050614a776060830184613d35565b95945050505050565b600060e082019050614a95600083018a613dea565b8181036020830152614aa78189613e50565b90508181036040830152614abb8188613e50565b90508181036060830152614acf8187613e50565b90508181036080830152614ae38186613e50565b9050614af260a0830185613eac565b614aff60c0830184613d35565b98975050505050505050565b600060e083016000830151614b23600086018261472f565b5060208301518482036020860152614b3b828261465b565b91505060408301518482036040860152614b55828261465b565b91505060608301518482036060860152614b6f828261465b565b91505060808301518482036080860152614b89828261465b565b91505060a0830151614b9e60a086018261463b565b5060c0830151614bb160c0860182614694565b508091505092915050565b60006020820190508181036000830152614bd68184614b0b565b905092915050565b614be781613e89565b82525050565b600060c083016000830151614c05600086018261472f565b5060208301518482036020860152614c1d828261465b565b91505060408301518482036040860152614c37828261465b565b9150506060830151614c4c6060860182614bde565b5060808301518482036080860152614c64828261465b565b91505060a0830151614c7960a086018261463b565b508091505092915050565b60006020820190508181036000830152614c9e8184614bed565b905092915050565b600060208284031215614cbc57614cbb613c9a565b5b6000614cca84828501613f63565b91505092915050565b6000602082019050614ce86000830184613dea565b92915050565b600060c08284031215614d0457614d0361403f565b5b614d0e60c06140a4565b90506000614d1e84828501613da8565b600083015250602082013567ffffffffffffffff811115614d4257614d416140bf565b5b614d4e84828501614150565b602083015250604082013567ffffffffffffffff811115614d7257614d716140bf565b5b614d7e84828501614150565b6040830152506060614d9284828501613f63565b606083015250608082013567ffffffffffffffff811115614db657614db56140bf565b5b614dc284828501614150565b60808301525060a0614dd684828501613fe2565b60a08301525092915050565b60008060408385031215614df957614df8613c9a565b5b6000614e0785828601613da8565b925050602083013567ffffffffffffffff811115614e2857614e27613c9f565b5b614e3485828601614cee565b9150509250929050565b600060c082019050614e536000830189613dea565b8181036020830152614e658188613e50565b90508181036040830152614e798187613e50565b90508181036060830152614e8d8186613e50565b9050614e9c6080830185613eac565b614ea960a0830184613d35565b979650505050505050565b7f4e487b7100000000000000000000000000000000000000000000000000000000600052602260045260246000fd5b60006002820490506001821680614efb57607f821691505b602082108103614f0e57614f0d614eb4565b5b50919050565b7f496e697469616c697a61626c653a20636f6e747261637420697320616c72656160008201527f647920696e697469616c697a6564000000000000000000000000000000000000602082015250565b6000614f70602e83613e04565b9150614f7b82614f14565b604082019050919050565b60006020820190508181036000830152614f9f81614f63565b9050919050565b6000819050919050565b600060ff82169050919050565b6000819050919050565b6000614fe2614fdd614fd884614fa6565b614fbd565b614fb0565b9050919050565b614ff281614fc7565b82525050565b600060208201905061500d6000830184614fe9565b92915050565b60008190508160005260206000209050919050565b60006020601f8301049050919050565b600082821b905092915050565b6000600883026150757fffffffffffffffffffffffffffffffffffffffffffffffffffffffffffffffff82615038565b61507f8683615038565b95508019841693508086168417925050509392505050565b60006150b26150ad6150a884613e89565b614fbd565b613e89565b9050919050565b6000819050919050565b6150cc83615097565b6150e06150d8826150b9565b848454615045565b825550505050565b600090565b6150f56150e8565b6151008184846150c3565b505050565b5b81811015615124576151196000826150ed565b600181019050615106565b5050565b601f8211156151695761513a81615013565b61514384615028565b81016020851015615152578190505b61516661515e85615028565b830182615105565b50505b505050565b600082821c905092915050565b600061518c6000198460080261516e565b1980831691505092915050565b60006151a5838361517b565b9150826002028217905092915050565b6151be82613df9565b67ffffffffffffffff8111156151d7576151d6614044565b5b6151e18254614ee3565b6151ec828285615128565b600060209050601f83116001811461521f576000841561520d578287015190505b6152178582615199565b86555061527f565b601f19841661522d86615013565b60005b8281101561525557848901518255600182019150602085019450602081019050615230565b86831015615272578489015161526e601f89168261517b565b8355505b6001600288020188555050505b505050505050565b7f42454e4546494349415259000000000000000000000000000000000000000000600082015250565b60006152bd600b83613e04565b91506152c882615287565b602082019050919050565b600060408201905081810360008301526152ec816152b0565b905081810360208301526153008184613e50565b905092915050565b7f416363657373436f6e74726f6c3a2063616e206f6e6c792072656e6f756e636560008201527f20726f6c657320666f722073656c660000000000000000000000000000000000602082015250565b6000615364602f83613e04565b915061536f82615308565b604082019050919050565b6000602082019050818103600083015261539381615357565b9050919050565b7f46756e6374696f6e206d7573742062652063616c6c6564207468726f7567682060008201527f64656c656761746563616c6c0000000000000000000000000000000000000000602082015250565b60006153f6602c83613e04565b91506154018261539a565b604082019050919050565b60006020820190508181036000830152615425816153e9565b9050919050565b7f46756e6374696f6e206d7573742062652063616c6c6564207468726f7567682060008201527f6163746976652070726f78790000000000000000000000000000000000000000602082015250565b6000615488602c83613e04565b91506154938261542c565b604082019050919050565b600060208201905081810360008301526154b78161547b565b9050919050565b7f496e76616c69642077616c6c6574000000000000000000000000000000000000600082015250565b60006154f4600e83613e04565b91506154ff826154be565b602082019050919050565b60006020820190508181036000830152615523816154e7565b9050919050565b7f50524f464553534f520000000000000000000000000000000000000000000000600082015250565b6000615560600983613e04565b915061556b8261552a565b602082019050919050565b6000604082019050818103600083015261558f81615553565b905081810360208301526155a38184613e50565b905092915050565b7f4f4e47206e6f7420766572696669656400000000000000000000000000000000600082015250565b60006155e1601083613e04565b91506155ec826155ab565b602082019050919050565b60006020820190508181036000830152615610816155d4565b9050919050565b7f555550535570677261646561626c653a206d757374206e6f742062652063616c60008201527f6c6564207468726f7567682064656c656761746563616c6c0000000000000000602082015250565b6000615673603883613e04565b915061567e82615617565b604082019050919050565b600060208201905081810360008301526156a281615666565b9050919050565b7f496e73756666696369656e742066656500000000000000000000000000000000600082015250565b60006156df601083613e04565b91506156ea826156a9565b602082019050919050565b6000602082019050818103600083015261570e816156d2565b9050919050565b7f4f4e4720616c7265616479207265676973746572656400000000000000000000600082015250565b600061574b601683613e04565b915061575682615715565b602082019050919050565b6000602082019050818103600083015261577a8161573e565b9050919050565b6000602082019050818103600083015261579b8184613e50565b905092915050565b7f496e76616c696420616464726573730000000000000000000000000000000000600082015250565b60006157d9600f83613e04565b91506157e4826157a3565b602082019050919050565b60006020820190508181036000830152615808816157cc565b9050919050565b7f494e564553544f52000000000000000000000000000000000000000000000000600082015250565b6000615845600883613e04565b91506158508261580f565b602082019050919050565b6000604082019050818103600083015261587481615838565b905081810360208301526158888184613e50565b905092915050565b7f416c726561647920766572696669656400000000000000000000000000000000600082015250565b60006158c6601083613e04565b91506158d182615890565b602082019050919050565b600060208201905081810360008301526158f5816158b9565b9050919050565b7f4f4e470000000000000000000000000000000000000000000000000000000000600082015250565b6000615932600383613e04565b915061593d826158fc565b602082019050919050565b6000815461595581614ee3565b61595f8186613e04565b9450600182166000811461597a5760018114615990576159c3565b60ff1983168652811515602002860193506159c3565b61599985615013565b60005b838110156159bb5781548189015260018201915060208101905061599c565b808801955050505b50505092915050565b600060408201905081810360008301526159e581615925565b905081810360208301526159f98184615948565b905092915050565b7f496e697469616c697a61626c653a20636f6e7472616374206973206e6f74206960008201527f6e697469616c697a696e67000000000000000000000000000000000000000000602082015250565b6000615a5d602b83613e04565b9150615a6882615a01565b604082019050919050565b60006020820190508181036000830152615a8c81615a50565b9050919050565b600081519050615aa281613fcb565b92915050565b600060208284031215615abe57615abd613c9a565b5b6000615acc84828501615a93565b91505092915050565b7f45524331393637557067726164653a206e657720696d706c656d656e7461746960008201527f6f6e206973206e6f742055555053000000000000000000000000000000000000602082015250565b6000615b31602e83613e04565b9150615b3c82615ad5565b604082019050919050565b60006020820190508181036000830152615b6081615b24565b9050919050565b7f45524331393637557067726164653a20756e737570706f727465642070726f7860008201527f6961626c65555549440000000000000000000000000000000000000000000000602082015250565b6000615bc3602983613e04565b9150615bce82615b67565b604082019050919050565b60006020820190508181036000830152615bf281615bb6565b9050919050565b7f5265656e7472616e637947756172643a207265656e7472616e742063616c6c00600082015250565b6000615c2f601f83613e04565b9150615c3a82615bf9565b602082019050919050565b60006020820190508181036000830152615c5e81615c22565b9050919050565b600081905092915050565b7f416363657373436f6e74726f6c3a206163636f756e7420000000000000000000600082015250565b6000615ca6601783615c65565b9150615cb182615c70565b601782019050919050565b6000615cc782613df9565b615cd18185615c65565b9350615ce1818560208601613e15565b80840191505092915050565b7f206973206d697373696e6720726f6c6520000000000000000000000000000000600082015250565b6000615d23601183615c65565b9150615d2e82615ced565b601182019050919050565b6000615d4482615c99565b9150615d508285615cbc565b9150615d5b82615d16565b9150615d678284615cbc565b91508190509392505050565b7f455243313936373a206e657720696d706c656d656e746174696f6e206973206e60008201527f6f74206120636f6e747261637400000000000000000000000000000000000000602082015250565b6000615dcf602d83613e04565b9150615dda82615d73565b604082019050919050565b60006020820190508181036000830152615dfe81615dc2565b9050919050565b7f4e487b7100000000000000000000000000000000000000000000000000000000600052601160045260246000fd5b6000615e3f82613e89565b9150615e4a83613e89565b9250828202615e5881613e89565b91508282048414831517615e6f57615e6e615e05565b5b5092915050565b6000615e8182613e89565b9150615e8c83613e89565b9250828201905080821115615ea457615ea3615e05565b5b92915050565b7f4e487b7100000000000000000000000000000000000000000000000000000000600052603260045260246000fd5b6000615ee482613e89565b915060008203615ef757615ef6615e05565b5b600182039050919050565b7f537472696e67733a20686578206c656e67746820696e73756666696369656e74600082015250565b6000615f38602083613e04565b9150615f4382615f02565b602082019050919050565b60006020820190508181036000830152615f6781615f2b565b9050919050565b600081519050919050565b600081905092915050565b6000615f8f82615f6e565b615f998185615f79565b9350615fa9818560208601613e15565b80840191505092915050565b6000615fc18284615f84565b915081905092915050565b7f416464726573733a2063616c6c20746f206e6f6e2d636f6e7472616374000000600082015250565b6000616002601d83613e04565b915061600d82615fcc565b602082019050919050565b6000602082019050818103600083015261603181615ff5565b905091905056fe416464726573733a206c6f772d6c6576656c2064656c65676174652063616c6c206661696c6564a26469706673582212207d1233e6fbbd774b080abaddbdca5931609cbc554d2919d1ed686ddf3365406564736f6c634300081c0033",
  "linkReferences": {},
  "deployedLinkReferences": {}
}