{
  "_format": "hh-sol-artifact-1",
  "contractName": "KEYRegistry",
  "sourceName": "contracts/KEYRegistry.sol",
  "abi": [
    {
      "anonymous": false,
      "inputs": [
        {
          "indexed": false,
          "internalType": "address",
          "name": "previousAdmin",
          "type": "address"
        },
        {
          "indexed": false,
          "internalType": "address",
          "name": "newAdmin",
          "type": "address"
        }
      ],
      "name": "AdminChanged",
      "type": "event"
    },
    {
      "anonymous": false,
      "inputs": [
        {
          "indexed": true,
          "internalType": "bytes32",
          "name": "packageHash",
          "type": "bytes32"
        },
        {
          "indexed": false,
          "internalType": "bytes32",
          "name": "auditHash",
          "type": "bytes32"
        },
        {
          "indexed": false,
          "internalType": "uint256",
          "name": "timestamp",
          "type": "uint256"
        }
      ],
      "name": "AuditEmitted",
      "type": "event"
    },
    {
      "anonymous": false,
      "inputs": [
        {
          "indexed": true,
          "internalType": "address",
          "name": "beacon",
          "type": "address"
        }
      ],
      "name": "BeaconUpgraded",
      "type": "event"
    },
    {
      "anonymous": false,
      "inputs": [
        {
          "indexed": true,
          "internalType": "address",
          "name": "beneficiary",
          "type": "address"
        },
        {
          "indexed": true,
          "internalType": "bytes32",
          "name": "packageHash",
          "type": "bytes32"
        }
      ],
      "name": "CertificateIssued",
      "type": "event"
    },
    {
      "anonymous": false,
      "inputs": [
        {
          "indexed": true,
          "internalType": "bytes32",
          "name": "packageHash",
          "type": "bytes32"
        },
        {
          "indexed": true,
          "internalType": "address",
          "name": "technician",
          "type": "address"
        },
        {
          "indexed": false,
          "internalType": "uint256",
          "name": "timestamp",
          "type": "uint256"
        }
      ],
      "name": "EvidenceRegistered",
      "type": "event"
    },
    {
      "anonymous": false,
      "inputs": [
        {
          "indexed": true,
          "internalType": "bytes32",
          "name": "packageHash",
          "type": "bytes32"
        },
        {
          "indexed": false,
          "internalType": "bool",
          "name": "isValid",
          "type": "bool"
        },
        {
          "indexed": true,
          "internalType": "address",
          "name": "verifier",
          "type": "address"
        }
      ],
      "name": "EvidenceVerified",
      "type": "event"
    },
    {
      "anonymous": false,
      "inputs": [
        {
          "indexed": false,
          "internalType": "uint8",
          "name": "version",
          "type": "uint8"
        }
      ],
      "name": "Initialized",
      "type": "event"
    },
    {
      "anonymous": false,
      "inputs": [
        {
          "indexed": true,
          "internalType": "bytes32",
          "name": "role",
          "type": "bytes32"
        },
        {
          "indexed": true,
          "internalType": "bytes32",
          "name": "previousAdminRole",
          "type": "bytes32"
        },
        {
          "indexed": true,
          "internalType": "bytes32",
          "name": "newAdminRole",
          "type": "bytes32"
        }
      ],
      "name": "RoleAdminChanged",
      "type": "event"
    },
    {
      "anonymous": false,
      "inputs": [
        {
          "indexed": true,
          "internalType": "bytes32",
          "name": "role",
          "type": "bytes32"
        },
        {
          "indexed": true,
          "internalType": "address",
          "name": "account",
          "type": "address"
        },
        {
          "indexed": true,
          "internalType": "address",
          "name": "sender",
          "type": "address"
        }
      ],
      "name": "RoleGranted",
      "type": "event"
    },
    {
      "anonymous": false,
      "inputs": [
        {
          "indexed": true,
          "internalType": "bytes32",
          "name": "role",
          "type": "bytes32"
        },
        {
          "indexed": true,
          "internalType": "address",
          "name": "account",
          "type": "address"
        },
        {
          "indexed": true,
          "internalType": "address",
          "name": "sender",
          "type": "address"
        }
      ],
      "name": "RoleRevoked",
      "type": "event"
    },
    {
      "anonymous": false,
      "inputs": [
        {
          "indexed": true,
          "internalType": "address",
          "name": "implementation",
          "type": "address"
        }
      ],
      "name": "Upgraded",
      "type": "event"
    },
    {
      "inputs": [],
      "name": "ADMIN_ROLE",
      "outputs": [
        {
          "internalType": "bytes32",
          "name": "",
          "type": "bytes32"
        }
      ],
      "stateMutability": "view",
      "type": "function"
    },
    {
      "inputs": [],
      "name": "DEFAULT_ADMIN_ROLE",
      "outputs": [
        {
          "internalType": "bytes32",
          "name": "",
          "type": "bytes32"
        }
      ],
      "stateMutability": "view",
      "type": "function"
    },
    {
      "inputs": [],
      "name": "ONG_ROLE",
      "outputs": [
        {
          "internalType": "bytes32",
          "name": "",
          "type": "bytes32"
        }
      ],
      "stateMutability": "view",
      "type": "function"
    },
    {
      "inputs": [],
      "name": "PROFESSOR_ROLE",
      "outputs": [
        {
          "internalType": "bytes32",
          "name": "",
          "type": "bytes32"
        }
      ],
      "stateMutability": "view",
      "type": "function"
    },
    {
      "inputs": [
        {
          "internalType": "bytes32",
          "name": "",
          "type": "bytes32"
        },
        {
          "internalType": "uint256",
          "name": "",
          "type": "uint256"
        }
      ],
      "name": "audits",
      "outputs": [
        {
          "internalType": "bytes32",
          "name": "packageHash",
          "type": "bytes32"
        },
        {
          "internalType": "bytes32",
          "name": "auditHash",
          "type": "bytes32"
        },
        {
          "internalType": "enum LibraryStructs.AuditStatus",
          "name": "status",
          "type": "uint8"
        },
        {
          "internalType": "uint256",
          "name": "timestamp",
          "type": "uint256"
        },
        {
          "internalType": "string",
          "name": "comments",
          "type": "string"
        }
      ],
      "stateMutability": "view",
      "type": "function"
    },
    {
      "inputs": [],
      "name": "certificateSBT",
      "outputs": [
        {
          "internalType": "address",
          "name": "",
          "type": "address"
        }
      ],
      "stateMutability": "view",
      "type": "function"
    },
    {
      "inputs": [
        {
          "internalType": "bytes32",
          "name": "packageHash",
          "type": "bytes32"
        },
        {
          "internalType": "bytes32",
          "name": "auditHash",
          "type": "bytes32"
        }
      ],
      "name": "emitAudit",
      "outputs": [],
      "stateMutability": "nonpayable",
      "type": "function"
    },
    {
      "inputs": [
        {
          "internalType": "address",
          "name": "beneficiary",
          "type": "address"
        },
        {
          "internalType": "bytes32",
          "name": "packageHash",
          "type": "bytes32"
        }
      ],
      "name": "emitCertificate",
      "outputs": [],
      "stateMutability": "nonpayable",
      "type": "function"
    },
    {
      "inputs": [
        {
          "internalType": "bytes32",
          "name": "",
          "type": "bytes32"
        }
      ],
      "name": "evidences",
      "outputs": [
        {
          "internalType": "bytes32",
          "name": "sessionId",
          "type": "bytes32"
        },
        {
          "internalType": "address",
          "name": "technician",
          "type": "address"
        },
        {
          "internalType": "uint256",
          "name": "timestamp",
          "type": "uint256"
        },
        {
          "components": [
            {
              "internalType": "int256",
              "name": "lat",
              "type": "int256"
            },
            {
              "internalType": "int256",
              "name": "lng",
              "type": "int256"
            },
            {
              "internalType": "uint256",
              "name": "accuracy",
              "type": "uint256"
            }
          ],
          "internalType": "struct LibraryStructs.GeoLocation",
          "name": "geo",
          "type": "tuple"
        },
        {
          "internalType": "bytes32",
          "name": "biometricHash",
          "type": "bytes32"
        },
        {
          "components": [
            {
              "internalType": "string",
              "name": "model",
              "type": "string"
            },
            {
              "internalType": "string",
              "name": "appVersion",
              "type": "string"
            }
          ],
          "internalType": "struct LibraryStructs.DeviceInfo",
          "name": "deviceInfo",
          "type": "tuple"
        },
        {
          "internalType": "bytes32",
          "name": "packageHash",
          "type": "bytes32"
        },
        {
          "internalType": "enum LibraryStructs.EvidenceStatus",
          "name": "status",
          "type": "uint8"
        }
      ],
      "stateMutability": "view",
      "type": "function"
    },
    {
      "inputs": [
        {
          "internalType": "bytes32",
          "name": "role",
          "type": "bytes32"
        }
      ],
      "name": "getRoleAdmin",
      "outputs": [
        {
          "internalType": "bytes32",
          "name": "",
          "type": "bytes32"
        }
      ],
      "stateMutability": "view",
      "type": "function"
    },
    {
      "inputs": [
        {
          "internalType": "bytes32",
          "name": "role",
          "type": "bytes32"
        },
        {
          "internalType": "address",
          "name": "account",
          "type": "address"
        }
      ],
      "name": "grantRole",
      "outputs": [],
      "stateMutability": "nonpayable",
      "type": "function"
    },
    {
      "inputs": [
        {
          "internalType": "bytes32",
          "name": "role",
          "type": "bytes32"
        },
        {
          "internalType": "address",
          "name": "account",
          "type": "address"
        }
      ],
      "name": "hasRole",
      "outputs": [
        {
          "internalType": "bool",
          "name": "",
          "type": "bool"
        }
      ],
      "stateMutability": "view",
      "type": "function"
    },
    {
      "inputs": [],
      "name": "identityRegistry",
      "outputs": [
        {
          "internalType": "contract IdentityRegistry",
          "name": "",
          "type": "address"
        }
      ],
      "stateMutability": "view",
      "type": "function"
    },
    {
      "inputs": [
        {
          "internalType": "address",
          "name": "_admin",
          "type": "address"
        },
        {
          "internalType": "address payable",
          "name": "_identityRegistry",
          "type": "address"
        },
        {
          "internalType": "address",
          "name": "_projectRegistry",
          "type": "address"
        }
      ],
      "name": "initialize",
      "outputs": [],
      "stateMutability": "nonpayable",
      "type": "function"
    },
    {
      "inputs": [],
      "name": "phalaTEE",
      "outputs": [
        {
          "internalType": "address",
          "name": "",
          "type": "address"
        }
      ],
      "stateMutability": "view",
      "type": "function"
    },
    {
      "inputs": [],
      "name": "projectRegistry",
      "outputs": [
        {
          "internalType": "contract ProjectRegistry",
          "name": "",
          "type": "address"
        }
      ],
      "stateMutability": "view",
      "type": "function"
    },
    {
      "inputs": [],
      "name": "proxiableUUID",
      "outputs": [
        {
          "internalType": "bytes32",
          "name": "",
          "type": "bytes32"
        }
      ],
      "stateMutability": "view",
      "type": "function"
    },
    {
      "inputs": [
        {
          "internalType": "uint256",
          "name": "activityId",
          "type": "uint256"
        },
        {
          "components": [
            {
              "internalType": "bytes32",
              "name": "sessionId",
              "type": "bytes32"
            },
            {
              "internalType": "address",
              "name": "technician",
              "type": "address"
            },
            {
              "internalType": "uint256",
              "name": "timestamp",
              "type": "uint256"
            },
            {
              "components": [
                {
                  "internalType": "int256",
                  "name": "lat",
                  "type": "int256"
                },
                {
                  "internalType": "int256",
                  "name": "lng",
                  "type": "int256"
                },
                {
                  "internalType": "uint256",
                  "name": "accuracy",
                  "type": "uint256"
                }
              ],
              "internalType": "struct LibraryStructs.GeoLocation",
              "name": "geo",
              "type": "tuple"
            },
            {
              "internalType": "string[]",
              "name": "photoURIs",
              "type": "string[]"
            },
            {
              "internalType": "string[]",
              "name": "audioURIs",
              "type": "string[]"
            },
            {
              "internalType": "bytes32",
              "name": "biometricHash",
              "type": "bytes32"
            },
            {
              "internalType": "bytes32[]",
              "name": "beneficiaries",
              "type": "bytes32[]"
            },
            {
              "components": [
                {
                  "internalType": "string",
                  "name": "model",
                  "type": "string"
                },
                {
                  "internalType": "string",
                  "name": "appVersion",
                  "type": "string"
                }
              ],
              "internalType": "struct LibraryStructs.DeviceInfo",
              "name": "deviceInfo",
              "type": "tuple"
            },
            {
              "internalType": "bytes32",
              "name": "packageHash",
              "type": "bytes32"
            },
            {
              "internalType": "enum LibraryStructs.EvidenceStatus",
              "name": "status",
              "type": "uint8"
            }
          ],
          "internalType": "struct LibraryStructs.EvidencePackage",
          "name": "data",
          "type": "tuple"
        }
      ],
      "name": "registerEvidence",
      "outputs": [],
      "stateMutability": "nonpayable",
      "type": "function"
    },
    {
      "inputs": [
        {
          "internalType": "bytes32",
          "name": "role",
          "type": "bytes32"
        },
        {
          "internalType": "address",
          "name": "account",
          "type": "address"
        }
      ],
      "name": "renounceRole",
      "outputs": [],
      "stateMutability": "nonpayable",
      "type": "function"
    },
    {
      "inputs": [
        {
          "internalType": "bytes32",
          "name": "role",
          "type": "bytes32"
        },
        {
          "internalType": "address",
          "name": "account",
          "type": "address"
        }
      ],
      "name": "revokeRole",
      "outputs": [],
      "stateMutability": "nonpayable",
      "type": "function"
    },
    {
      "inputs": [
        {
          "internalType": "address",
          "name": "_sbt",
          "type": "address"
        }
      ],
      "name": "setCertificateSBT",
      "outputs": [],
      "stateMutability": "nonpayable",
      "type": "function"
    },
    {
      "inputs": [
        {
          "internalType": "address",
          "name": "_phalaTEE",
          "type": "address"
        }
      ],
      "name": "setPhalaTEE",
      "outputs": [],
      "stateMutability": "nonpayable",
      "type": "function"
    },
    {
      "inputs": [
        {
          "internalType": "bytes4",
          "name": "interfaceId",
          "type": "bytes4"
        }
      ],
      "name": "supportsInterface",
      "outputs": [
        {
          "internalType": "bool",
          "name": "",
          "type": "bool"
        }
      ],
      "stateMutability": "view",
      "type": "function"
    },
    {
      "inputs": [
        {
          "internalType": "address",
          "name": "newImplementation",
          "type": "address"
        }
      ],
      "name": "upgradeTo",
      "outputs": [],
      "stateMutability": "nonpayable",
      "type": "function"
    },
    {
      "inputs": [
        {
          "internalType": "address",
          "name": "newImplementation",
          "type": "address"
        },
        {
          "internalType": "bytes",
          "name": "data",
          "type": "bytes"
        }
      ],
      "name": "upgradeToAndCall",
      "outputs": [],
      "stateMutability": "payable",
      "type": "function"
    },
    {
      "inputs": [
        {
          "internalType": "bytes32",
          "name": "packageHash",
          "type": "bytes32"
        },
        {
          "internalType": "bool",
          "name": "isValid",
          "type": "bool"
        }
      ],
      "name": "verifyEvidence",
      "outputs": [],
      "stateMutability": "nonpayable",
      "type": "function"
    }
  ],
  "bytecode": "60a06040523073ffffffffffffffffffffffffffffffffffffffff1660809073ffffffffffffffffffffffffffffffffffffffff1681525034801561004357600080fd5b506080516148d361007b60003960008181610e5401528181610ee20152818161116c015281816111fa01526112aa01526148d36000f3fe6080604052600436106101815760003560e01c806390f605a9116100d1578063c0c53b8b1161008a578063cf8c5a5b11610064578063cf8c5a5b14610563578063d547741f1461058e578063d84c09de146105b7578063ec5f724e146105fb57610181565b8063c0c53b8b146104e4578063c81cf7711461050d578063ce4088561461053857610181565b806390f605a9146103d657806391d14854146103ff578063a217fddf1461043c578063a311968c14610467578063befec81e14610490578063c078c030146104b957610181565b806336568abe1161013e5780634f1ef286116101185780634f1ef2861461033957806352d1902d146103555780635a33d8dc1461038057806375b238fc146103ab57610181565b806336568abe146102be5780633659cfe6146102e757806345b4fb551461031057610181565b806301ffc9a714610186578063075b143e146101c357806310b1141b14610204578063134e18f41461022d578063248a9ca3146102585780632f2ff15d14610295575b600080fd5b34801561019257600080fd5b506101ad60048036038101906101a89190612a48565b610624565b6040516101ba9190612a90565b60405180910390f35b3480156101cf57600080fd5b506101ea60048036038101906101e59190612b17565b61069e565b6040516101fb959493929190612c7c565b60405180910390f35b34801561021057600080fd5b5061022b60048036038101906102269190612cfb565b610787565b005b34801561023957600080fd5b50610242610d67565b60405161024f9190612dd6565b60405180910390f35b34801561026457600080fd5b5061027f600480360381019061027a9190612df1565b610d8e565b60405161028c9190612e1e565b60405180910390f35b3480156102a157600080fd5b506102bc60048036038101906102b79190612e77565b610dae565b005b3480156102ca57600080fd5b506102e560048036038101906102e09190612e77565b610dcf565b005b3480156102f357600080fd5b5061030e60048036038101906103099190612eb7565b610e52565b005b34801561031c57600080fd5b5061033760048036038101906103329190612ee4565b610fda565b005b610353600480360381019061034e9190613059565b61116a565b005b34801561036157600080fd5b5061036a6112a6565b6040516103779190612e1e565b60405180910390f35b34801561038c57600080fd5b5061039561135f565b6040516103a291906130e8565b60405180910390f35b3480156103b757600080fd5b506103c0611386565b6040516103cd9190612e1e565b60405180910390f35b3480156103e257600080fd5b506103fd60048036038101906103f8919061312f565b6113aa565b005b34801561040b57600080fd5b5061042660048036038101906104219190612e77565b6114c2565b6040516104339190612a90565b60405180910390f35b34801561044857600080fd5b5061045161152d565b60405161045e9190612e1e565b60405180910390f35b34801561047357600080fd5b5061048e60048036038101906104899190612eb7565b611534565b005b34801561049c57600080fd5b506104b760048036038101906104b29190612eb7565b6115a4565b005b3480156104c557600080fd5b506104ce611614565b6040516104db919061317e565b60405180910390f35b3480156104f057600080fd5b5061050b600480360381019061050691906131d7565b61163b565b005b34801561051957600080fd5b50610522611847565b60405161052f9190612e1e565b60405180910390f35b34801561054457600080fd5b5061054d61186b565b60405161055a9190612e1e565b60405180910390f35b34801561056f57600080fd5b5061057861188f565b604051610585919061317e565b60405180910390f35b34801561059a57600080fd5b506105b560048036038101906105b09190612e77565b6118b6565b005b3480156105c357600080fd5b506105de60048036038101906105d99190612df1565b6118d7565b6040516105f298979695949392919061336a565b60405180910390f35b34801561060757600080fd5b50610622600480360381019061061d91906133f1565b611aa3565b005b60007f7965db0b000000000000000000000000000000000000000000000000000000007bffffffffffffffffffffffffffffffffffffffffffffffffffffffff1916827bffffffffffffffffffffffffffffffffffffffffffffffffffffffff19161480610697575061069682611cde565b5b9050919050565b61013260205281600052604060002081815481106106bb57600080fd5b9060005260206000209060050201600091509150508060000154908060010154908060020160009054906101000a900460ff169080600301549080600401805461070490613460565b80601f016020809104026020016040519081016040528092919081815260200182805461073090613460565b801561077d5780601f106107525761010080835404028352916020019161077d565b820191906000526020600020905b81548152906001019060200180831161076057829003601f168201915b5050505050905085565b61078f611d48565b61012d60009054906101000a900473ffffffffffffffffffffffffffffffffffffffff1673ffffffffffffffffffffffffffffffffffffffff166391d148547f577f08e4a510a24c05fb531f78cace5d373d442eb2ba1e22f5bcf2bf4248c21e336040518363ffffffff1660e01b815260040161080d929190613491565b602060405180830381865afa15801561082a573d6000803e3d6000fd5b505050506040513d601f19601f8201168201806040525081019061084e91906134cf565b61088d576040517f08c379a000000000000000000000000000000000000000000000000000000000815260040161088490613548565b60405180910390fd5b60006101316000836101600135815260200190815260200160002060020154146108ec576040517f08c379a00000000000000000000000000000000000000000000000000000000081526004016108e3906135b4565b60405180910390fd5b600061012e60009054906101000a900473ffffffffffffffffffffffffffffffffffffffff1673ffffffffffffffffffffffffffffffffffffffff1663a64f4c5b846040518263ffffffff1660e01b815260040161094a91906135d4565b602060405180830381865afa158015610967573d6000803e3d6000fd5b505050506040513d601f19601f8201168201806040525081019061098b9190613604565b036109cb576040517f08c379a00000000000000000000000000000000000000000000000000000000081526004016109c29061367d565b60405180910390fd5b604051806101600160405280826000013581526020013373ffffffffffffffffffffffffffffffffffffffff16815260200142815260200182606001803603810190610a179190613737565b8152602001828060c00190610a2c9190613773565b90610a37919061392f565b8152602001828060e00190610a4c9190613773565b90610a57919061392f565b8152602001826101000135815260200182806101200190610a789190613944565b80806020026020016040519081016040528093929190818152602001838360200280828437600081840152601f19601f82011690508083019250505050505050815260200182806101400190610ace91906139a7565b610ad790613a57565b8152602001826101600135815260200160006002811115610afb57610afa612b66565b5b815250610131600083610160013581526020019081526020016000206000820151816000015560208201518160010160006101000a81548173ffffffffffffffffffffffffffffffffffffffff021916908373ffffffffffffffffffffffffffffffffffffffff1602179055506040820151816002015560608201518160030160008201518160000155602082015181600101556040820151816002015550506080820151816006019080519060200190610bb7929190612898565b5060a0820151816007019080519060200190610bd4929190612898565b5060c0820151816008015560e0820151816009019080519060200190610bfb9291906128f1565b5061010082015181600a016000820151816000019081610c1b9190613c0c565b506020820151816001019081610c319190613c0c565b50505061012082015181600c015561014082015181600d0160006101000a81548160ff02191690836002811115610c6b57610c6a612b66565b5b02179055509050503373ffffffffffffffffffffffffffffffffffffffff168161016001357f337fc47fbfe9fc84bce60eacdbcc1e1b6a631ebfbb36cc457e12fb6622739f8c42604051610cbf91906135d4565b60405180910390a361012e60009054906101000a900473ffffffffffffffffffffffffffffffffffffffff1673ffffffffffffffffffffffffffffffffffffffff1662321314838361016001356040518363ffffffff1660e01b8152600401610d29929190613cde565b600060405180830381600087803b158015610d4357600080fd5b505af1158015610d57573d6000803e3d6000fd5b50505050610d63611d97565b5050565b61012d60009054906101000a900473ffffffffffffffffffffffffffffffffffffffff1681565b600060656000838152602001908152602001600020600101549050919050565b610db782610d8e565b610dc081611da1565b610dca8383611db5565b505050565b610dd7611e96565b73ffffffffffffffffffffffffffffffffffffffff168173ffffffffffffffffffffffffffffffffffffffff1614610e44576040517f08c379a0000000000000000000000000000000000000000000000000000000008152600401610e3b90613d79565b60405180910390fd5b610e4e8282611e9e565b5050565b7f000000000000000000000000000000000000000000000000000000000000000073ffffffffffffffffffffffffffffffffffffffff163073ffffffffffffffffffffffffffffffffffffffff1603610ee0576040517f08c379a0000000000000000000000000000000000000000000000000000000008152600401610ed790613e0b565b60405180910390fd5b7f000000000000000000000000000000000000000000000000000000000000000073ffffffffffffffffffffffffffffffffffffffff16610f1f611f80565b73ffffffffffffffffffffffffffffffffffffffff1614610f75576040517f08c379a0000000000000000000000000000000000000000000000000000000008152600401610f6c90613e9d565b60405180910390fd5b610f7e81611fd7565b610fd781600067ffffffffffffffff811115610f9d57610f9c612f2e565b5b6040519080825280601f01601f191660200182016040528015610fcf5781602001600182028036833780820191505090505b506000612005565b50565b7f2189908c03208535424461134ce147b8dd501756c63026817156a7ca871326b061100481611da1565b6001600281111561101857611017612b66565b5b6101316000848152602001908152602001600020600d0160009054906101000a900460ff16600281111561104f5761104e612b66565b5b1461108f576040517f08c379a000000000000000000000000000000000000000000000000000000000815260040161108690613f09565b60405180910390fd5b600073ffffffffffffffffffffffffffffffffffffffff1661012f60009054906101000a900473ffffffffffffffffffffffffffffffffffffffff1673ffffffffffffffffffffffffffffffffffffffff1603611121576040517f08c379a000000000000000000000000000000000000000000000000000000000815260040161111890613f75565b60405180910390fd5b818373ffffffffffffffffffffffffffffffffffffffff167f18d583ccb15ddd89232eb4967084260a5d7f1ed6cc710d20c23b7513ae4b052760405160405180910390a3505050565b7f000000000000000000000000000000000000000000000000000000000000000073ffffffffffffffffffffffffffffffffffffffff163073ffffffffffffffffffffffffffffffffffffffff16036111f8576040517f08c379a00000000000000000000000000000000000000000000000000000000081526004016111ef90613e0b565b60405180910390fd5b7f000000000000000000000000000000000000000000000000000000000000000073ffffffffffffffffffffffffffffffffffffffff16611237611f80565b73ffffffffffffffffffffffffffffffffffffffff161461128d576040517f08c379a000000000000000000000000000000000000000000000000000000000815260040161128490613e9d565b60405180910390fd5b61129682611fd7565b6112a282826001612005565b5050565b60007f000000000000000000000000000000000000000000000000000000000000000073ffffffffffffffffffffffffffffffffffffffff163073ffffffffffffffffffffffffffffffffffffffff1614611336576040517f08c379a000000000000000000000000000000000000000000000000000000000815260040161132d90614007565b60405180910390fd5b7f360894a13ba1a3210667c828492db98dca3e2076cc3735a920a3ca505d382bbc60001b905090565b61012e60009054906101000a900473ffffffffffffffffffffffffffffffffffffffff1681565b7fa49807205ce4d355092ef5a8a18f56e8913cf4a201fbe287825b095693c2177581565b7f2189908c03208535424461134ce147b8dd501756c63026817156a7ca871326b06113d481611da1565b6000610131600085815260200190815260200160002090506000816002015403611433576040517f08c379a000000000000000000000000000000000000000000000000000000000815260040161142a90614073565b60405180910390fd5b8261143f576002611442565b60015b81600d0160006101000a81548160ff0219169083600281111561146857611467612b66565b5b02179055503373ffffffffffffffffffffffffffffffffffffffff16847f5807bddc6847a36228e65bf1ef1740a4c7f6438873e03915d03b5df9e1890d52856040516114b49190612a90565b60405180910390a350505050565b60006065600084815260200190815260200160002060000160008373ffffffffffffffffffffffffffffffffffffffff1673ffffffffffffffffffffffffffffffffffffffff16815260200190815260200160002060009054906101000a900460ff16905092915050565b6000801b81565b7fa49807205ce4d355092ef5a8a18f56e8913cf4a201fbe287825b095693c2177561155e81611da1565b8161012f60006101000a81548173ffffffffffffffffffffffffffffffffffffffff021916908373ffffffffffffffffffffffffffffffffffffffff1602179055505050565b7fa49807205ce4d355092ef5a8a18f56e8913cf4a201fbe287825b095693c217756115ce81611da1565b8161013060006101000a81548173ffffffffffffffffffffffffffffffffffffffff021916908373ffffffffffffffffffffffffffffffffffffffff1602179055505050565b61012f60009054906101000a900473ffffffffffffffffffffffffffffffffffffffff1681565b60008060019054906101000a900460ff1615905080801561166c5750600160008054906101000a900460ff1660ff16105b80611699575061167b30612173565b1580156116985750600160008054906101000a900460ff1660ff16145b5b6116d8576040517f08c379a00000000000000000000000000000000000000000000000000000000081526004016116cf90614105565b60405180910390fd5b60016000806101000a81548160ff021916908360ff1602179055508015611715576001600060016101000a81548160ff0219169083151502179055505b61171d612196565b6117256121e7565b61172d612238565b61173a6000801b85611db5565b6117647fa49807205ce4d355092ef5a8a18f56e8913cf4a201fbe287825b095693c2177585611db5565b8261012d60006101000a81548173ffffffffffffffffffffffffffffffffffffffff021916908373ffffffffffffffffffffffffffffffffffffffff1602179055508161012e60006101000a81548173ffffffffffffffffffffffffffffffffffffffff021916908373ffffffffffffffffffffffffffffffffffffffff16021790555080156118415760008060016101000a81548160ff0219169083151502179055507f7f26b83ff96e1f2b6a682f133852f6798a09c465da95921460cefb38474024986001604051611838919061416d565b60405180910390a15b50505050565b7f577f08e4a510a24c05fb531f78cace5d373d442eb2ba1e22f5bcf2bf4248c21e81565b7f2189908c03208535424461134ce147b8dd501756c63026817156a7ca871326b081565b61013060009054906101000a900473ffffffffffffffffffffffffffffffffffffffff1681565b6118bf82610d8e565b6118c881611da1565b6118d28383611e9e565b505050565b6101316020528060005260406000206000915090508060000154908060010160009054906101000a900473ffffffffffffffffffffffffffffffffffffffff16908060020154908060030160405180606001604052908160008201548152602001600182015481526020016002820154815250509080600801549080600a0160405180604001604052908160008201805461197190613460565b80601f016020809104026020016040519081016040528092919081815260200182805461199d90613460565b80156119ea5780601f106119bf576101008083540402835291602001916119ea565b820191906000526020600020905b8154815290600101906020018083116119cd57829003601f168201915b50505050508152602001600182018054611a0390613460565b80601f0160208091040260200160405190810160405280929190818152602001828054611a2f90613460565b8015611a7c5780601f10611a5157610100808354040283529160200191611a7c565b820191906000526020600020905b815481529060010190602001808311611a5f57829003601f168201915b5050505050815250509080600c01549080600d0160009054906101000a900460ff16905088565b61013060009054906101000a900473ffffffffffffffffffffffffffffffffffffffff1673ffffffffffffffffffffffffffffffffffffffff163373ffffffffffffffffffffffffffffffffffffffff1614611b34576040517f08c379a0000000000000000000000000000000000000000000000000000000008152600401611b2b906141d4565b60405180910390fd5b600061013160008481526020019081526020016000206002015403611b8e576040517f08c379a0000000000000000000000000000000000000000000000000000000008152600401611b8590614073565b60405180910390fd5b61013260008381526020019081526020016000206040518060a0016040528084815260200183815260200160026003811115611bcd57611bcc612b66565b5b81526020014281526020016040518060400160405280601581526020017f56616c696461746564206279205068616c6154454500000000000000000000008152508152509080600181540180825580915050600190039060005260206000209060050201600090919091909150600082015181600001556020820151816001015560408201518160020160006101000a81548160ff02191690836003811115611c7957611c78612b66565b5b0217905550606082015181600301556080820151816004019081611c9d9190613c0c565b505050817f9923ad8a3dc903a0cc252f913ba09de6780901f963d2d605609fd93e33eef8458242604051611cd29291906141f4565b60405180910390a25050565b60007f01ffc9a7000000000000000000000000000000000000000000000000000000007bffffffffffffffffffffffffffffffffffffffffffffffffffffffff1916827bffffffffffffffffffffffffffffffffffffffffffffffffffffffff1916149050919050565b600260fb5403611d8d576040517f08c379a0000000000000000000000000000000000000000000000000000000008152600401611d8490614269565b60405180910390fd5b600260fb81905550565b600160fb81905550565b611db281611dad611e96565b612291565b50565b611dbf82826114c2565b611e925760016065600084815260200190815260200160002060000160008373ffffffffffffffffffffffffffffffffffffffff1673ffffffffffffffffffffffffffffffffffffffff16815260200190815260200160002060006101000a81548160ff021916908315150217905550611e37611e96565b73ffffffffffffffffffffffffffffffffffffffff168173ffffffffffffffffffffffffffffffffffffffff16837f2f8788117e7eff1d82e926ec794901d17c78024a50270940304540a733656f0d60405160405180910390a45b5050565b600033905090565b611ea882826114c2565b15611f7c5760006065600084815260200190815260200160002060000160008373ffffffffffffffffffffffffffffffffffffffff1673ffffffffffffffffffffffffffffffffffffffff16815260200190815260200160002060006101000a81548160ff021916908315150217905550611f21611e96565b73ffffffffffffffffffffffffffffffffffffffff168173ffffffffffffffffffffffffffffffffffffffff16837ff6391f5c32d9c69d2a47ea670b442974b53935d1edc7fd64eb21e047a839171b60405160405180910390a45b5050565b6000611fae7f360894a13ba1a3210667c828492db98dca3e2076cc3735a920a3ca505d382bbc60001b612316565b60000160009054906101000a900473ffffffffffffffffffffffffffffffffffffffff16905090565b7fa49807205ce4d355092ef5a8a18f56e8913cf4a201fbe287825b095693c2177561200181611da1565b5050565b6120317f4910fdfa16fed3260ed0e7147f7cc6da11a60208b5b9406d12a635614ffd914360001b612320565b60000160009054906101000a900460ff1615612055576120508361232a565b61216e565b8273ffffffffffffffffffffffffffffffffffffffff166352d1902d6040518163ffffffff1660e01b8152600401602060405180830381865afa9250505080156120bd57506040513d601f19601f820116820180604052508101906120ba919061429e565b60015b6120fc576040517f08c379a00000000000000000000000000000000000000000000000000000000081526004016120f39061433d565b60405180910390fd5b7f360894a13ba1a3210667c828492db98dca3e2076cc3735a920a3ca505d382bbc60001b8114612161576040517f08c379a0000000000000000000000000000000000000000000000000000000008152600401612158906143cf565b60405180910390fd5b5061216d8383836123e3565b5b505050565b6000808273ffffffffffffffffffffffffffffffffffffffff163b119050919050565b600060019054906101000a900460ff166121e5576040517f08c379a00000000000000000000000000000000000000000000000000000000081526004016121dc90614461565b60405180910390fd5b565b600060019054906101000a900460ff16612236576040517f08c379a000000000000000000000000000000000000000000000000000000000815260040161222d90614461565b60405180910390fd5b565b600060019054906101000a900460ff16612287576040517f08c379a000000000000000000000000000000000000000000000000000000000815260040161227e90614461565b60405180910390fd5b61228f61240f565b565b61229b82826114c2565b612312576122a881612468565b6122b68360001c6020612495565b6040516020016122c7929190614555565b6040516020818303038152906040526040517f08c379a0000000000000000000000000000000000000000000000000000000008152600401612309919061458f565b60405180910390fd5b5050565b6000819050919050565b6000819050919050565b61233381612173565b612372576040517f08c379a000000000000000000000000000000000000000000000000000000000815260040161236990614623565b60405180910390fd5b8061239f7f360894a13ba1a3210667c828492db98dca3e2076cc3735a920a3ca505d382bbc60001b612316565b60000160006101000a81548173ffffffffffffffffffffffffffffffffffffffff021916908373ffffffffffffffffffffffffffffffffffffffff16021790555050565b6123ec836126d1565b6000825111806123f95750805b1561240a576124088383612720565b505b505050565b600060019054906101000a900460ff1661245e576040517f08c379a000000000000000000000000000000000000000000000000000000000815260040161245590614461565b60405180910390fd5b600160fb81905550565b606061248e8273ffffffffffffffffffffffffffffffffffffffff16601460ff16612495565b9050919050565b6060600060028360026124a89190614672565b6124b291906146b4565b67ffffffffffffffff8111156124cb576124ca612f2e565b5b6040519080825280601f01601f1916602001820160405280156124fd5781602001600182028036833780820191505090505b5090507f300000000000000000000000000000000000000000000000000000000000000081600081518110612535576125346146e8565b5b60200101907effffffffffffffffffffffffffffffffffffffffffffffffffffffffffffff1916908160001a9053507f780000000000000000000000000000000000000000000000000000000000000081600181518110612599576125986146e8565b5b60200101907effffffffffffffffffffffffffffffffffffffffffffffffffffffffffffff1916908160001a905350600060018460026125d99190614672565b6125e391906146b4565b90505b6001811115612683577f3031323334353637383961626364656600000000000000000000000000000000600f861660108110612625576126246146e8565b5b1a60f81b82828151811061263c5761263b6146e8565b5b60200101907effffffffffffffffffffffffffffffffffffffffffffffffffffffffffffff1916908160001a905350600485901c94508061267c90614717565b90506125e6565b50600084146126c7576040517f08c379a00000000000000000000000000000000000000000000000000000000081526004016126be9061478c565b60405180910390fd5b8091505092915050565b6126da8161232a565b8073ffffffffffffffffffffffffffffffffffffffff167fbc7cd75a20ee27fd9adebab32041f755214dbc6bffa90cc0225b39da2e5c2d3b60405160405180910390a250565b606061274583836040518060600160405280602781526020016148776027913961274d565b905092915050565b60606000808573ffffffffffffffffffffffffffffffffffffffff168560405161277791906147f3565b600060405180830381855af49150503d80600081146127b2576040519150601f19603f3d011682016040523d82523d6000602084013e6127b7565b606091505b50915091506127c8868383876127d3565b925050509392505050565b6060831561283557600083510361282d576127ed85612173565b61282c576040517f08c379a000000000000000000000000000000000000000000000000000000000815260040161282390614856565b60405180910390fd5b5b829050612840565b61283f8383612848565b5b949350505050565b60008251111561285b5781518083602001fd5b806040517f08c379a000000000000000000000000000000000000000000000000000000000815260040161288f919061458f565b60405180910390fd5b8280548282559060005260206000209081019282156128e0579160200282015b828111156128df5782518290816128cf9190613c0c565b50916020019190600101906128b8565b5b5090506128ed919061293e565b5090565b82805482825590600052602060002090810192821561292d579160200282015b8281111561292c578251825591602001919060010190612911565b5b50905061293a9190612962565b5090565b5b8082111561295e5760008181612955919061297f565b5060010161293f565b5090565b5b8082111561297b576000816000905550600101612963565b5090565b50805461298b90613460565b6000825580601f1061299d57506129bc565b601f0160209004906000526020600020908101906129bb91906129bf565b5b50565b5b808211156129d85760008160009055506001016129c0565b5090565b6000604051905090565b600080fd5b600080fd5b60007fffffffff0000000000000000000000000000000000000000000000000000000082169050919050565b612a25816129f0565b8114612a3057600080fd5b50565b600081359050612a4281612a1c565b92915050565b600060208284031215612a5e57612a5d6129e6565b5b6000612a6c84828501612a33565b91505092915050565b60008115159050919050565b612a8a81612a75565b82525050565b6000602082019050612aa56000830184612a81565b92915050565b6000819050919050565b612abe81612aab565b8114612ac957600080fd5b50565b600081359050612adb81612ab5565b92915050565b6000819050919050565b612af481612ae1565b8114612aff57600080fd5b50565b600081359050612b1181612aeb565b92915050565b60008060408385031215612b2e57612b2d6129e6565b5b6000612b3c85828601612acc565b9250506020612b4d85828601612b02565b9150509250929050565b612b6081612aab565b82525050565b7f4e487b7100000000000000000000000000000000000000000000000000000000600052602160045260246000fd5b60048110612ba657612ba5612b66565b5b50565b6000819050612bb782612b95565b919050565b6000612bc782612ba9565b9050919050565b612bd781612bbc565b82525050565b612be681612ae1565b82525050565b600081519050919050565b600082825260208201905092915050565b60005b83811015612c26578082015181840152602081019050612c0b565b60008484015250505050565b6000601f19601f8301169050919050565b6000612c4e82612bec565b612c588185612bf7565b9350612c68818560208601612c08565b612c7181612c32565b840191505092915050565b600060a082019050612c916000830188612b57565b612c9e6020830187612b57565b612cab6040830186612bce565b612cb86060830185612bdd565b8181036080830152612cca8184612c43565b90509695505050505050565b600080fd5b60006101a08284031215612cf257612cf1612cd6565b5b81905092915050565b60008060408385031215612d1257612d116129e6565b5b6000612d2085828601612b02565b925050602083013567ffffffffffffffff811115612d4157612d406129eb565b5b612d4d85828601612cdb565b9150509250929050565b600073ffffffffffffffffffffffffffffffffffffffff82169050919050565b6000819050919050565b6000612d9c612d97612d9284612d57565b612d77565b612d57565b9050919050565b6000612dae82612d81565b9050919050565b6000612dc082612da3565b9050919050565b612dd081612db5565b82525050565b6000602082019050612deb6000830184612dc7565b92915050565b600060208284031215612e0757612e066129e6565b5b6000612e1584828501612acc565b91505092915050565b6000602082019050612e336000830184612b57565b92915050565b6000612e4482612d57565b9050919050565b612e5481612e39565b8114612e5f57600080fd5b50565b600081359050612e7181612e4b565b92915050565b60008060408385031215612e8e57612e8d6129e6565b5b6000612e9c85828601612acc565b9250506020612ead85828601612e62565b9150509250929050565b600060208284031215612ecd57612ecc6129e6565b5b6000612edb84828501612e62565b91505092915050565b60008060408385031215612efb57612efa6129e6565b5b6000612f0985828601612e62565b9250506020612f1a85828601612acc565b9150509250929050565b600080fd5b600080fd5b7f4e487b7100000000000000000000000000000000000000000000000000000000600052604160045260246000fd5b612f6682612c32565b810181811067ffffffffffffffff82111715612f8557612f84612f2e565b5b80604052505050565b6000612f986129dc565b9050612fa48282612f5d565b919050565b600067ffffffffffffffff821115612fc457612fc3612f2e565b5b612fcd82612c32565b9050602081019050919050565b82818337600083830152505050565b6000612ffc612ff784612fa9565b612f8e565b90508281526020810184848401111561301857613017612f29565b5b613023848285612fda565b509392505050565b600082601f8301126130405761303f612f24565b5b8135613050848260208601612fe9565b91505092915050565b600080604083850312156130705761306f6129e6565b5b600061307e85828601612e62565b925050602083013567ffffffffffffffff81111561309f5761309e6129eb565b5b6130ab8582860161302b565b9150509250929050565b60006130c082612d81565b9050919050565b60006130d2826130b5565b9050919050565b6130e2816130c7565b82525050565b60006020820190506130fd60008301846130d9565b92915050565b61310c81612a75565b811461311757600080fd5b50565b60008135905061312981613103565b92915050565b60008060408385031215613146576131456129e6565b5b600061315485828601612acc565b92505060206131658582860161311a565b9150509250929050565b61317881612e39565b82525050565b6000602082019050613193600083018461316f565b92915050565b60006131a482612d57565b9050919050565b6131b481613199565b81146131bf57600080fd5b50565b6000813590506131d1816131ab565b92915050565b6000806000606084860312156131f0576131ef6129e6565b5b60006131fe86828701612e62565b935050602061320f868287016131c2565b925050604061322086828701612e62565b9150509250925092565b6000819050919050565b61323d8161322a565b82525050565b61324c81612ae1565b82525050565b6060820160008201516132686000850182613234565b50602082015161327b6020850182613234565b50604082015161328e6040850182613243565b50505050565b600082825260208201905092915050565b60006132b082612bec565b6132ba8185613294565b93506132ca818560208601612c08565b6132d381612c32565b840191505092915050565b600060408301600083015184820360008601526132fb82826132a5565b9150506020830151848203602086015261331582826132a5565b9150508091505092915050565b6003811061333357613332612b66565b5b50565b600081905061334482613322565b919050565b600061335482613336565b9050919050565b61336481613349565b82525050565b600061014082019050613380600083018b612b57565b61338d602083018a61316f565b61339a6040830189612bdd565b6133a76060830188613252565b6133b460c0830187612b57565b81810360e08301526133c681866132de565b90506133d6610100830185612b57565b6133e461012083018461335b565b9998505050505050505050565b60008060408385031215613408576134076129e6565b5b600061341685828601612acc565b925050602061342785828601612acc565b9150509250929050565b7f4e487b7100000000000000000000000000000000000000000000000000000000600052602260045260246000fd5b6000600282049050600182168061347857607f821691505b60208210810361348b5761348a613431565b5b50919050565b60006040820190506134a66000830185612b57565b6134b3602083018461316f565b9392505050565b6000815190506134c981613103565b92915050565b6000602082840312156134e5576134e46129e6565b5b60006134f3848285016134ba565b91505092915050565b7f2150726f66000000000000000000000000000000000000000000000000000000600082015250565b6000613532600583612bf7565b915061353d826134fc565b602082019050919050565b6000602082019050818103600083015261356181613525565b9050919050565b7f4475700000000000000000000000000000000000000000000000000000000000600082015250565b600061359e600383612bf7565b91506135a982613568565b602082019050919050565b600060208201905081810360008301526135cd81613591565b9050919050565b60006020820190506135e96000830184612bdd565b92915050565b6000815190506135fe81612aeb565b92915050565b60006020828403121561361a576136196129e6565b5b6000613628848285016135ef565b91505092915050565b7f496e76616c696441637469766974790000000000000000000000000000000000600082015250565b6000613667600f83612bf7565b915061367282613631565b602082019050919050565b600060208201905081810360008301526136968161365a565b9050919050565b600080fd5b600080fd5b6136b08161322a565b81146136bb57600080fd5b50565b6000813590506136cd816136a7565b92915050565b6000606082840312156136e9576136e861369d565b5b6136f36060612f8e565b90506000613703848285016136be565b6000830152506020613717848285016136be565b602083015250604061372b84828501612b02565b60408301525092915050565b60006060828403121561374d5761374c6129e6565b5b600061375b848285016136d3565b91505092915050565b600080fd5b600080fd5b600080fd5b600080833560016020038436030381126137905761378f613764565b5b80840192508235915067ffffffffffffffff8211156137b2576137b1613769565b5b6020830192506020820236038313156137ce576137cd61376e565b5b509250929050565b600067ffffffffffffffff8211156137f1576137f0612f2e565b5b602082029050602081019050919050565b600080fd5b600067ffffffffffffffff82111561382257613821612f2e565b5b61382b82612c32565b9050602081019050919050565b600061384b61384684613807565b612f8e565b90508281526020810184848401111561386757613866612f29565b5b613872848285612fda565b509392505050565b600082601f83011261388f5761388e612f24565b5b813561389f848260208601613838565b91505092915050565b60006138bb6138b6846137d6565b612f8e565b905080838252602082019050602084028301858111156138de576138dd613802565b5b835b8181101561392557803567ffffffffffffffff81111561390357613902612f24565b5b808601613910898261387a565b855260208501945050506020810190506138e0565b5050509392505050565b600061393c3684846138a8565b905092915050565b6000808335600160200384360303811261396157613960613764565b5b80840192508235915067ffffffffffffffff82111561398357613982613769565b5b60208301925060208202360383131561399f5761399e61376e565b5b509250929050565b6000823560016040038336030381126139c3576139c2613764565b5b80830191505092915050565b6000604082840312156139e5576139e461369d565b5b6139ef6040612f8e565b9050600082013567ffffffffffffffff811115613a0f57613a0e6136a2565b5b613a1b8482850161387a565b600083015250602082013567ffffffffffffffff811115613a3f57613a3e6136a2565b5b613a4b8482850161387a565b60208301525092915050565b6000613a6336836139cf565b9050919050565b60008190508160005260206000209050919050565b60006020601f8301049050919050565b600082821b905092915050565b600060088302613acc7fffffffffffffffffffffffffffffffffffffffffffffffffffffffffffffffff82613a8f565b613ad68683613a8f565b95508019841693508086168417925050509392505050565b6000613b09613b04613aff84612ae1565b612d77565b612ae1565b9050919050565b6000819050919050565b613b2383613aee565b613b37613b2f82613b10565b848454613a9c565b825550505050565b600090565b613b4c613b3f565b613b57818484613b1a565b505050565b5b81811015613b7b57613b70600082613b44565b600181019050613b5d565b5050565b601f821115613bc057613b9181613a6a565b613b9a84613a7f565b81016020851015613ba9578190505b613bbd613bb585613a7f565b830182613b5c565b50505b505050565b600082821c905092915050565b6000613be360001984600802613bc5565b1980831691505092915050565b6000613bfc8383613bd2565b9150826002028217905092915050565b613c1582612bec565b67ffffffffffffffff811115613c2e57613c2d612f2e565b5b613c388254613460565b613c43828285613b7f565b600060209050601f831160018114613c765760008415613c64578287015190505b613c6e8582613bf0565b865550613cd6565b601f198416613c8486613a6a565b60005b82811015613cac57848901518255600182019150602085019450602081019050613c87565b86831015613cc95784890151613cc5601f891682613bd2565b8355505b6001600288020188555050505b505050505050565b6000604082019050613cf36000830185612bdd565b613d006020830184612b57565b9392505050565b7f416363657373436f6e74726f6c3a2063616e206f6e6c792072656e6f756e636560008201527f20726f6c657320666f722073656c660000000000000000000000000000000000602082015250565b6000613d63602f83612bf7565b9150613d6e82613d07565b604082019050919050565b60006020820190508181036000830152613d9281613d56565b9050919050565b7f46756e6374696f6e206d7573742062652063616c6c6564207468726f7567682060008201527f64656c656761746563616c6c0000000000000000000000000000000000000000602082015250565b6000613df5602c83612bf7565b9150613e0082613d99565b604082019050919050565b60006020820190508181036000830152613e2481613de8565b9050919050565b7f46756e6374696f6e206d7573742062652063616c6c6564207468726f7567682060008201527f6163746976652070726f78790000000000000000000000000000000000000000602082015250565b6000613e87602c83612bf7565b9150613e9282613e2b565b604082019050919050565b60006020820190508181036000830152613eb681613e7a565b9050919050565b7f4e6f742076657269666965640000000000000000000000000000000000000000600082015250565b6000613ef3600c83612bf7565b9150613efe82613ebd565b602082019050919050565b60006020820190508181036000830152613f2281613ee6565b9050919050565b7f534254206e6f7420736574000000000000000000000000000000000000000000600082015250565b6000613f5f600b83612bf7565b9150613f6a82613f29565b602082019050919050565b60006020820190508181036000830152613f8e81613f52565b9050919050565b7f555550535570677261646561626c653a206d757374206e6f742062652063616c60008201527f6c6564207468726f7567682064656c656761746563616c6c0000000000000000602082015250565b6000613ff1603883612bf7565b9150613ffc82613f95565b604082019050919050565b6000602082019050818103600083015261402081613fe4565b9050919050565b7f4e6f506b67000000000000000000000000000000000000000000000000000000600082015250565b600061405d600583612bf7565b915061406882614027565b602082019050919050565b6000602082019050818103600083015261408c81614050565b9050919050565b7f496e697469616c697a61626c653a20636f6e747261637420697320616c72656160008201527f647920696e697469616c697a6564000000000000000000000000000000000000602082015250565b60006140ef602e83612bf7565b91506140fa82614093565b604082019050919050565b6000602082019050818103600083015261411e816140e2565b9050919050565b6000819050919050565b600060ff82169050919050565b600061415761415261414d84614125565b612d77565b61412f565b9050919050565b6141678161413c565b82525050565b6000602082019050614182600083018461415e565b92915050565b7f2154454500000000000000000000000000000000000000000000000000000000600082015250565b60006141be600483612bf7565b91506141c982614188565b602082019050919050565b600060208201905081810360008301526141ed816141b1565b9050919050565b60006040820190506142096000830185612b57565b6142166020830184612bdd565b9392505050565b7f5265656e7472616e637947756172643a207265656e7472616e742063616c6c00600082015250565b6000614253601f83612bf7565b915061425e8261421d565b602082019050919050565b6000602082019050818103600083015261428281614246565b9050919050565b60008151905061429881612ab5565b92915050565b6000602082840312156142b4576142b36129e6565b5b60006142c284828501614289565b91505092915050565b7f45524331393637557067726164653a206e657720696d706c656d656e7461746960008201527f6f6e206973206e6f742055555053000000000000000000000000000000000000602082015250565b6000614327602e83612bf7565b9150614332826142cb565b604082019050919050565b600060208201905081810360008301526143568161431a565b9050919050565b7f45524331393637557067726164653a20756e737570706f727465642070726f7860008201527f6961626c65555549440000000000000000000000000000000000000000000000602082015250565b60006143b9602983612bf7565b91506143c48261435d565b604082019050919050565b600060208201905081810360008301526143e8816143ac565b9050919050565b7f496e697469616c697a61626c653a20636f6e7472616374206973206e6f74206960008201527f6e697469616c697a696e67000000000000000000000000000000000000000000602082015250565b600061444b602b83612bf7565b9150614456826143ef565b604082019050919050565b6000602082019050818103600083015261447a8161443e565b9050919050565b600081905092915050565b7f416363657373436f6e74726f6c3a206163636f756e7420000000000000000000600082015250565b60006144c2601783614481565b91506144cd8261448c565b601782019050919050565b60006144e382612bec565b6144ed8185614481565b93506144fd818560208601612c08565b80840191505092915050565b7f206973206d697373696e6720726f6c6520000000000000000000000000000000600082015250565b600061453f601183614481565b915061454a82614509565b601182019050919050565b6000614560826144b5565b915061456c82856144d8565b915061457782614532565b915061458382846144d8565b91508190509392505050565b600060208201905081810360008301526145a98184612c43565b905092915050565b7f455243313936373a206e657720696d706c656d656e746174696f6e206973206e60008201527f6f74206120636f6e747261637400000000000000000000000000000000000000602082015250565b600061460d602d83612bf7565b9150614618826145b1565b604082019050919050565b6000602082019050818103600083015261463c81614600565b9050919050565b7f4e487b7100000000000000000000000000000000000000000000000000000000600052601160045260246000fd5b600061467d82612ae1565b915061468883612ae1565b925082820261469681612ae1565b915082820484148315176146ad576146ac614643565b5b5092915050565b60006146bf82612ae1565b91506146ca83612ae1565b92508282019050808211156146e2576146e1614643565b5b92915050565b7f4e487b7100000000000000000000000000000000000000000000000000000000600052603260045260246000fd5b600061472282612ae1565b91506000820361473557614734614643565b5b600182039050919050565b7f537472696e67733a20686578206c656e67746820696e73756666696369656e74600082015250565b6000614776602083612bf7565b915061478182614740565b602082019050919050565b600060208201905081810360008301526147a581614769565b9050919050565b600081519050919050565b600081905092915050565b60006147cd826147ac565b6147d781856147b7565b93506147e7818560208601612c08565b80840191505092915050565b60006147ff82846147c2565b915081905092915050565b7f416464726573733a2063616c6c20746f206e6f6e2d636f6e7472616374000000600082015250565b6000614840601d83612bf7565b915061484b8261480a565b602082019050919050565b6000602082019050818103600083015261486f81614833565b905091905056fe416464726573733a206c6f772d6c6576656c2064656c65676174652063616c6c206661696c6564a264697066735822122052ec54781ddf18a85762cedfeb553eb801c2911530a50301c8733ad980508aff64736f6c634300081c0033",
  "linkReferences": {},
  "deployedLinkReferences": {}
}