{
  "_format": "hh-sol-artifact-1",
  "contractName": "ProjectRegistry",
  "sourceName": "contracts/ProjectRegistry.sol",
  "abi": [
    {
      "anonymous": false,
      "inputs": [
        {
          "indexed": true,
          "internalType": "uint256",
          "name": "activityId",
          "type": "uint256"
        },
        {
          "indexed": false,
          "internalType": "uint256",
          "name": "time",
          "type": "uint256"
        }
      ],
      "name": "ActivityCompleted",
      "type": "event"
    },
    {
      "anonymous": false,
      "inputs": [
        {
          "indexed": true,
          "internalType": "uint256",
          "name": "activityId",
          "type": "uint256"
        },
        {
          "indexed": true,
          "internalType": "uint256",
          "name": "projectId",
          "type": "uint256"
        },
        {
          "indexed": true,
          "internalType": "address",
          "name": "professor",
          "type": "address"
        }
      ],
      "name": "ActivityRegistered",
      "type": "event"
    },
    {
      "anonymous": false,
      "inputs": [
        {
          "indexed": false,
          "internalType": "address",
          "name": "previousAdmin",
          "type": "address"
        },
        {
          "indexed": false,
          "internalType": "address",
          "name": "newAdmin",
          "type": "address"
        }
      ],
      "name": "AdminChanged",
      "type": "event"
    },
    {
      "anonymous": false,
      "inputs": [
        {
          "indexed": true,
          "internalType": "address",
          "name": "beacon",
          "type": "address"
        }
      ],
      "name": "BeaconUpgraded",
      "type": "event"
    },
    {
      "anonymous": false,
      "inputs": [
        {
          "indexed": true,
          "internalType": "uint256",
          "name": "projectId",
          "type": "uint256"
        },
        {
          "indexed": true,
          "internalType": "uint256",
          "name": "activityId",
          "type": "uint256"
        },
        {
          "indexed": false,
          "internalType": "bytes32",
          "name": "packageHash",
          "type": "bytes32"
        }
      ],
      "name": "EvidenceLinked",
      "type": "event"
    },
    {
      "anonymous": false,
      "inputs": [
        {
          "indexed": true,
          "internalType": "uint256",
          "name": "projectId",
          "type": "uint256"
        },
        {
          "indexed": false,
          "internalType": "uint256",
          "name": "totalUsed",
          "type": "uint256"
        }
      ],
      "name": "FundsUpdated",
      "type": "event"
    },
    {
      "anonymous": false,
      "inputs": [
        {
          "indexed": false,
          "internalType": "uint8",
          "name": "version",
          "type": "uint8"
        }
      ],
      "name": "Initialized",
      "type": "event"
    },
    {
      "anonymous": false,
      "inputs": [
        {
          "indexed": true,
          "internalType": "uint256",
          "name": "projectId",
          "type": "uint256"
        },
        {
          "indexed": true,
          "internalType": "address",
          "name": "professor",
          "type": "address"
        }
      ],
      "name": "ProfessorAssigned",
      "type": "event"
    },
    {
      "anonymous": false,
      "inputs": [
        {
          "indexed": true,
          "internalType": "uint256",
          "name": "projectId",
          "type": "uint256"
        },
        {
          "indexed": true,
          "internalType": "address",
          "name": "ong",
          "type": "address"
        },
        {
          "indexed": true,
          "internalType": "address",
          "name": "investor",
          "type": "address"
        },
        {
          "indexed": false,
          "internalType": "string",
          "name": "name",
          "type": "string"
        }
      ],
      "name": "ProjectCreated",
      "type": "event"
    },
    {
      "anonymous": false,
      "inputs": [
        {
          "indexed": true,
          "internalType": "uint256",
          "name": "projectId",
          "type": "uint256"
        },
        {
          "indexed": false,
          "internalType": "bool",
          "name": "active",
          "type": "bool"
        }
      ],
      "name": "ProjectStatusChanged",
      "type": "event"
    },
    {
      "anonymous": false,
      "inputs": [
        {
          "indexed": true,
          "internalType": "bytes32",
          "name": "role",
          "type": "bytes32"
        },
        {
          "indexed": true,
          "internalType": "bytes32",
          "name": "previousAdminRole",
          "type": "bytes32"
        },
        {
          "indexed": true,
          "internalType": "bytes32",
          "name": "newAdminRole",
          "type": "bytes32"
        }
      ],
      "name": "RoleAdminChanged",
      "type": "event"
    },
    {
      "anonymous": false,
      "inputs": [
        {
          "indexed": true,
          "internalType": "bytes32",
          "name": "role",
          "type": "bytes32"
        },
        {
          "indexed": true,
          "internalType": "address",
          "name": "account",
          "type": "address"
        },
        {
          "indexed": true,
          "internalType": "address",
          "name": "sender",
          "type": "address"
        }
      ],
      "name": "RoleGranted",
      "type": "event"
    },
    {
      "anonymous": false,
      "inputs": [
        {
          "indexed": true,
          "internalType": "bytes32",
          "name": "role",
          "type": "bytes32"
        },
        {
          "indexed": true,
          "internalType": "address",
          "name": "account",
          "type": "address"
        },
        {
          "indexed": true,
          "internalType": "address",
          "name": "sender",
          "type": "address"
        }
      ],
      "name": "RoleRevoked",
      "type": "event"
    },
    {
      "anonymous": false,
      "inputs": [
        {
          "indexed": true,
          "internalType": "address",
          "name": "implementation",
          "type": "address"
        }
      ],
      "name": "Upgraded",
      "type": "event"
    },
    {
      "inputs": [],
      "name": "ADMIN_ROLE",
      "outputs": [
        {
          "internalType": "bytes32",
          "name": "",
          "type": "bytes32"
        }
      ],
      "stateMutability": "view",
      "type": "function"
    },
    {
      "inputs": [],
      "name": "DEFAULT_ADMIN_ROLE",
      "outputs": [
        {
          "internalType": "bytes32",
          "name": "",
          "type": "bytes32"
        }
      ],
      "stateMutability": "view",
      "type": "function"
    },
    {
      "inputs": [],
      "name": "ONG_ROLE",
      "outputs": [
        {
          "internalType": "bytes32",
          "name": "",
          "type": "bytes32"
        }
      ],
      "stateMutability": "view",
      "type": "function"
    },
    {
      "inputs": [],
      "name": "PROFESSOR_ROLE",
      "outputs": [
        {
          "internalType": "bytes32",
          "name": "",
          "type": "bytes32"
        }
      ],
      "stateMutability": "view",
      "type": "function"
    },
    {
      "inputs": [
        {
          "internalType": "uint256",
          "name": "",
          "type": "uint256"
        }
      ],
      "name": "activities",
      "outputs": [
        {
          "internalType": "uint256",
          "name": "id",
          "type": "uint256"
        },
        {
          "internalType": "uint256",
          "name": "projectId",
          "type": "uint256"
        },
        {
          "internalType": "enum LibraryStructs.ActivityType",
          "name": "activityType",
          "type": "uint8"
        },
        {
          "internalType": "string",
          "name": "title",
          "type": "string"
        },
        {
          "internalType": "string",
          "name": "description",
          "type": "string"
        },
        {
          "internalType": "uint256",
          "name": "scheduledDate",
          "type": "uint256"
        },
        {
          "internalType": "uint256",
          "name": "completedDate",
          "type": "uint256"
        },
        {
          "internalType": "address",
          "name": "assignedProfessor",
          "type": "address"
        },
        {
          "internalType": "string",
          "name": "metadataURI",
          "type": "string"
        },
        {
          "internalType": "bool",
          "name": "completed",
          "type": "bool"
        }
      ],
      "stateMutability": "view",
      "type": "function"
    },
    {
      "inputs": [],
      "name": "activityCounter",
      "outputs": [
        {
          "internalType": "uint128",
          "name": "",
          "type": "uint128"
        }
      ],
      "stateMutability": "view",
      "type": "function"
    },
    {
      "inputs": [
        {
          "internalType": "uint256",
          "name": "projectId",
          "type": "uint256"
        },
        {
          "internalType": "address",
          "name": "professor",
          "type": "address"
        }
      ],
      "name": "assignProfessor",
      "outputs": [],
      "stateMutability": "nonpayable",
      "type": "function"
    },
    {
      "inputs": [
        {
          "internalType": "uint256",
          "name": "activityId",
          "type": "uint256"
        }
      ],
      "name": "completeActivity",
      "outputs": [],
      "stateMutability": "nonpayable",
      "type": "function"
    },
    {
      "inputs": [
        {
          "internalType": "string",
          "name": "name",
          "type": "string"
        },
        {
          "internalType": "string",
          "name": "description",
          "type": "string"
        },
        {
          "internalType": "address",
          "name": "investor",
          "type": "address"
        },
        {
          "internalType": "uint256",
          "name": "startDate",
          "type": "uint256"
        },
        {
          "internalType": "uint256",
          "name": "endDate",
          "type": "uint256"
        },
        {
          "internalType": "uint256",
          "name": "totalBudget",
          "type": "uint256"
        },
        {
          "internalType": "string",
          "name": "metadataURI",
          "type": "string"
        }
      ],
      "name": "createProject",
      "outputs": [],
      "stateMutability": "nonpayable",
      "type": "function"
    },
    {
      "inputs": [
        {
          "internalType": "uint256",
          "name": "activityId",
          "type": "uint256"
        }
      ],
      "name": "getActivityId",
      "outputs": [
        {
          "internalType": "uint256",
          "name": "",
          "type": "uint256"
        }
      ],
      "stateMutability": "view",
      "type": "function"
    },
    {
      "inputs": [
        {
          "internalType": "bytes32",
          "name": "role",
          "type": "bytes32"
        }
      ],
      "name": "getRoleAdmin",
      "outputs": [
        {
          "internalType": "bytes32",
          "name": "",
          "type": "bytes32"
        }
      ],
      "stateMutability": "view",
      "type": "function"
    },
    {
      "inputs": [
        {
          "internalType": "bytes32",
          "name": "role",
          "type": "bytes32"
        },
        {
          "internalType": "address",
          "name": "account",
          "type": "address"
        }
      ],
      "name": "grantRole",
      "outputs": [],
      "stateMutability": "nonpayable",
      "type": "function"
    },
    {
      "inputs": [
        {
          "internalType": "bytes32",
          "name": "role",
          "type": "bytes32"
        },
        {
          "internalType": "address",
          "name": "account",
          "type": "address"
        }
      ],
      "name": "hasRole",
      "outputs": [
        {
          "internalType": "bool",
          "name": "",
          "type": "bool"
        }
      ],
      "stateMutability": "view",
      "type": "function"
    },
    {
      "inputs": [],
      "name": "identityRegistry",
      "outputs": [
        {
          "internalType": "contract IdentityRegistry",
          "name": "",
          "type": "address"
        }
      ],
      "stateMutability": "view",
      "type": "function"
    },
    {
      "inputs": [
        {
          "internalType": "address",
          "name": "_admin",
          "type": "address"
        },
        {
          "internalType": "address payable",
          "name": "_identityRegistry",
          "type": "address"
        }
      ],
      "name": "initialize",
      "outputs": [],
      "stateMutability": "nonpayable",
      "type": "function"
    },
    {
      "inputs": [
        {
          "internalType": "uint256",
          "name": "",
          "type": "uint256"
        },
        {
          "internalType": "address",
          "name": "",
          "type": "address"
        }
      ],
      "name": "isProfessorAssignedToProject",
      "outputs": [
        {
          "internalType": "bool",
          "name": "",
          "type": "bool"
        }
      ],
      "stateMutability": "view",
      "type": "function"
    },
    {
      "inputs": [],
      "name": "keyRegistry",
      "outputs": [
        {
          "internalType": "address",
          "name": "",
          "type": "address"
        }
      ],
      "stateMutability": "view",
      "type": "function"
    },
    {
      "inputs": [
        {
          "internalType": "uint256",
          "name": "activityId",
          "type": "uint256"
        },
        {
          "internalType": "bytes32",
          "name": "packageHash",
          "type": "bytes32"
        }
      ],
      "name": "linkEvidence",
      "outputs": [],
      "stateMutability": "nonpayable",
      "type": "function"
    },
    {
      "inputs": [
        {
          "internalType": "uint256",
          "name": "",
          "type": "uint256"
        },
        {
          "internalType": "uint256",
          "name": "",
          "type": "uint256"
        }
      ],
      "name": "projectActivities",
      "outputs": [
        {
          "internalType": "uint256",
          "name": "",
          "type": "uint256"
        }
      ],
      "stateMutability": "view",
      "type": "function"
    },
    {
      "inputs": [],
      "name": "projectCounter",
      "outputs": [
        {
          "internalType": "uint128",
          "name": "",
          "type": "uint128"
        }
      ],
      "stateMutability": "view",
      "type": "function"
    },
    {
      "inputs": [
        {
          "internalType": "uint256",
          "name": "",
          "type": "uint256"
        },
        {
          "internalType": "uint256",
          "name": "",
          "type": "uint256"
        }
      ],
      "name": "projectProfessors",
      "outputs": [
        {
          "internalType": "address",
          "name": "",
          "type": "address"
        }
      ],
      "stateMutability": "view",
      "type": "function"
    },
    {
      "inputs": [
        {
          "internalType": "uint256",
          "name": "",
          "type": "uint256"
        }
      ],
      "name": "projects",
      "outputs": [
        {
          "internalType": "uint256",
          "name": "id",
          "type": "uint256"
        },
        {
          "internalType": "address",
          "name": "ongAddress",
          "type": "address"
        },
        {
          "internalType": "string",
          "name": "name",
          "type": "string"
        },
        {
          "internalType": "string",
          "name": "description",
          "type": "string"
        },
        {
          "internalType": "uint256",
          "name": "startDate",
          "type": "uint256"
        },
        {
          "internalType": "uint256",
          "name": "endDate",
          "type": "uint256"
        },
        {
          "internalType": "uint256",
          "name": "totalBudget",
          "type": "uint256"
        },
        {
          "internalType": "uint256",
          "name": "fundsUsed",
          "type": "uint256"
        },
        {
          "internalType": "string",
          "name": "metadataURI",
          "type": "string"
        },
        {
          "internalType": "bool",
          "name": "active",
          "type": "bool"
        }
      ],
      "stateMutability": "view",
      "type": "function"
    },
    {
      "inputs": [],
      "name": "proxiableUUID",
      "outputs": [
        {
          "internalType": "bytes32",
          "name": "",
          "type": "bytes32"
        }
      ],
      "stateMutability": "view",
      "type": "function"
    },
    {
      "inputs": [
        {
          "internalType": "uint256",
          "name": "projectId",
          "type": "uint256"
        },
        {
          "internalType": "enum LibraryStructs.ActivityType",
          "name": "activityType",
          "type": "uint8"
        },
        {
          "internalType": "string",
          "name": "title",
          "type": "string"
        },
        {
          "internalType": "string",
          "name": "description",
          "type": "string"
        },
        {
          "internalType": "uint256",
          "name": "scheduledDate",
          "type": "uint256"
        },
        {
          "internalType": "string",
          "name": "metadataURI",
          "type": "string"
        }
      ],
      "name": "registerActivity",
      "outputs": [],
      "stateMutability": "nonpayable",
      "type": "function"
    },
    {
      "inputs": [
        {
          "internalType": "bytes32",
          "name": "role",
          "type": "bytes32"
        },
        {
          "internalType": "address",
          "name": "account",
          "type": "address"
        }
      ],
      "name": "renounceRole",
      "outputs": [],
      "stateMutability": "nonpayable",
      "type": "function"
    },
    {
      "inputs": [
        {
          "internalType": "bytes32",
          "name": "role",
          "type": "bytes32"
        },
        {
          "internalType": "address",
          "name": "account",
          "type": "address"
        }
      ],
      "name": "revokeRole",
      "outputs": [],
      "stateMutability": "nonpayable",
      "type": "function"
    },
    {
      "inputs": [
        {
          "internalType": "address",
          "name": "_keyRegistry",
          "type": "address"
        }
      ],
      "name": "setKeyRegistry",
      "outputs": [],
      "stateMutability": "nonpayable",
      "type": "function"
    },
    {
      "inputs": [
        {
          "internalType": "bytes4",
          "name": "interfaceId",
          "type": "bytes4"
        }
      ],
      "name": "supportsInterface",
      "outputs": [
        {
          "internalType": "bool",
          "name": "",
          "type": "bool"
        }
      ],
      "stateMutability": "view",
      "type": "function"
    },
    {
      "inputs": [
        {
          "internalType": "uint256",
          "name": "projectId",
          "type": "uint256"
        }
      ],
      "name": "toggleProjectStatus",
      "outputs": [],
      "stateMutability": "nonpayable",
      "type": "function"
    },
    {
      "inputs": [
        {
          "internalType": "uint256",
          "name": "projectId",
          "type": "uint256"
        },
        {
          "internalType": "uint256",
          "name": "amount",
          "type": "uint256"
        }
      ],
      "name": "updateFunds",
      "outputs": [],
      "stateMutability": "nonpayable",
      "type": "function"
    },
    {
      "inputs": [
        {
          "internalType": "address",
          "name": "newImplementation",
          "type": "address"
        }
      ],
      "name": "upgradeTo",
      "outputs": [],
      "stateMutability": "nonpayable",
      "type": "function"
    },
    {
      "inputs": [
        {
          "internalType": "address",
          "name": "newImplementation",
          "type": "address"
        },
        {
          "internalType": "bytes",
          "name": "data",
          "type": "bytes"
        }
      ],
      "name": "upgradeToAndCall",
      "outputs": [],
      "stateMutability": "payable",
      "type": "function"
    }
  ],
  "bytecode": "60a06040523073ffffffffffffffffffffffffffffffffffffffff1660809073ffffffffffffffffffffffffffffffffffffffff1681525034801561004357600080fd5b506080516151c661007b600039600081816118ae0152818161193c01528181611bff01528181611c8d0152611d3d01526151c66000f3fe6080604052600436106101e25760003560e01c806375b238fc11610102578063b13df4d511610095578063cf128d3811610064578063cf128d3814610704578063d547741f14610741578063f553b7641461076a578063f8a518ed146107a7576101e2565b8063b13df4d51461065c578063c81cf77114610685578063c888de44146106b0578063ce408856146106d9576101e2565b80638b8a417e116100d15780638b8a417e1461058e57806391d14854146105b7578063a217fddf146105f4578063a64f4c5b1461061f576101e2565b806375b238fc146104e6578063777aef9d146105115780637d70de011461053a5780637e1dc7bb14610565576101e2565b8063248a9ca31161017a578063485cc95511610149578063485cc955146104395780634f1ef2861461046257806352d1902d1461047e578063727e5ba1146104a9576101e2565b8063248a9ca3146103815780632f2ff15d146103be57806336568abe146103e75780633659cfe614610410576101e2565b80630df9c83c116101b65780630df9c83c146102be578063107046bd146102e7578063134e18f41461032d578063174130b214610358576101e2565b8062321314146101e757806301ffc9a714610210578063086b51981461024d5780630d1657e814610278575b600080fd5b3480156101f357600080fd5b5061020e600480360381019061020991906133e3565b6107d2565b005b34801561021c57600080fd5b506102376004803603810190610232919061347b565b610911565b60405161024491906134c3565b60405180910390f35b34801561025957600080fd5b5061026261098b565b60405161026f919061351f565b60405180910390f35b34801561028457600080fd5b5061029f600480360381019061029a919061353a565b6109b2565b6040516102b59a9998979695949392919061367d565b60405180910390f35b3480156102ca57600080fd5b506102e560048036038101906102e091906137b8565b610bd9565b005b3480156102f357600080fd5b5061030e6004803603810190610309919061353a565b6111aa565b6040516103249a999897969594939291906138a7565b60405180910390f35b34801561033957600080fd5b506103426113c4565b60405161034f91906139b7565b60405180910390f35b34801561036457600080fd5b5061037f600480360381019061037a91906139fe565b6113eb565b005b34801561038d57600080fd5b506103a860048036038101906103a39190613b01565b6117e8565b6040516103b59190613b3d565b60405180910390f35b3480156103ca57600080fd5b506103e560048036038101906103e09190613b58565b611808565b005b3480156103f357600080fd5b5061040e60048036038101906104099190613b58565b611829565b005b34801561041c57600080fd5b5061043760048036038101906104329190613b98565b6118ac565b005b34801561044557600080fd5b50610460600480360381019061045b9190613c03565b611a34565b005b61047c60048036038101906104779190613d73565b611bfd565b005b34801561048a57600080fd5b50610493611d39565b6040516104a09190613b3d565b60405180910390f35b3480156104b557600080fd5b506104d060048036038101906104cb9190613dcf565b611df2565b6040516104dd919061351f565b60405180910390f35b3480156104f257600080fd5b506104fb611e41565b6040516105089190613b3d565b60405180910390f35b34801561051d57600080fd5b5061053860048036038101906105339190613b98565b611e65565b005b34801561054657600080fd5b5061054f611ed5565b60405161055c9190613e3a565b60405180910390f35b34801561057157600080fd5b5061058c60048036038101906105879190613dcf565b611ef8565b005b34801561059a57600080fd5b506105b560048036038101906105b0919061353a565b612047565b005b3480156105c357600080fd5b506105de60048036038101906105d99190613b58565b61212e565b6040516105eb91906134c3565b60405180910390f35b34801561060057600080fd5b50610609612199565b6040516106169190613b3d565b60405180910390f35b34801561062b57600080fd5b506106466004803603810190610641919061353a565b6121a0565b6040516106539190613e55565b60405180910390f35b34801561066857600080fd5b50610683600480360381019061067e9190613e70565b6121c1565b005b34801561069157600080fd5b5061069a6124b9565b6040516106a79190613b3d565b60405180910390f35b3480156106bc57600080fd5b506106d760048036038101906106d2919061353a565b6124dd565b005b3480156106e557600080fd5b506106ee612682565b6040516106fb9190613b3d565b60405180910390f35b34801561071057600080fd5b5061072b60048036038101906107269190613dcf565b6126a6565b6040516107389190613e55565b60405180910390f35b34801561074d57600080fd5b5061076860048036038101906107639190613b58565b6126d8565b005b34801561077657600080fd5b50610791600480360381019061078c9190613e70565b6126f9565b60405161079e91906134c3565b60405180910390f35b3480156107b357600080fd5b506107bc612729565b6040516107c99190613e3a565b60405180910390f35b61012e60009054906101000a900473ffffffffffffffffffffffffffffffffffffffff1673ffffffffffffffffffffffffffffffffffffffff163373ffffffffffffffffffffffffffffffffffffffff1614610863576040517f08c379a000000000000000000000000000000000000000000000000000000000815260040161085a90613efc565b60405180910390fd5b60006101306000848152602001908152602001600020905060008160000154036108c2576040517f08c379a00000000000000000000000000000000000000000000000000000000081526004016108b990613f68565b60405180910390fd5b6108cf816001015461274c565b8281600101547f4b5d91a57418603d0bca23a2ee1907c86a840a86f6988036a3d6f9eb229d041c846040516109049190613b3d565b60405180910390a3505050565b60007f7965db0b000000000000000000000000000000000000000000000000000000007bffffffffffffffffffffffffffffffffffffffffffffffffffffffff1916827bffffffffffffffffffffffffffffffffffffffffffffffffffffffff191614806109845750610983826127a9565b5b9050919050565b61012e60009054906101000a900473ffffffffffffffffffffffffffffffffffffffff1681565b6101306020528060005260406000206000915090508060000154908060010154908060020160009054906101000a900460ff16908060030180546109f590613fb7565b80601f0160208091040260200160405190810160405280929190818152602001828054610a2190613fb7565b8015610a6e5780601f10610a4357610100808354040283529160200191610a6e565b820191906000526020600020905b815481529060010190602001808311610a5157829003601f168201915b505050505090806004018054610a8390613fb7565b80601f0160208091040260200160405190810160405280929190818152602001828054610aaf90613fb7565b8015610afc5780601f10610ad157610100808354040283529160200191610afc565b820191906000526020600020905b815481529060010190602001808311610adf57829003601f168201915b5050505050908060050154908060060154908060070160009054906101000a900473ffffffffffffffffffffffffffffffffffffffff1690806008018054610b4390613fb7565b80601f0160208091040260200160405190810160405280929190818152602001828054610b6f90613fb7565b8015610bbc5780601f10610b9157610100808354040283529160200191610bbc565b820191906000526020600020905b815481529060010190602001808311610b9f57829003601f168201915b5050505050908060090160009054906101000a900460ff1690508a565b610be1612813565b61012d60009054906101000a900473ffffffffffffffffffffffffffffffffffffffff1673ffffffffffffffffffffffffffffffffffffffff166391d148547f577f08e4a510a24c05fb531f78cace5d373d442eb2ba1e22f5bcf2bf4248c21e336040518363ffffffff1660e01b8152600401610c5f929190613fe8565b602060405180830381865afa158015610c7c573d6000803e3d6000fd5b505050506040513d601f19601f82011682018060405250810190610ca0919061403d565b610cdf576040517f08c379a0000000000000000000000000000000000000000000000000000000008152600401610cd6906140b6565b60405180910390fd5b610ce88961274c565b61012f60008a815260200190815260200160002060090160009054906101000a900460ff16610d4c576040517f08c379a0000000000000000000000000000000000000000000000000000000008152600401610d4390614122565b60405180910390fd5b61013360008a815260200190815260200160002060003373ffffffffffffffffffffffffffffffffffffffff1673ffffffffffffffffffffffffffffffffffffffff16815260200190815260200160002060009054906101000a900460ff16610dea576040517f08c379a0000000000000000000000000000000000000000000000000000000008152600401610de19061418e565b60405180910390fd5b42831015610e2d576040517f08c379a0000000000000000000000000000000000000000000000000000000008152600401610e24906141fa565b60405180910390fd5b610134601081819054906101000a90046fffffffffffffffffffffffffffffffff1660010191906101000a8154816fffffffffffffffffffffffffffffffff02191690836fffffffffffffffffffffffffffffffff160217905550600061013460109054906101000a90046fffffffffffffffffffffffffffffffff166fffffffffffffffffffffffffffffffff1690506040518061014001604052808281526020018b81526020018a6003811115610ee957610ee8613576565b5b815260200189898080601f016020809104026020016040519081016040528093929190818152602001838380828437600081840152601f19601f82011690508083019250505050505050815260200187878080601f016020809104026020016040519081016040528093929190818152602001838380828437600081840152601f19601f820116905080830192505050505050508152602001858152602001600081526020013373ffffffffffffffffffffffffffffffffffffffff16815260200184848080601f016020809104026020016040519081016040528093929190818152602001838380828437600081840152601f19601f820116905080830192505050505050508152602001600015158152506101306000838152602001908152602001600020600082015181600001556020820151816001015560408201518160020160006101000a81548160ff0219169083600381111561104f5761104e613576565b5b0217905550606082015181600301908161106991906143bc565b50608082015181600401908161107f91906143bc565b5060a0820151816005015560c0820151816006015560e08201518160070160006101000a81548173ffffffffffffffffffffffffffffffffffffffff021916908373ffffffffffffffffffffffffffffffffffffffff1602179055506101008201518160080190816110f191906143bc565b506101208201518160090160006101000a81548160ff02191690831515021790555090505061013160008b81526020019081526020016000208190806001815401808255809150506001900390600052602060002001600090919091909150553373ffffffffffffffffffffffffffffffffffffffff168a827fd5f12e486e828eecfc44717563e6a2e09e05b1f78527f5291d601c5c6cb0cc6a60405160405180910390a45061119f612862565b505050505050505050565b61012f6020528060005260406000206000915090508060000154908060010160009054906101000a900473ffffffffffffffffffffffffffffffffffffffff16908060020180546111fa90613fb7565b80601f016020809104026020016040519081016040528092919081815260200182805461122690613fb7565b80156112735780601f1061124857610100808354040283529160200191611273565b820191906000526020600020905b81548152906001019060200180831161125657829003601f168201915b50505050509080600301805461128890613fb7565b80601f01602080910402602001604051908101604052809291908181526020018280546112b490613fb7565b80156113015780601f106112d657610100808354040283529160200191611301565b820191906000526020600020905b8154815290600101906020018083116112e457829003601f168201915b50505050509080600401549080600501549080600601549080600701549080600801805461132e90613fb7565b80601f016020809104026020016040519081016040528092919081815260200182805461135a90613fb7565b80156113a75780601f1061137c576101008083540402835291602001916113a7565b820191906000526020600020905b81548152906001019060200180831161138a57829003601f168201915b5050505050908060090160009054906101000a900460ff1690508a565b61012d60009054906101000a900473ffffffffffffffffffffffffffffffffffffffff1681565b7f2189908c03208535424461134ce147b8dd501756c63026817156a7ca871326b06114158161286c565b61141d612813565b84861061145f576040517f08c379a0000000000000000000000000000000000000000000000000000000008152600401611456906144da565b60405180910390fd5b610134600081819054906101000a90046fffffffffffffffffffffffffffffffff1660010191906101000a8154816fffffffffffffffffffffffffffffffff02191690836fffffffffffffffffffffffffffffffff160217905550600061013460009054906101000a90046fffffffffffffffffffffffffffffffff166fffffffffffffffffffffffffffffffff169050600061012f6000838152602001908152602001600020600001541461154a576040517f08c379a000000000000000000000000000000000000000000000000000000000815260040161154190614546565b60405180910390fd5b6040518061014001604052808281526020013373ffffffffffffffffffffffffffffffffffffffff1681526020018d8d8080601f016020809104026020016040519081016040528093929190818152602001838380828437600081840152601f19601f8201169050808301925050505050505081526020018b8b8080601f016020809104026020016040519081016040528093929190818152602001838380828437600081840152601f19601f8201169050808301925050505050505081526020018881526020018781526020018681526020016000815260200185858080601f016020809104026020016040519081016040528093929190818152602001838380828437600081840152601f19601f8201169050808301925050505050505081526020016001151581525061012f60008381526020019081526020016000206000820151816000015560208201518160010160006101000a81548173ffffffffffffffffffffffffffffffffffffffff021916908373ffffffffffffffffffffffffffffffffffffffff16021790555060408201518160020190816116f091906143bc565b50606082015181600301908161170691906143bc565b506080820151816004015560a0820151816005015560c0820151816006015560e0820151816007015561010082015181600801908161174591906143bc565b506101208201518160090160006101000a81548160ff0219169083151502179055509050508773ffffffffffffffffffffffffffffffffffffffff163373ffffffffffffffffffffffffffffffffffffffff16827f1cb1c8f9675d3732a96837d7ec38656773ce98442ddc2bc72ce9c3474beaf8838f8f6040516117ca929190614593565b60405180910390a4506117db612862565b5050505050505050505050565b600060656000838152602001908152602001600020600101549050919050565b611811826117e8565b61181a8161286c565b6118248383612880565b505050565b611831612961565b73ffffffffffffffffffffffffffffffffffffffff168173ffffffffffffffffffffffffffffffffffffffff161461189e576040517f08c379a000000000000000000000000000000000000000000000000000000000815260040161189590614629565b60405180910390fd5b6118a88282612969565b5050565b7f000000000000000000000000000000000000000000000000000000000000000073ffffffffffffffffffffffffffffffffffffffff163073ffffffffffffffffffffffffffffffffffffffff160361193a576040517f08c379a0000000000000000000000000000000000000000000000000000000008152600401611931906146bb565b60405180910390fd5b7f000000000000000000000000000000000000000000000000000000000000000073ffffffffffffffffffffffffffffffffffffffff16611979612a4b565b73ffffffffffffffffffffffffffffffffffffffff16146119cf576040517f08c379a00000000000000000000000000000000000000000000000000000000081526004016119c69061474d565b60405180910390fd5b6119d881612aa2565b611a3181600067ffffffffffffffff8111156119f7576119f6613c48565b5b6040519080825280601f01601f191660200182016040528015611a295781602001600182028036833780820191505090505b506000612ad0565b50565b60008060019054906101000a900460ff16159050808015611a655750600160008054906101000a900460ff1660ff16105b80611a925750611a7430612c3e565b158015611a915750600160008054906101000a900460ff1660ff16145b5b611ad1576040517f08c379a0000000000000000000000000000000000000000000000000000000008152600401611ac8906147df565b60405180910390fd5b60016000806101000a81548160ff021916908360ff1602179055508015611b0e576001600060016101000a81548160ff0219169083151502179055505b611b16612c61565b611b1e612cb2565b611b26612d03565b611b336000801b84612880565b611b5d7fa49807205ce4d355092ef5a8a18f56e8913cf4a201fbe287825b095693c2177584612880565b8161012d60006101000a81548173ffffffffffffffffffffffffffffffffffffffff021916908373ffffffffffffffffffffffffffffffffffffffff1602179055508015611bf85760008060016101000a81548160ff0219169083151502179055507f7f26b83ff96e1f2b6a682f133852f6798a09c465da95921460cefb38474024986001604051611bef9190614847565b60405180910390a15b505050565b7f000000000000000000000000000000000000000000000000000000000000000073ffffffffffffffffffffffffffffffffffffffff163073ffffffffffffffffffffffffffffffffffffffff1603611c8b576040517f08c379a0000000000000000000000000000000000000000000000000000000008152600401611c82906146bb565b60405180910390fd5b7f000000000000000000000000000000000000000000000000000000000000000073ffffffffffffffffffffffffffffffffffffffff16611cca612a4b565b73ffffffffffffffffffffffffffffffffffffffff1614611d20576040517f08c379a0000000000000000000000000000000000000000000000000000000008152600401611d179061474d565b60405180910390fd5b611d2982612aa2565b611d3582826001612ad0565b5050565b60007f000000000000000000000000000000000000000000000000000000000000000073ffffffffffffffffffffffffffffffffffffffff163073ffffffffffffffffffffffffffffffffffffffff1614611dc9576040517f08c379a0000000000000000000000000000000000000000000000000000000008152600401611dc0906148d4565b60405180910390fd5b7f360894a13ba1a3210667c828492db98dca3e2076cc3735a920a3ca505d382bbc60001b905090565b6101326020528160005260406000208181548110611e0f57600080fd5b906000526020600020016000915091509054906101000a900473ffffffffffffffffffffffffffffffffffffffff1681565b7fa49807205ce4d355092ef5a8a18f56e8913cf4a201fbe287825b095693c2177581565b7fa49807205ce4d355092ef5a8a18f56e8913cf4a201fbe287825b095693c21775611e8f8161286c565b8161012e60006101000a81548173ffffffffffffffffffffffffffffffffffffffff021916908373ffffffffffffffffffffffffffffffffffffffff1602179055505050565b61013460109054906101000a90046fffffffffffffffffffffffffffffffff1681565b7f2189908c03208535424461134ce147b8dd501756c63026817156a7ca871326b0611f228161286c565b611f2b8361274c565b600061012f600085815260200190815260200160002090508060090160009054906101000a900460ff16611f94576040517f08c379a0000000000000000000000000000000000000000000000000000000008152600401611f8b90614122565b60405180910390fd5b8060060154838260070154611fa99190614923565b1115611fea576040517f08c379a0000000000000000000000000000000000000000000000000000000008152600401611fe1906149a3565b60405180910390fd5b82816007016000828254611ffe9190614923565b92505081905550837fd3c88d889e69f8e546f687fd29288180abae6d33b5635044ab1f170ae01ee22982600701546040516120399190613e55565b60405180910390a250505050565b7f2189908c03208535424461134ce147b8dd501756c63026817156a7ca871326b06120718161286c565b61207a8261274c565b61012f600083815260200190815260200160002060090160009054906101000a900460ff161561012f600084815260200190815260200160002060090160006101000a81548160ff021916908315150217905550817f73c9860341fcf3a75820bf92ceafc9c352f5590f6693cd99123378b454372b7d61012f600085815260200190815260200160002060090160009054906101000a900460ff1660405161212291906134c3565b60405180910390a25050565b60006065600084815260200190815260200160002060000160008373ffffffffffffffffffffffffffffffffffffffff1673ffffffffffffffffffffffffffffffffffffffff16815260200190815260200160002060009054906101000a900460ff16905092915050565b6000801b81565b60006101306000838152602001908152602001600020600001549050919050565b7f2189908c03208535424461134ce147b8dd501756c63026817156a7ca871326b06121eb8161286c565b6121f48361274c565b61012d60009054906101000a900473ffffffffffffffffffffffffffffffffffffffff1673ffffffffffffffffffffffffffffffffffffffff166391d148547f577f08e4a510a24c05fb531f78cace5d373d442eb2ba1e22f5bcf2bf4248c21e846040518363ffffffff1660e01b8152600401612272929190613fe8565b602060405180830381865afa15801561228f573d6000803e3d6000fd5b505050506040513d601f19601f820116820180604052508101906122b3919061403d565b6122f2576040517f08c379a00000000000000000000000000000000000000000000000000000000081526004016122e9906140b6565b60405180910390fd5b610133600084815260200190815260200160002060008373ffffffffffffffffffffffffffffffffffffffff1673ffffffffffffffffffffffffffffffffffffffff16815260200190815260200160002060009054906101000a900460ff1615612391576040517f08c379a000000000000000000000000000000000000000000000000000000000815260040161238890614a0f565b60405180910390fd5b6001610133600085815260200190815260200160002060008473ffffffffffffffffffffffffffffffffffffffff1673ffffffffffffffffffffffffffffffffffffffff16815260200190815260200160002060006101000a81548160ff0219169083151502179055506101326000848152602001908152602001600020829080600181540180825580915050600190039060005260206000200160009091909190916101000a81548173ffffffffffffffffffffffffffffffffffffffff021916908373ffffffffffffffffffffffffffffffffffffffff1602179055508173ffffffffffffffffffffffffffffffffffffffff16837f43b5db0eea899ae8c5f1d9ef705b17ccaf59255a6640a2fa2d8ce9ce2d75d02560405160405180910390a3505050565b7f577f08e4a510a24c05fb531f78cace5d373d442eb2ba1e22f5bcf2bf4248c21e81565b600061013060008381526020019081526020016000209050600081600001540361253c576040517f08c379a000000000000000000000000000000000000000000000000000000000815260040161253390613f68565b60405180910390fd5b8060070160009054906101000a900473ffffffffffffffffffffffffffffffffffffffff1673ffffffffffffffffffffffffffffffffffffffff163373ffffffffffffffffffffffffffffffffffffffff16146125ce576040517f08c379a00000000000000000000000000000000000000000000000000000000081526004016125c590614a7b565b60405180910390fd5b8060090160009054906101000a900460ff1615612620576040517f08c379a000000000000000000000000000000000000000000000000000000000815260040161261790614ae7565b60405180910390fd5b60018160090160006101000a81548160ff021916908315150217905550428160060181905550817f17e6a968f3326dd5ba566dd3888ff0b6aa1666f85f04dd375e8b6475db765d65426040516126769190613e55565b60405180910390a25050565b7f2189908c03208535424461134ce147b8dd501756c63026817156a7ca871326b081565b61013160205281600052604060002081815481106126c357600080fd5b90600052602060002001600091509150505481565b6126e1826117e8565b6126ea8161286c565b6126f48383612969565b505050565b6101336020528160005260406000206020528060005260406000206000915091509054906101000a900460ff1681565b61013460009054906101000a90046fffffffffffffffffffffffffffffffff1681565b600061012f600083815260200190815260200160002060000154036127a6576040517f08c379a000000000000000000000000000000000000000000000000000000000815260040161279d90614b53565b60405180910390fd5b50565b60007f01ffc9a7000000000000000000000000000000000000000000000000000000007bffffffffffffffffffffffffffffffffffffffffffffffffffffffff1916827bffffffffffffffffffffffffffffffffffffffffffffffffffffffff1916149050919050565b600260fb5403612858576040517f08c379a000000000000000000000000000000000000000000000000000000000815260040161284f90614bbf565b60405180910390fd5b600260fb81905550565b600160fb81905550565b61287d81612878612961565b612d5c565b50565b61288a828261212e565b61295d5760016065600084815260200190815260200160002060000160008373ffffffffffffffffffffffffffffffffffffffff1673ffffffffffffffffffffffffffffffffffffffff16815260200190815260200160002060006101000a81548160ff021916908315150217905550612902612961565b73ffffffffffffffffffffffffffffffffffffffff168173ffffffffffffffffffffffffffffffffffffffff16837f2f8788117e7eff1d82e926ec794901d17c78024a50270940304540a733656f0d60405160405180910390a45b5050565b600033905090565b612973828261212e565b15612a475760006065600084815260200190815260200160002060000160008373ffffffffffffffffffffffffffffffffffffffff1673ffffffffffffffffffffffffffffffffffffffff16815260200190815260200160002060006101000a81548160ff0219169083151502179055506129ec612961565b73ffffffffffffffffffffffffffffffffffffffff168173ffffffffffffffffffffffffffffffffffffffff16837ff6391f5c32d9c69d2a47ea670b442974b53935d1edc7fd64eb21e047a839171b60405160405180910390a45b5050565b6000612a797f360894a13ba1a3210667c828492db98dca3e2076cc3735a920a3ca505d382bbc60001b612de1565b60000160009054906101000a900473ffffffffffffffffffffffffffffffffffffffff16905090565b7fa49807205ce4d355092ef5a8a18f56e8913cf4a201fbe287825b095693c21775612acc8161286c565b5050565b612afc7f4910fdfa16fed3260ed0e7147f7cc6da11a60208b5b9406d12a635614ffd914360001b612deb565b60000160009054906101000a900460ff1615612b2057612b1b83612df5565b612c39565b8273ffffffffffffffffffffffffffffffffffffffff166352d1902d6040518163ffffffff1660e01b8152600401602060405180830381865afa925050508015612b8857506040513d601f19601f82011682018060405250810190612b859190614bf4565b60015b612bc7576040517f08c379a0000000000000000000000000000000000000000000000000000000008152600401612bbe90614c93565b60405180910390fd5b7f360894a13ba1a3210667c828492db98dca3e2076cc3735a920a3ca505d382bbc60001b8114612c2c576040517f08c379a0000000000000000000000000000000000000000000000000000000008152600401612c2390614d25565b60405180910390fd5b50612c38838383612eae565b5b505050565b6000808273ffffffffffffffffffffffffffffffffffffffff163b119050919050565b600060019054906101000a900460ff16612cb0576040517f08c379a0000000000000000000000000000000000000000000000000000000008152600401612ca790614db7565b60405180910390fd5b565b600060019054906101000a900460ff16612d01576040517f08c379a0000000000000000000000000000000000000000000000000000000008152600401612cf890614db7565b60405180910390fd5b565b600060019054906101000a900460ff16612d52576040517f08c379a0000000000000000000000000000000000000000000000000000000008152600401612d4990614db7565b60405180910390fd5b612d5a612eda565b565b612d66828261212e565b612ddd57612d7381612f33565b612d818360001c6020612f60565b604051602001612d92929190614eab565b6040516020818303038152906040526040517f08c379a0000000000000000000000000000000000000000000000000000000008152600401612dd49190614ee5565b60405180910390fd5b5050565b6000819050919050565b6000819050919050565b612dfe81612c3e565b612e3d576040517f08c379a0000000000000000000000000000000000000000000000000000000008152600401612e3490614f79565b60405180910390fd5b80612e6a7f360894a13ba1a3210667c828492db98dca3e2076cc3735a920a3ca505d382bbc60001b612de1565b60000160006101000a81548173ffffffffffffffffffffffffffffffffffffffff021916908373ffffffffffffffffffffffffffffffffffffffff16021790555050565b612eb78361319c565b600082511180612ec45750805b15612ed557612ed383836131eb565b505b505050565b600060019054906101000a900460ff16612f29576040517f08c379a0000000000000000000000000000000000000000000000000000000008152600401612f2090614db7565b60405180910390fd5b600160fb81905550565b6060612f598273ffffffffffffffffffffffffffffffffffffffff16601460ff16612f60565b9050919050565b606060006002836002612f739190614f99565b612f7d9190614923565b67ffffffffffffffff811115612f9657612f95613c48565b5b6040519080825280601f01601f191660200182016040528015612fc85781602001600182028036833780820191505090505b5090507f30000000000000000000000000000000000000000000000000000000000000008160008151811061300057612fff614fdb565b5b60200101907effffffffffffffffffffffffffffffffffffffffffffffffffffffffffffff1916908160001a9053507f78000000000000000000000000000000000000000000000000000000000000008160018151811061306457613063614fdb565b5b60200101907effffffffffffffffffffffffffffffffffffffffffffffffffffffffffffff1916908160001a905350600060018460026130a49190614f99565b6130ae9190614923565b90505b600181111561314e577f3031323334353637383961626364656600000000000000000000000000000000600f8616601081106130f0576130ef614fdb565b5b1a60f81b82828151811061310757613106614fdb565b5b60200101907effffffffffffffffffffffffffffffffffffffffffffffffffffffffffffff1916908160001a905350600485901c9450806131479061500a565b90506130b1565b5060008414613192576040517f08c379a00000000000000000000000000000000000000000000000000000000081526004016131899061507f565b60405180910390fd5b8091505092915050565b6131a581612df5565b8073ffffffffffffffffffffffffffffffffffffffff167fbc7cd75a20ee27fd9adebab32041f755214dbc6bffa90cc0225b39da2e5c2d3b60405160405180910390a250565b6060613210838360405180606001604052806027815260200161516a60279139613218565b905092915050565b60606000808573ffffffffffffffffffffffffffffffffffffffff168560405161324291906150e6565b600060405180830381855af49150503d806000811461327d576040519150601f19603f3d011682016040523d82523d6000602084013e613282565b606091505b50915091506132938683838761329e565b925050509392505050565b606083156133005760008351036132f8576132b885612c3e565b6132f7576040517f08c379a00000000000000000000000000000000000000000000000000000000081526004016132ee90615149565b60405180910390fd5b5b82905061330b565b61330a8383613313565b5b949350505050565b6000825111156133265781518083602001fd5b806040517f08c379a000000000000000000000000000000000000000000000000000000000815260040161335a9190614ee5565b60405180910390fd5b6000604051905090565b600080fd5b600080fd5b6000819050919050565b61338a81613377565b811461339557600080fd5b50565b6000813590506133a781613381565b92915050565b6000819050919050565b6133c0816133ad565b81146133cb57600080fd5b50565b6000813590506133dd816133b7565b92915050565b600080604083850312156133fa576133f961336d565b5b600061340885828601613398565b9250506020613419858286016133ce565b9150509250929050565b60007fffffffff0000000000000000000000000000000000000000000000000000000082169050919050565b61345881613423565b811461346357600080fd5b50565b6000813590506134758161344f565b92915050565b6000602082840312156134915761349061336d565b5b600061349f84828501613466565b91505092915050565b60008115159050919050565b6134bd816134a8565b82525050565b60006020820190506134d860008301846134b4565b92915050565b600073ffffffffffffffffffffffffffffffffffffffff82169050919050565b6000613509826134de565b9050919050565b613519816134fe565b82525050565b60006020820190506135346000830184613510565b92915050565b6000602082840312156135505761354f61336d565b5b600061355e84828501613398565b91505092915050565b61357081613377565b82525050565b7f4e487b7100000000000000000000000000000000000000000000000000000000600052602160045260246000fd5b600481106135b6576135b5613576565b5b50565b60008190506135c7826135a5565b919050565b60006135d7826135b9565b9050919050565b6135e7816135cc565b82525050565b600081519050919050565b600082825260208201905092915050565b60005b8381101561362757808201518184015260208101905061360c565b60008484015250505050565b6000601f19601f8301169050919050565b600061364f826135ed565b61365981856135f8565b9350613669818560208601613609565b61367281613633565b840191505092915050565b600061014082019050613693600083018d613567565b6136a0602083018c613567565b6136ad604083018b6135de565b81810360608301526136bf818a613644565b905081810360808301526136d38189613644565b90506136e260a0830188613567565b6136ef60c0830187613567565b6136fc60e0830186613510565b81810361010083015261370f8185613644565b905061371f6101208301846134b4565b9b9a5050505050505050505050565b6004811061373b57600080fd5b50565b60008135905061374d8161372e565b92915050565b600080fd5b600080fd5b600080fd5b60008083601f84011261377857613777613753565b5b8235905067ffffffffffffffff81111561379557613794613758565b5b6020830191508360018202830111156137b1576137b061375d565b5b9250929050565b600080600080600080600080600060c08a8c0312156137da576137d961336d565b5b60006137e88c828d01613398565b99505060206137f98c828d0161373e565b98505060408a013567ffffffffffffffff81111561381a57613819613372565b5b6138268c828d01613762565b975097505060608a013567ffffffffffffffff81111561384957613848613372565b5b6138558c828d01613762565b955095505060806138688c828d01613398565b93505060a08a013567ffffffffffffffff81111561388957613888613372565b5b6138958c828d01613762565b92509250509295985092959850929598565b6000610140820190506138bd600083018d613567565b6138ca602083018c613510565b81810360408301526138dc818b613644565b905081810360608301526138f0818a613644565b90506138ff6080830189613567565b61390c60a0830188613567565b61391960c0830187613567565b61392660e0830186613567565b8181036101008301526139398185613644565b90506139496101208301846134b4565b9b9a5050505050505050505050565b6000819050919050565b600061397d613978613973846134de565b613958565b6134de565b9050919050565b600061398f82613962565b9050919050565b60006139a182613984565b9050919050565b6139b181613996565b82525050565b60006020820190506139cc60008301846139a8565b92915050565b6139db816134fe565b81146139e657600080fd5b50565b6000813590506139f8816139d2565b92915050565b60008060008060008060008060008060e08b8d031215613a2157613a2061336d565b5b60008b013567ffffffffffffffff811115613a3f57613a3e613372565b5b613a4b8d828e01613762565b9a509a505060208b013567ffffffffffffffff811115613a6e57613a6d613372565b5b613a7a8d828e01613762565b98509850506040613a8d8d828e016139e9565b9650506060613a9e8d828e01613398565b9550506080613aaf8d828e01613398565b94505060a0613ac08d828e01613398565b93505060c08b013567ffffffffffffffff811115613ae157613ae0613372565b5b613aed8d828e01613762565b92509250509295989b9194979a5092959850565b600060208284031215613b1757613b1661336d565b5b6000613b25848285016133ce565b91505092915050565b613b37816133ad565b82525050565b6000602082019050613b526000830184613b2e565b92915050565b60008060408385031215613b6f57613b6e61336d565b5b6000613b7d858286016133ce565b9250506020613b8e858286016139e9565b9150509250929050565b600060208284031215613bae57613bad61336d565b5b6000613bbc848285016139e9565b91505092915050565b6000613bd0826134de565b9050919050565b613be081613bc5565b8114613beb57600080fd5b50565b600081359050613bfd81613bd7565b92915050565b60008060408385031215613c1a57613c1961336d565b5b6000613c28858286016139e9565b9250506020613c3985828601613bee565b9150509250929050565b600080fd5b7f4e487b7100000000000000000000000000000000000000000000000000000000600052604160045260246000fd5b613c8082613633565b810181811067ffffffffffffffff82111715613c9f57613c9e613c48565b5b80604052505050565b6000613cb2613363565b9050613cbe8282613c77565b919050565b600067ffffffffffffffff821115613cde57613cdd613c48565b5b613ce782613633565b9050602081019050919050565b82818337600083830152505050565b6000613d16613d1184613cc3565b613ca8565b905082815260208101848484011115613d3257613d31613c43565b5b613d3d848285613cf4565b509392505050565b600082601f830112613d5a57613d59613753565b5b8135613d6a848260208601613d03565b91505092915050565b60008060408385031215613d8a57613d8961336d565b5b6000613d98858286016139e9565b925050602083013567ffffffffffffffff811115613db957613db8613372565b5b613dc585828601613d45565b9150509250929050565b60008060408385031215613de657613de561336d565b5b6000613df485828601613398565b9250506020613e0585828601613398565b9150509250929050565b60006fffffffffffffffffffffffffffffffff82169050919050565b613e3481613e0f565b82525050565b6000602082019050613e4f6000830184613e2b565b92915050565b6000602082019050613e6a6000830184613567565b92915050565b60008060408385031215613e8757613e8661336d565b5b6000613e9585828601613398565b9250506020613ea6858286016139e9565b9150509250929050565b7f2141757468000000000000000000000000000000000000000000000000000000600082015250565b6000613ee66005836135f8565b9150613ef182613eb0565b602082019050919050565b60006020820190508181036000830152613f1581613ed9565b9050919050565b7f4e6f416374000000000000000000000000000000000000000000000000000000600082015250565b6000613f526005836135f8565b9150613f5d82613f1c565b602082019050919050565b60006020820190508181036000830152613f8181613f45565b9050919050565b7f4e487b7100000000000000000000000000000000000000000000000000000000600052602260045260246000fd5b60006002820490506001821680613fcf57607f821691505b602082108103613fe257613fe1613f88565b5b50919050565b6000604082019050613ffd6000830185613b2e565b61400a6020830184613510565b9392505050565b61401a816134a8565b811461402557600080fd5b50565b60008151905061403781614011565b92915050565b6000602082840312156140535761405261336d565b5b600061406184828501614028565b91505092915050565b7f2150726f66000000000000000000000000000000000000000000000000000000600082015250565b60006140a06005836135f8565b91506140ab8261406a565b602082019050919050565b600060208201905081810360008301526140cf81614093565b9050919050565b7f496e616374697665000000000000000000000000000000000000000000000000600082015250565b600061410c6008836135f8565b9150614117826140d6565b602082019050919050565b6000602082019050818103600083015261413b816140ff565b9050919050565b7f556e61737369676e656400000000000000000000000000000000000000000000600082015250565b6000614178600a836135f8565b915061418382614142565b602082019050919050565b600060208201905081810360008301526141a78161416b565b9050919050565b7f5061737400000000000000000000000000000000000000000000000000000000600082015250565b60006141e46004836135f8565b91506141ef826141ae565b602082019050919050565b60006020820190508181036000830152614213816141d7565b9050919050565b60008190508160005260206000209050919050565b60006020601f8301049050919050565b600082821b905092915050565b60006008830261427c7fffffffffffffffffffffffffffffffffffffffffffffffffffffffffffffffff8261423f565b614286868361423f565b95508019841693508086168417925050509392505050565b60006142b96142b46142af84613377565b613958565b613377565b9050919050565b6000819050919050565b6142d38361429e565b6142e76142df826142c0565b84845461424c565b825550505050565b600090565b6142fc6142ef565b6143078184846142ca565b505050565b5b8181101561432b576143206000826142f4565b60018101905061430d565b5050565b601f821115614370576143418161421a565b61434a8461422f565b81016020851015614359578190505b61436d6143658561422f565b83018261430c565b50505b505050565b600082821c905092915050565b600061439360001984600802614375565b1980831691505092915050565b60006143ac8383614382565b9150826002028217905092915050565b6143c5826135ed565b67ffffffffffffffff8111156143de576143dd613c48565b5b6143e88254613fb7565b6143f382828561432f565b600060209050601f8311600181146144265760008415614414578287015190505b61441e85826143a0565b865550614486565b601f1984166144348661421a565b60005b8281101561445c57848901518255600182019150602085019450602081019050614437565b868310156144795784890151614475601f891682614382565b8355505b6001600288020188555050505b505050505050565b7f4461746573000000000000000000000000000000000000000000000000000000600082015250565b60006144c46005836135f8565b91506144cf8261448e565b602082019050919050565b600060208201905081810360008301526144f3816144b7565b9050919050565b7f4578697374730000000000000000000000000000000000000000000000000000600082015250565b60006145306006836135f8565b915061453b826144fa565b602082019050919050565b6000602082019050818103600083015261455f81614523565b9050919050565b600061457283856135f8565b935061457f838584613cf4565b61458883613633565b840190509392505050565b600060208201905081810360008301526145ae818486614566565b90509392505050565b7f416363657373436f6e74726f6c3a2063616e206f6e6c792072656e6f756e636560008201527f20726f6c657320666f722073656c660000000000000000000000000000000000602082015250565b6000614613602f836135f8565b915061461e826145b7565b604082019050919050565b6000602082019050818103600083015261464281614606565b9050919050565b7f46756e6374696f6e206d7573742062652063616c6c6564207468726f7567682060008201527f64656c656761746563616c6c0000000000000000000000000000000000000000602082015250565b60006146a5602c836135f8565b91506146b082614649565b604082019050919050565b600060208201905081810360008301526146d481614698565b9050919050565b7f46756e6374696f6e206d7573742062652063616c6c6564207468726f7567682060008201527f6163746976652070726f78790000000000000000000000000000000000000000602082015250565b6000614737602c836135f8565b9150614742826146db565b604082019050919050565b600060208201905081810360008301526147668161472a565b9050919050565b7f496e697469616c697a61626c653a20636f6e747261637420697320616c72656160008201527f647920696e697469616c697a6564000000000000000000000000000000000000602082015250565b60006147c9602e836135f8565b91506147d48261476d565b604082019050919050565b600060208201905081810360008301526147f8816147bc565b9050919050565b6000819050919050565b600060ff82169050919050565b600061483161482c614827846147ff565b613958565b614809565b9050919050565b61484181614816565b82525050565b600060208201905061485c6000830184614838565b92915050565b7f555550535570677261646561626c653a206d757374206e6f742062652063616c60008201527f6c6564207468726f7567682064656c656761746563616c6c0000000000000000602082015250565b60006148be6038836135f8565b91506148c982614862565b604082019050919050565b600060208201905081810360008301526148ed816148b1565b9050919050565b7f4e487b7100000000000000000000000000000000000000000000000000000000600052601160045260246000fd5b600061492e82613377565b915061493983613377565b9250828201905080821115614951576149506148f4565b5b92915050565b7f4f76657200000000000000000000000000000000000000000000000000000000600082015250565b600061498d6004836135f8565b915061499882614957565b602082019050919050565b600060208201905081810360008301526149bc81614980565b9050919050565b7f4475700000000000000000000000000000000000000000000000000000000000600082015250565b60006149f96003836135f8565b9150614a04826149c3565b602082019050919050565b60006020820190508181036000830152614a28816149ec565b9050919050565b7f214f776e65720000000000000000000000000000000000000000000000000000600082015250565b6000614a656006836135f8565b9150614a7082614a2f565b602082019050919050565b60006020820190508181036000830152614a9481614a58565b9050919050565b7f446f6e6500000000000000000000000000000000000000000000000000000000600082015250565b6000614ad16004836135f8565b9150614adc82614a9b565b602082019050919050565b60006020820190508181036000830152614b0081614ac4565b9050919050565b7f496e76616c696400000000000000000000000000000000000000000000000000600082015250565b6000614b3d6007836135f8565b9150614b4882614b07565b602082019050919050565b60006020820190508181036000830152614b6c81614b30565b9050919050565b7f5265656e7472616e637947756172643a207265656e7472616e742063616c6c00600082015250565b6000614ba9601f836135f8565b9150614bb482614b73565b602082019050919050565b60006020820190508181036000830152614bd881614b9c565b9050919050565b600081519050614bee816133b7565b92915050565b600060208284031215614c0a57614c0961336d565b5b6000614c1884828501614bdf565b91505092915050565b7f45524331393637557067726164653a206e657720696d706c656d656e7461746960008201527f6f6e206973206e6f742055555053000000000000000000000000000000000000602082015250565b6000614c7d602e836135f8565b9150614c8882614c21565b604082019050919050565b60006020820190508181036000830152614cac81614c70565b9050919050565b7f45524331393637557067726164653a20756e737570706f727465642070726f7860008201527f6961626c65555549440000000000000000000000000000000000000000000000602082015250565b6000614d0f6029836135f8565b9150614d1a82614cb3565b604082019050919050565b60006020820190508181036000830152614d3e81614d02565b9050919050565b7f496e697469616c697a61626c653a20636f6e7472616374206973206e6f74206960008201527f6e697469616c697a696e67000000000000000000000000000000000000000000602082015250565b6000614da1602b836135f8565b9150614dac82614d45565b604082019050919050565b60006020820190508181036000830152614dd081614d94565b9050919050565b600081905092915050565b7f416363657373436f6e74726f6c3a206163636f756e7420000000000000000000600082015250565b6000614e18601783614dd7565b9150614e2382614de2565b601782019050919050565b6000614e39826135ed565b614e438185614dd7565b9350614e53818560208601613609565b80840191505092915050565b7f206973206d697373696e6720726f6c6520000000000000000000000000000000600082015250565b6000614e95601183614dd7565b9150614ea082614e5f565b601182019050919050565b6000614eb682614e0b565b9150614ec28285614e2e565b9150614ecd82614e88565b9150614ed98284614e2e565b91508190509392505050565b60006020820190508181036000830152614eff8184613644565b905092915050565b7f455243313936373a206e657720696d706c656d656e746174696f6e206973206e60008201527f6f74206120636f6e747261637400000000000000000000000000000000000000602082015250565b6000614f63602d836135f8565b9150614f6e82614f07565b604082019050919050565b60006020820190508181036000830152614f9281614f56565b9050919050565b6000614fa482613377565b9150614faf83613377565b9250828202614fbd81613377565b91508282048414831517614fd457614fd36148f4565b5b5092915050565b7f4e487b7100000000000000000000000000000000000000000000000000000000600052603260045260246000fd5b600061501582613377565b915060008203615028576150276148f4565b5b600182039050919050565b7f537472696e67733a20686578206c656e67746820696e73756666696369656e74600082015250565b60006150696020836135f8565b915061507482615033565b602082019050919050565b600060208201905081810360008301526150988161505c565b9050919050565b600081519050919050565b600081905092915050565b60006150c08261509f565b6150ca81856150aa565b93506150da818560208601613609565b80840191505092915050565b60006150f282846150b5565b915081905092915050565b7f416464726573733a2063616c6c20746f206e6f6e2d636f6e7472616374000000600082015250565b6000615133601d836135f8565b915061513e826150fd565b602082019050919050565b6000602082019050818103600083015261516281615126565b905091905056fe416464726573733a206c6f772d6c6576656c2064656c65676174652063616c6c206661696c6564a26469706673582212209e4784c3ca3ae604d5aa7314b13aa081717962828ecdeab3dbc4a910281af33f64736f6c634300081c0033",
  "linkReferences": {},
  "deployedLinkReferences": {}
}